:200000000C9495000C94BD000C94BD000C94BD000C94BD000C94BD000C94BD000C94BD0020
:200020000C94BD000C94BD000C94BD000C941C100C94BD000C94980F0C94BD000C94BD007F
:200040000C94BD000C94BD000C9467200C94BD000C9425220C94BD000C94BD000C94BD0064
:200060000C94BD000C94BD000C94BD000C94BD000C944D220C94BD000C94BD0000212427D7
:200080002A002225282B0020232629020202020202020204040404040404040303030303CB
:2000A000030303010101010101010101020408102040800102040810204080010204081012
:2000C00020408080402010080402010000000102000000000000000403070600000000002A
:2000E0000000000000000000000000494E46494E4954594E414ECDCCCC3D0AD7233C17B709
:20010000D13877CC2B329595E6241FB14F0A000020410000C84200401C4620BCBE4CCA1B01
:200120000E5AAEC59D747C09C92311241FBECFEFD0E1DEBFCDBF12E0A0E0B1E0E4E1F9E512
:2001400002C005900D92AA3DB107D9F718E0AAEDB2E001C01D92A63BB107E1F711E0CAE29B
:20016000D1E004C02297FE010E94FE28C632D107C9F70E9435240C94882C0C9400002F924A
:200180003F924F925F926F927F928F929F92AF92BF92CF92DF92EF92FF920F931F93DF931C
:2001A000CF93CDB7DEB72E970FB6F894DEBF0FBECDBF9E878D878B017A01FB0160817181A9
:2001C00082819381FA0120813181428153810E94BF275B016C01F8016481758186819781DF
:2001E000F70124813581468157810E94BF273B014C01F8016085718582859385F70120856C
:200200003185428553850E94BF271B012C01F8016485758586859785F7012485358546858F
:2002200057850E94BF2769877A878B879C87F8016089718982899389F7012089318942890B
:2002400053890E94BF277B018C01C601B50120E030E040E050E00E94BB2788234CF0C60122
:20026000B50120E030E040E05FE30E94082608C0C601B50120E030E040E05FE30E94072600
:200280000E94D82669837A838B839C83C401B30120E030E040E050E00E94BB2788234CF064
:2002A000C401B30120E030E040E05FE30E94082608C0C401B30120E030E040E05FE30E942E
:2002C00007260E94D8266D837E838F839887C201B10120E030E040E050E00E94BB2788232B
:2002E0004CF0C201B10120E030E040E05FE30E94082608C0C201B10120E030E040E05FE35C
:200300000E9407260E94D8263B014C0169857A858B859C8520E030E040E050E00E94BB27E3
:2003200088235CF069857A858B859C8520E030E040E05FE30E9408260AC069857A858B859F
:200340009C8520E030E040E05FE30E9407260E94D8265B016C01C801B70120E030E040E021
:2003600050E00E94BB2788234CF0C801B70120E030E040E05FE30E94082608C0C801B701D6
:2003800020E030E040E05FE30E9407260E94D82629813A814B815C81ED85FE852083318322
:2003A000428353832D813E814F81588524833583468357836086718682869386A486B58623
:2003C000C686D786608B718B828B938BCF012E960FB6F894DEBF0FBECDBFCF91DF911F9107
:2003E0000F91FF90EF90DF90CF90BF90AF909F908F907F906F905F904F903F902F9008959E
:20040000E1EBF0E0108283E28093B0008CE98093B3001092B40081E0809370008FE080839F
:200420000895882321F4809181008B7F29C0813049F4809181008B7F80938100809181002A
:20044000826015C0823049F4809181008B7F8093810080918100826018C0833071F4809151
:200460008100846080938100809181008D7F80938100809181008E7F0DC08091810084606F
:2004800080938100809181008D7F80938100809181008160809381000895E0E8F0E01082C8
:2004A000A1E8B0E01C921092820010926F008C918F7E8C938C9188608C9380818D7F8083C3
:2004C00080818E7F808380818F77808380818F7B808380818F7D808380818F7E808384E06E
:2004E0000E9411028FEF9FEF90938900809388000895FC0180819181A281B381803020E040
:20050000920721E0A20720E0B2070CF441C0893F2FEF920727E0A20720E0B20744F453E08B
:20052000B595A795979587955A95D1F731C0813C2FEF92072FE3A20720E0B20744F446E0FF
:20054000B595A795979587954A95D1F721C081302FEF92072FEFA20720E0B2073CF4892F75
:200560009A2FAB2FBB27A7FDBA9512C081302CEF92072FEFA20723E0B2071CF0EFEFFFEF71
:2005800008C02AE0B595A795979587952A95D1F7FC01CF010895FC0180819181A281B38163
:2005A000803020E0920721E0A20720E0B20714F480E00895893F2FEF920727E0A20720E05B
:2005C000B20714F481E00895813C2FEF92072FE3A20720E0B20714F482E0089581509F4FAE
:2005E000AF4FB04014F084E0089583E008950F931F93DF93CF9300D000D0CDB7DEB7E4E063
:20060000660F771F881F991FEA95D1F769837A838B839C838E010F5F1F4FC8010E947902C2
:200620009093890080938800C8010E94CB020E9411020F900F900F900F90CF91DF911F918A
:200640000F910895CF93DF93EC018881882339F18AE69CEBA0E2B2E489839A83AB83BC8319
:200660008D839E83AF83B88789E799E5A0E5B5E489879A87AB87BC87E091E202F0E0EE0F04
:20068000FF1FE252FD4F0190F081E02D80A191A1A2A1B3A18D879E87AF87B88B2CC08BE1B9
:2006A0009BE2AFE7B4E489839A83AB83BC838D839E83AF83B8878EE990E6A5EAB7E4898730
:2006C0009A87AB87BC87E091E202F0E0EE0FFF1FE252FD4F0190F081E02D60A171A182A17F
:2006E00093A123E333E34BEC51E40E94BF276D877E878F87988B80E090E0A0E8BFE3898B76
:200700009A8BAB8BBC8BDF91CF9108951F93182FE0917903F0917A038083CF010E9422034C
:20072000E0917B03F0917C031083CF010E942203E0917D03F0917E031083CF010E94220383
:20074000E0917F03F09180031083CF010E9422031F910895982F811191E08091E2029817BD
:2007600049F09093E202E0917903F0917A0380810E9486030895FB0181E08283DB0120E047
:2007800030E005C0992787FD9095280F391F8D918823C1F7215030402F733070822F805D5A
:2007A00082830895FF920F931F938B01FB01F2800E94BB0390E0F8018281F81609F491E070
:2007C000892F1F910F91FF900895EF92FF920F93DF93CF9300D0CDB7DEB77C018AE2F70193
:2007E000858B868B878B608F88E4818F438FD70180E090E003C05B96EC935B97082F095F1D
:20080000F901E80FF91FE081EE2329F0019611968A30910581F7C701800F911D9A83898310
:20082000FC01158AB701685E7F4FC7010E94BB0384E2E981FA81858B0F5FE00EF11CF701EC
:20084000158A0F900F90CF91DF910F91FF90EF900895FC018081883429F01082148A12A6E5
:2008600013A6089581E083A708950F931F938C01FC01628320A331A342A353A384E061E020
:200880000E94492182E061E00E94492184E060E00E94672182E060E00E94672183E061E05F
:2008A0000E9449218EE061E00E94492185E061E00E94492183E061E00E9467218EE060E043
:2008C0000E9467210E9400021092DB021092DA02F801178E1F910F9108958DE161E00E9471
:2008E00067210895FC01E755FF4F108232971082E75AF040CF010E946D040895FF920F933B
:200900001F938C0107551F4FF801108202501040F801108202511040FF24F394F801F1924D
:20092000F192F192F1928F01F0820959104080E090E0A0E0B0E0F801858B968BA78BB08FFF
:20094000818F928FA38FB48F858F968FA78FB0A381A392A3A3A3B4A380E090E0AAE7B4E440
:2009600085A396A3A7A3B0A78FE061E00E94492182E161E00E94492187E161E00E94492154
:2009800086E161E00E9449218BE161E00E9449218CE161E00E94492183E161E00E9449217F
:2009A00088E161E00E9449218DE161E00E944921C8010E946D0484E160E00E94492189E1CF
:2009C00060E00E9449218EE160E00E944921F801F082C8010E9422031F910F91FF90089599
:2009E000CF93DF93EC01C759DF4F88819981AA81BB81C956D0400097A105B10521F083E1C7
:200A000060E00E946721C359DF4F88819981AA81BB81CD56D0400097A105B10521F088E1F8
:200A200060E00E946721CF58DF4F88819981AA81BB81C157D0400097A105B10521F08DE1D3
:200A400060E00E946721CB58DF4F88819981AA81BB810097A105B10521F083E060E00E9408
:200A60006721DF91CF9108951F93CF93DF93EC01C955DF4F8881C75AD040882351F5CB5676
:200A8000DF4F699111E0612782E10E9467216991612786E10E94672169918CE10E94672184
:200AA0008881C859D040882319F082E061E002C082E060E00E946721CE010E94F00468EE5C
:200AC00073E080E090E00E94F702C755DF4F81E08883DF91CF911F9108958091830391E07D
:200AE000892780938303882319F080E061E002C080E060E00E9467210895DF93CF93CDB7D7
:200B0000DEB7C456D0400FB6F894DEBF0FBECDBFDE011196E0E0F1E088E001900D9281504F
:200B2000E1F7FE0139968CE5DF011D928A95E9F760917E0470917F048091800490918104DE
:200B40006F5F7F4F8F4F9F4FAE01485F5F4F2AE030E00E94022C8EE898E00E94AA238EE86C
:200B600098E0BE016F5F7F4F0E946B24CC59DF4F0FB6F894DEBF0FBECDBFCF91DF9108956A
:200B8000AF92BF92CF92DF92EF92FF920F931F93DF93CF9300D0CDB7DEB78C017B016A015A
:200BA0005901BE016F5F7F4F4AE050E00E94622A29813A81201B310B121613066CF4F70183
:200BC0006083718382839383F601808191818A299B299183808305C0F70110821182128215
:200BE0001382C9010F900F90CF91DF911F910F91FF90EF90DF90CF90BF90AF900895AF92F0
:200C0000BF92CF92DF92EF92FF920F931F93DF93CF9300D0CDB7DEB78C017B016A015901C0
:200C2000BE016F5F7F4F4AE050E00E94622A29813A81201B310B121613065CF4F701718378
:200C40006083F601808191818A299B299183808303C0F70111821082C9010F900F90CF91D1
:200C6000DF911F910F91FF90EF90DF90CF90BF90AF900895AF92BF92CF92DF92EF92FF9237
:200C80000F931F93DF93CF9300D0CDB7DEB78C017B016A015901BE016F5F7F4F0E9402294D
:200CA00029813A81201B310B121613066CF4F7016083718382839383F601808191818A2910
:200CC0009B299183808309C080E090E0A0E0B0E0F70180839183A283B383C9010F900F901E
:200CE000CF91DF911F910F91FF90EF90DF90CF90BF90AF9008952F923F924F925F926F9268
:200D00007F928F929F92AF92BF92CF92DF92EF92FF920F931F93DF93CF93CDB7DEB76897BA
:200D20000FB6F894DEBF0FBECDBF8B015E8B4D8BFC01119211926F017C019C012C5F3F4F39
:200D40003C8B2B8BFC013696FA8BE98B9C01285D3F4F388B2F87FC013896FE87ED879C01CA
:200D6000245F3F4F3C872B87FC017096FA87E9879C012C5E3F4F38872F83FC017C96FE8343
:200D8000ED839C01205E3F4F3C832B83FC01B496FA83E9836CE2262E312C280E391E50E3DE
:200DA000452E512C480E591E48E1642E712C680E791E36E3832E912C880E991E24E3A22E66
:200DC000B12CA80EB91E188E1F8AEDC0EF89F88DE00FF11FE081E03509F45DC0E135DCF43B
:200DE000E93409F484C0EA3474F4E63409F495C0E73434F4EA3209F4C4C0E53409F5A9C043
:200E0000E734F1F420C0ED3441F1EE3409F4ADC0EA34B1F477C0E43559F1E5354CF4E23545
:200E200009F486C08F89988D0196E33564F58AC0E93509F446C0EA3509F44EC0E835B1F1D6
:200E400080E090E0A9C08F89988D0196800F911FB601A70121E030E09DC08F89988D0196A5
:200E6000800F911F6B897C89A70122E030E092C08F89988D0196800F911F69897A89A7017E
:200E800020E030E487C0800F911F6F857889A70120E034E067C08F89988D0196800F911FCD
:200EA0006D857E85A70124E030E05CC08F89988D0196800F911F6B857C85A70128E030E0A1
:200EC00051C08F89988D0196800F911F69857A85A70120E130E046C08F89988D0196800FDF
:200EE000911F6F817885A70120E230E03BC08F89988D0196800F911F6D817E81A70120E4F4
:200F000030E030C08F89988D0196800F911F6B817C81A70120E030E825C08F89988D01965C
:200F2000800F911F69817A81A70120E032E01AC08F89988D0196800F911FB101A70120E08C
:200F400030E110C0800F911FB201A70120E038E009C08F89988D0196800F911FB301A701C6
:200F600020E030E20E943A0617C08F89988D0196800F911FB401A70120E830E00E94C005B7
:200F80000BC08F89988D0196800F911FB501A70120E031E00E94FF0501962F89388D280F13
:200FA000391F388F2F8B8F89988DED89FE898E179F070CF40BCF68960FB6F894DEBF0FBE40
:200FC000CDBFCF91DF911F910F91FF90EF90DF90CF90BF90AF909F908F907F906F905F90B0
:200FE0004F903F902F9008950F931F930EE818E0C80164E671E00E943C246091DC0270916F
:20100000DD02C8010E9441251F910F9108950F931F93CF93DF93EC011C821B8218861F82A4
:201020001E821D8210E001E08091DC029091DD022F813885280F391F38872F838B819C811B
:2010400001969C838B83069724F1C90165E070E00E94982878876F8388819981059768172A
:2010600079072CF01B30E0F41F5F00E00EC0002361F08D819E81861797071CF47E836D83AC
:2010800004C0CE010E94F4070BC018861F821C821B8268EE73E080E090E00E94E520C4CF28
:2010A000DF91CF911F910F91089583EE92E068E671E00E94DA2B089583EE92E06BE671E028
:2010C0000E94DA2B089583EE92E06EE671E00E94DA2B0895FC0183E090E095A784A783EE58
:2010E00092E061E771E00E94DA2B0895FC0181E090E095A784A783EE92E064E771E00E944B
:20110000DA2B089583EE92E067E771E00E94DA2B089583EE92E06AE771E00E94DA2B08959E
:2011200083EE92E06DE771E00E94DA2B089583EE92E060E871E00E94DA2B0895FC01108294
:20114000148A12A613A683EE92E063E871E00E94DA2B0895FC0111A683EE92E066E871E087
:201160000E94DA2B0895EF92FF920F931F937C0103EE12E0C80169E871E00E94DA2BC8018A
:20118000B7010E94CF2B1F910F91FF90EF900895EF92FF920F931F937C0103EE12E0C80171
:2011A0006DE871E00E94DA2BC801B7010E94CF2B1F910F91FF90EF9008950F931F938C01E9
:2011C0000E94D720E0E0D8019E962D913D914D915C91D197621B730B840B950B64307105B6
:2011E0008105910508F0E1E08E2F1F910F910895CF93DF93EC018CA59DA5892B29F4CE019C
:201200000E94970880E01CC08CE061E00E9467211DA61CA68EE090E00197F1F704C081EA68
:2012200098E00E94822381EA98E00E946E238823B1F70E94D7206EA77FA788AB99AB81E0DA
:20124000DF91CF910895CF93DF93EC018CA59DA5892B19F08AA5882339F0CE010E9489082B
:2012600080E0DF91CF910895CE010E94E503CE010E94F80881E0F5CFCF93DF93EC018AA5C2
:20128000882329F0CE010E94900880E013C08CE060E00E94672182E090E09DA78CA78EE0C1
:2012A00090E00197F1F70E94D7206EA77FA788AB99AB81E0DF91CF910895FC01158A11A6D2
:2012C0001082148A12A613A60E943C0908950F931F938C018DE061E00E9449218CE061E0A1
:2012E0000E9449218DE060E00E946721C8010E945D091F910F91089582E894E061E320E02B
:2013000030E040E050E40E94350486EA94E060E32AE939E941EA51E40E94350487E493E019
:201320000E9467098AEC94E00E947E0484E795E00E947E048EE196E00E947E0488EC96E096
:201340000E947E0408951F93CF93DF93EC018CA59DA58130910509F44CC0823091051CF43E
:20136000892B49F095C08230910509F445C0039709F08EC085C081EA98E00E946E238823FA
:2013800071F081EA98E00E948223182F0E94D7206EA77FA788AB99AB143271F409C0CE01ED
:2013A0000E94DD08882341F0CE010E94760873C0CE010E945D096FC089A5FE01E80FF11D70
:2013C0004589442309F467C0552747FD5095652F752F81EA98E020E030E00E94512589A59E
:2013E0008F5F89A789A58431C0F1CE010E94AA0834C01D8A19A644C081EA98E00E946E23A4
:20140000882391F181EA98E00E948223982F843231F08A3289F41C8A81E08AA71EC08AA559
:201420008823D9F01AA68C89FE01E80FF11D1082CE010E94290411C08AA5882371F08C890E
:20144000FE01E80FF11D90838C898F5F8C8B8C89843118F0CE010E949E080E94D7206EA7C4
:201460007FA788AB99AB17C08AA58823A1F0CE010E94DD08882379F0CE010E946A080BC075
:2014800018821C8A1AA61BA6CE010E943C0903C0CE010E948208DF91CF911F910895EF9279
:2014A000FF920F931F93CF93DF93EC010E94D7207B018C0114C0CE010E94A3090E94D7205A
:2014C0006E197F09800B910B643071058105910530F0CE010E9463081BA680E005C08BA59E
:2014E000882349F31BA681E0DF91CF911F910F91FF90EF900895CF93DF93EC019A0141E497
:201500000E942309882321F4CE010E945C081BC0CE010E944F0A882321F4CE010E94550835
:2015200012C0CE01BE010E94D203882321F4CE010E94C80808C08B81813411F481E004C020
:20154000CE010E94B30880E0DF91CF9108950F931F938C01862F93E4F8019187B801665FF6
:201560007F4F90E04AE050E00E94E12B87E493E0F8016281075F1F4FA8010E947B0A1F9117
:201580000F910895CF93DF93FC01EA01662321F086E5818781E303C086E5818780E382873F
:2015A000138687E493E062813996AF010E947B0ABE01882777FD8095982F0E94E520DF9156
:2015C000CF910895CF93DF93EC010E947B0A882309F41C829E012C5F3F4FC901DF91CF918E
:2015E00008951F93CF93DF9380916F008D7F80936F008091810380938203C9E7D3E0899110
:2016000099910E94720483E0C138D807C1F780E060E00E94672183E161E00E94672188E193
:2016200061E00E9467218DE161E00E946721E091DE02F091DF0218E51187128687E493E0A8
:2016400062813996AF010E947B0AE091E002F091E1021187128687E493E062813996AF01DA
:201660000E947B0AFFCF6F927F928F92AF92CF92DF92EF92FF920F931F93DF93CF93CDB771
:20168000DEB73B01C016D106E206F30611F420E01EC077FD1BC0AA20C9F4882061F0862F84
:2016A0000E94B221892B91F4862D0E94B22120E0892B69F00BC0862F0E94B221892B31F07D
:2016C000862D0E94B22120E0892B09F421E0822FCF91DF911F910F91FF90EF90DF90CF9083
:2016E000AF908F907F906F9008952F923F924F925F926F927F928F92AF92BF92CF92DF92E6
:20170000EF92FF920F931F93DF93CF93CDB7DEB7AE970FB6F894DEBF0FBECDBF87559F4F20
:20172000DC018C91A95AB040BEA7ADA7882309F4E7C3AB56BF4FBA83A983EDA5FEA5EF5BBA
:20174000FF4FFC83EB832DA53EA52B5A3F4F3E832D838DA59EA586569F4F98878F83ADA553
:20176000BEA5AA56BF4FBA87A987EDA5FEA5EB5BFF4FFC87EB872DA53EA5275A3F4F3E8740
:201780002D878DA59EA585569F4F988B8F87ADA5BEA5A956BF4FBA8BA98BEDA5FEA5E75B6C
:2017A000FF4FFC8BEB8B2DA53EA5235A3F4F3E8B2D8B8DA59EA584569F4F988F8F8BADA5CD
:2017C000BEA5A856BF4FBA8FA98FEDA5FEA5E35BFF4FFC8FEB8F2DA53EA52F593F4F3E8FBB
:2017E0002D8F8DA59EA583569F4F98A38F8FADA5BEA5A756BF4FBAA3A9A3A1E52A2E312CF4
:20180000EDA5FEA52E0E3F1EEB59FF4FFCA3EBA32DA53EA522563F4F3EA32DA3F8EA4F2E70
:20182000512C8DA59EA5480E591E87599F4F98A78FA3ADA5BEA5A358BF4FBAA7A9A7EFE963
:201840006E2E712CEDA5FEA56E0E7F1EE359FF4FFCA7EBA7A981BA81AC90EB81FC81008137
:20186000118122813381AD81BE81CD90DD90ED90FC908DA59EA564E170E045E150E0882433
:2018800083940E94330BEF81F8858083A985BA85AC90EB85FC850081118122813381AD852B
:2018A000BE85CD90DD90ED90FC908DA59EA569E170E04AE150E00E94330BEF85F8898083D0
:2018C000A989BA89AC90EB89FC890081118122813381AD89BE89CD90DD90ED90FC908DA572
:2018E0009EA56EE170E04FE150E00E94330BEF89F88D8083A98DBA8DAC90EB8DFC8D00818B
:20190000118122813381AD8DBE8DCD90DD90ED90FC908DA59EA56FEF7FEF4FEF5FEF88240D
:201920000E94330BEF8DF8A18083A9A1BAA1AC90F1010081118122813381ABA1BCA1CD906C
:20194000DD90ED90FC908DA59EA56FEF7FEF4FEF5FEF0E94330BEDA1FEA18083D2011C92B3
:20196000EF81F8858081882309F45AC0EFA1F8A580819181A281B381E9A5FAA520813181A0
:2019800042815381820F931FA41FB51F80839183A283B383181619061A061B060CF040C0DA
:2019A0008FE061E00E9467218EE090E00197F1F78FE060E00E94672181E0D2018C93F301CF
:2019C0002081318142815381E9A5FAA580819181A281B381821B930BA40BB50B80839183C5
:2019E000A283B383A981BA818C91EB81FC812081318142815381882349F02F5F3F4F4F4F99
:201A00005F4F20833183428353830AC02150304040405040EB81FC81208331834283538390
:201A2000AF85B8898C91882309F45AC00DA51EA50F571F4FEBA5FCA580819181A281B3816E
:201A4000F8012081318142815381820F931FA41FB51F80839183A283B383181619061A06EA
:201A60001B060CF03DC087E161E00E9467218EE090E00197F1F787E160E00E94672181E0E8
:201A8000D2018C93F3012081318142815381F80180819181A281B381821B930BA40BB50B69
:201AA00080839183A283B383A985BA858C91882351F0EB85FC8580819181A281B38101964C
:201AC000A11DB11D09C0EB85FC8580819181A281B3810197A109B10980839183A283B383E8
:201AE000AF89B88D8C91882309F460C00DA51EA50B571F4FEDA5FEA5EF58FF4F8081918162
:201B0000A281B381E157F040FEA7EDA7F8012081318142815381820F931FA41FB51F80830D
:201B20009183A283B383181619061A061B060CF03DC08BE161E00E9467218EE090E0019762
:201B4000F1F78BE160E00E94672181E0D2018C93F3012081318142815381F801808191818A
:201B6000A281B381821B930BA40BB50B80839183A283B383A989BA898C91882351F0EB8900
:201B8000FC8980819181A281B3810196A11DB11D09C0EB89FC8980819181A281B38101976F
:201BA000A109B10980839183A283B383AF8DB8A18C91882309F46EC06DA57EA567577F4F06
:201BC000EDA5FEA5EB58FF4F80819181A281B381E557F040FEA7EDA7FB012081318142811E
:201BE0005381820F931FA41FB51F80839183A283B383181619061A061B060CF04BC0E091BF
:201C0000E202F0E0EE0FFF1FE252FD4F0190F081E02D878D91E08927878F882319F084E003
:201C200061E002C084E060E00E94672181E0D2018C93F3012081318142815381EDA5FEA56D
:201C4000E757FF4F80819181A281B381821B930BA40BB50B80839183A283B383A98DBA8DF5
:201C60008C91882351F0EB8DFC8D80819181A281B3810196A11DB11D09C0EB8DFC8D808102
:201C80009181A281B3810197A109B10980839183A283B383ADA1BEA18C91882309F44AC0F1
:201CA000EDA5FEA5E357FF4F2DA53EA527583F4FD9012D913D914D915C911397A957B040DA
:201CC000BEA7ADA780819181A281B381280F391F4A1F5B1F2083318342835383121613063C
:201CE000140615063CF5D301ED90FD900D911C912E193F09400B510B20833183428353832D
:201D0000E9A1FAA18081882349F0F10180819181A281B3810196A11DB11D08C0F10180817F
:201D20009181A281B3810197A109B10980839183A283B383D2018C91882309F490C0EDA552
:201D4000FEA5EF56FF4FFEA7EDA7D1016D917D918D919C9120813181428153810E947928BE
:201D6000EDA5FEA57296DF016083718382839383A35AB040BEA7ADA70E940B277B018C01D1
:201D8000EDA5FEA5FD96608171818281938120EC31EE44E65CE40E94BF275B016C01F301B7
:201DA00060817181828193810E940B279B01AC01C801B7010E94BF279B01AC01C601B5014D
:201DC0000E94702620E030E040E050E00E94BB278823D4F0D3016D917D918D919C910E94AB
:201DE0000B279B01AC01C801B7010E94BF279B01AC01C601B5010E94702620E030E040E031
:201E00005FE30E94082619C0F30160817181828193810E940B279B01AC01C801B7010E94B9
:201E2000BF279B01AC01C601B5010E94702620E030E040E05FE30E9407260E94D8262DA50B
:201E40003EA52D553F4FD9016D937D938D939C931397A35AB040BEA7ADA70E94F702F20178
:201E60008081882309F03FC0ADA1BEA18C918823D1F1F0CCEDA5FEA5E556FF4F8081EB59C8
:201E8000F040FEA7EDA78823D1F4E456FF4F8081EC59F040FEA7EDA7882389F4E356FF4F83
:201EA0008081ED59F040FEA7EDA7882341F4E256FF4F8081EE59F040FEA7EDA701C081E039
:201EC000EDA5FEA5E755FF4F808380818823C1F48DA59EA50E946D0468EE73E080E090E0DE
:201EE0000E94F7020DC02DA53EA526563F4FD9018C91AA59B040BEA7ADA7882301F7BACFEC
:201F0000AE960FB6F894DEBF0FBECDBFCF91DF911F910F91FF90EF90DF90CF90BF90AF90AC
:201F20008F907F906F905F904F903F902F9008951F920F920FB60F9211241F932F933F9348
:201F40004F935F936F937F938F939F93AF93BF93EF93FF9380916F008D7F80936F0080917E
:201F6000840390918503019690938503809384038058924031F40E946D05109285031092A6
:201F80008403E0918203F0E0EE0FFF1FE758FC4F0190F081E02DE755FF4F8081882361F0B9
:201FA000E0918203F0E0EE0FFF1FE758FC4F808191810E94750B22C0909182038091810364
:201FC000981799F5E0918203F0E0EE0FFF1FE758FC4F0190F081E02DE755FF4F8081882314
:201FE00021F50CC0E12FF0E0EE0FFF1FE758FC4F808191810E9434051093820380916F00E4
:20200000826080936F00FF91EF91BF91AF919F918F917F916F915F914F913F912F911F914C
:202020000F900FBE0F901F901895109182031F5F1430C0F210E0D6CF1F920F920FB60F9252
:202040001124AF92BF92CF92DF92EF92FF920F931F932F933F934F935F936F937F938F93E3
:202060009F93AF93BF93CF93DF93EF93FF9380E161E00E94492180E10E94B22160E0892B3A
:2020800009F461E080E10E94672180917807909179078530910509F4B3C086309105B4F497
:2020A0008230910509F446C0833091053CF4009709F442C2019709F04FC21FC083309105FA
:2020C00009F45AC0049709F047C278C08830910509F4FCC08930910544F48630910509F43D
:2020E000B1C0079709F038C2CFC08930910509F40FC10A9709F030C22DC180917A00882383
:2021000009F43DC23091780020917900922F80E0830F911D909377078093760785E4809352
:202120007C0080E280937E0087ED80937A0082E090E00DC280917A0084FF21C28091780014
:20214000409179002091760730917707280F311D942F80E0280F391F309377072093760720
:2021600085E480937C0080E280937E0087ED80937A0083E090E0EBC180917A0084FFFFC126
:2021800080917800409179002091760730917707280F311D942F80E0280F391F3093770787
:2021A0002093760785E480937C0080E280937E0087ED80937A0084E090E0C9C180917A001A
:2021C00084FFDDC180917800409179002091760730917707280F311D942F80E0280F391F67
:2021E000309377072093760785E480937C0080E280937E0087ED80937A0085E090E0A7C145
:2022000080917A0084FFBBC180917800409179002091760730917707280F311D942F80E04C
:20222000280F391F309377072093760785E480937C0080E280937E0087ED80937A0086E04C
:2022400090E085C180917A0084FF99C180917800409179002091760730917707280F311D9B
:20226000942F80E0280F391F309377072093760785E480937C0080E280937E0087ED8093C9
:202280007A0087E090E063C180917A0084FF77C18091780040917900209176073091770743
:2022A000280F311D942F80E0280F391F309377072093760785E480937C0080E280937E008B
:2022C00087ED80937A0088E090E041C180917A0084FF55C1809178004091790020917607FE
:2022E00030917707280F311D942F80E0280F391F309377072093760785E480937C0080E29D
:2023000080937E0087ED80937A0089E090E01FC180917A0084FF33C180917800409179009D
:202320002091760730917707280F311D942F80E0280F391F309377072093760785E480930C
:202340007C0080E280937E0087ED80937A008AE090E0FDC080917A0084FF11C181E161E0F3
:202360000E94492181E10E94B22160E0892B09F461E081E10E946721209178004091790049
:202380008091760790917707820F911D342F20E0820F931F6AE070E00E9498288B017093A0
:2023A000770760937607A3E8B2E0C1E0D0E06D917C9111970617170774F5FE013197EE0FA6
:2023C000FF1FEE0FFF1FDF01A158BD4F4D915C91EF57FD4F20813181041B150BCC0FDD1F19
:2023E000CC0FDD1FCF57DD4F88819981821B930B641B750BAC01049FC001059F900D149F52
:20240000900D11240E949828260F371F3093DD022093DC0209C0CE018F5FE82F21961496CC
:20242000C431D10521F69DC06091DA027091DB028091DC029091DD02FB01E81BF90B9F0120
:20244000442737FD4095542F8091720790917307A0917407B0917507280F391F4A1F5B1F85
:202460002F3131054105510524F02EE130E040E050E059016A01223E9FEF39079FEF4907D6
:202480009FEF590744F432EEA32E3FEFB32E3FEFC32E3FEFD32EA0927207B0927307C0920F
:2024A0007407D0927507672B81F41092B4008091B0008F7C8093B0008EE061E00E9449211C
:2024C0008EE060E00E94672137C08091B0008F7E8093B0008091B00080628093B000BF0176
:2024E000882777FD8095982F0E940B2720E030E040EA51E40E94BF277B018C01C601B5018C
:202500000E940B272DEC3CEC4CEC5DE30E94BF279B01AC01C801B7010E9408260E94D8266C
:20252000CB016D39710514F08CE990E097FF02C080E090E08093B40085E480937C0080E281
:2025400080937E0087ED80937A0081E090E0909379078093780713C01092790710927807CD
:202560000EC0F0E0EE0FFF1FEE0FFF1FE358FD4F808191819093DD028093DC0255CFFF9146
:20258000EF91DF91CF91BF91AF919F918F917F916F915F914F913F912F911F910F91FF90BC
:2025A000EF90DF90CF90BF90AF900F900FBE0F901F9018952F923F924F925F926F927F9263
:2025C0008F929F92AF92BF92CF92DF92EF92FF920F931F93DF93CF93CDB7DEB7A4970FB6F2
:2025E000F894DEBF0FBECDBF2C016BA37CA3DC015596FB0184E101900D928150E1F727EAEC
:2026000030E0420E531ED2011C92E9E5FFEF4E0E5F1ED20155966D917D918D919C915897CF
:20262000209186033091870340918803509189030E9407265B016C01E894D7F8F201618D88
:20264000728D838D948D20918A0330918B0340918C0350918D030E9407267B018C01E89498
:2026600017F9D2015D966D917D918D919C91909720918E0330918F03409190035091910398
:202680000E9407263B014C01E89497F8F20161A172A183A194A12091920330919303409108
:2026A0009403509195030E9407269B01AC015F77298F3A8F4B8F5C8FD20195966D917D91CC
:2026C0008D919C919897209196033091970340919803509199030E9407269B01AC015F7704
:2026E0002D8F3E8F4F8F58A3D201D9962D933D934D935C93DC97298D3A8D4B8D5C8DD596BB
:202700002D933D934D935C93D897F20161AA72AA83AA94AA9D96ED92FD920D931C93D0976F
:20272000A1A6B2A6C3A6D4A6C601B501A60195010E94BF275B016C01C801B701A80197014A
:202740000E94BF279B01AC01C601B5010E9408267B018C01C401B301A40193010E94BF2718
:202760009B01AC01C801B7010E9408268201035C1F4FD8016D937D938D939C93139727E185
:2027800037EB41ED58E30E946C2688236CF4698D7A8D8B8D9C8D9B01AC010E94BF27F80167
:2027A00060837183828393838201035C1F4FD8016D917D918D919C9127E137EB41ED58E314
:2027C0000E946C2688236CF46D8D7E8D8F8D98A19B01AC010E94BF27F801608371838283BA
:2027E00093838201035C1F4FD8016D917D918D919C910E942628F801608371838283938368
:2028000072010894E11CF11C21E430E0420E531E8E010F5F1F4FC801B70146E853E00E94DA
:20282000BF00D2014FEB5FEF440E551EF80184E101900D928150E1F785E190E0480E591EDF
:202840008E010F5F1F4FC801B701A2010E94BF00A0E4B0E04A0E5B1ED201EBEAFFEF4E0EB1
:202860005F1EF80184E101900D928150E1F7F201EB5AFF4F21E430E0420E531E6080718077
:2028800082809380F20180819181A281B3812FEB3FEF420E531E681A790A8A0A9B0A97FEEA
:2028A00008C09094809470946094611C711C811C911CF201E75AFF4F45E450E0440E551E2C
:2028C000E080F18002811381F20180819181A281B3812BEB3FEF420E531EE81AF90A0A0B94
:2028E0001B0B17FF08C010950095F094E094E11CF11C011D111DF201E35AFF4F49E450E071
:20290000440E551E80819181A281B3818D8B9E8BAF8BB88FF20180819181A281B38127EB57
:202920003FEF420E531E2D893E894F89588D281B390B4A0B5B0B2D8B3E8B4F8B588F57FF94
:202940000BC050954095309521953F4F4F4F5F4F2D8B3E8B4F8B588FF201EF59FF4F4DE4A1
:2029600050E0440E551EA080B180C280D380F20180819181A281B38123EB3FEF420E531E22
:20298000A81AB90ACA0ADB0AD7FE08C0D094C094B094A094A11CB11CC11CD11CB201675866
:2029A0007F4FF201EB59FF4F41E550E0440E551E2081318142815381F20180819181A28196
:2029C000B381EFEAFFEF4E0E5F1E281B390B4A0B5B0B57FF07C050954095309521953F4F01
:2029E0004F4F5F4FDB012D933D934D935C931397E5E7F0E04E0E5F1ED201AD92BD92CD9271
:202A0000DC9213972D893E894F89588D5E934E933E932E93FD0112930293F292E292DF01F0
:202A20009E928E927E926E922D01E7E9FFEF4E0E5F1ED401C3016E147F048006910614F4AE
:202A4000D801C701F201E156FF4F80839183A283B383E080F1800281138121E730E0420E9B
:202A6000531ED2012D913D914D915C918FE89FEF480E591E2E153F054007510724F420810A
:202A8000318142815381F201E156FF4F2083318342835383E080F18002811381A5E7B0E07F
:202AA0004A0E5B1ED2012D913D914D915C918BE89FEF480E591E2E153F054007510724F40F
:202AC00020813181428153810FE9E02EF12CE40CF51CD7012D933D934D935C9313978D91E9
:202AE0009D910D90BC91A02D0097A105B10599F4E7EAF0E04E0E5F1E81E0D2018C93A6E816
:202B0000B3E02BA13CA1C901FC0184E101900D928150E1F78AC115E6212E312C240C351C01
:202B2000F101608071808280938092012F5A3F4F3AA329A3D9016D927D928D929C9213978B
:202B4000E9E7F0E04E0E5F1ED2011D921D921D921C921397E7E8FFEF4E0E5F1E82010F5646
:202B60001F4F21E030E040E050E0D8012D933D934D935C931397F70180819181A281B38142
:202B8000B7FF6DC0208131814281538160E070E080E090E00E94CD2859016A01D801AD9294
:202BA000BD92CD92DC921397B3E0AB16B104C104D1040CF445C0C401B301A60195010E944F
:202BC000CD28F1012083318342835383C401B301A60195010E94CD28C901DA01E9A1FAA105
:202BE00080839183A283B383281B390B4A0B5B0B57FF07C050954095309521953F4F4F4FA3
:202C00005F4F89E790E0480E591ED2012D933D934D935C931397E7E8FFEF4E0E5F1EF201F4
:202C2000E156FF4F80819181A281B38182179307A407B507A4F420833183428353830FC0B2
:202C400021E030E040E050E0D8012D933D934D935C931397F701108211821282138210E0FB
:202C6000D20155966D917D918D919C915897209186033091870340918803509189030E9460
:202C8000BB2788230CF011E0E5E9F0E04E0E5F1ED2011C93EBE6FFEF4E0E5F1E10E0D20166
:202CA00059966D917D918D919C915C9720918A0330918B0340918C0350918D030E94BB27F9
:202CC00088230CF011E0E6E9F0E04E0E5F1ED2011C93EAE6FFEF4E0E5F1E10E0D2015D9615
:202CE0006D917D918D919C91909720918E0330918F0340919003509191030E94BB278823B9
:202D00000CF011E0E7E9F0E04E0E5F1ED2011C93E9E6FFEF4E0E5F1E10E0D20191966D914D
:202D20007D918D919C919497209192033091930340919403509195030E94BB2788230CF066
:202D400011E0E8E9F0E04E0E5F1ED2011C93E8E6FFEF4E0E5F1E10E0D20195966D917D91F7
:202D60008D919C919897209196033091970340919803509199030E94BB2788230CF011E02F
:202D8000E9E9F0E04E0E5F1ED2011C93E6E0F0E04E0E5F1ED2016D917D918D919C91E1E6D6
:202DA000FFEF4E0E5F1E22E030E040E050E00E94CD2850954095309521953F4F4F4F5F4F44
:202DC000D201A358BF4F2C9311963C93119712964C93129713965C931397F201EF57FF4F41
:202DE000208331834283538325E830E0420E531E8D919D910D90BC91A02DF20181939193D5
:202E0000A193B19381939193A193B19380839183A283B383A6E8B3E02BA13CA1C901FC0187
:202E200084E101900D928150E1F7A4960FB6F894DEBF0FBECDBFCF91DF911F910F91FF9024
:202E4000EF90DF90CF90BF90AF909F908F907F906F905F904F903F902F9008951F93CF932E
:202E6000DF93EC0106C061E070E080E090E00E94E52080918203882329F48091810383307F
:202E800059F4F1CF209181038091820330E090E001972817390739F3109181031F5F1430B0
:202EA00008F010E0E12FF0E0EE0FFF1FE758FC4F80819181BE010E94DA1210938103DF91AE
:202EC000CF911F910895CF93DF93EC019B01A0E3B4E0E6E8F3E084E101900D928150E1F7F2
:202EE00088819981AA81BB818093380490933904A0933A04B0933B04F90180819181A28176
:202F0000B3818093400490934104A0934204B093430480E394E00E942E17DF91CF91089590
:202F20008F929F92AF92BF92CF92DF92EF92FF920F931F93DF93CF93CDB7DEB7A0970FB68C
:202F4000F894DEBF0FBECDBF0F2EF0E0AF2EF0E0BF2EF0EACF2EF1E4DF2EF02DA0929603A7
:202F6000B0929703C0929803D09299039EE8892E93E0992EF401608171818281938120E034
:202F800030E040E05FE30E94072669837A838B839C830F2EF0E0EF2EF0E0FF2EF0EF0F2F96
:202FA000F1E41F2FF02DED82FE820F831887CE010196BE016B5F7F4F0E946317F401608102
:202FC00071818281938120E030E04AE753E40E94072669877A878B879C87ED86FE860F87EE
:202FE000188BCE010996BE01635F7F4F0E9463170F2EF0E0EF2EF0E0FF2EF0E00F2FF0E050
:203000001F2FF02DF401E082F18202831383A0929603B0929703C0929803D092990380E06E
:2030200090E0A0E8BFE3898B9A8BAB8BBC8BAD8ABE8ACF8AD88ECE014196BE016B5E7F4F06
:203040000E946317F401608171818281938120E030E040E050E40E940726698F7A8F8B8F27
:203060009C8FAD8EBE8ECF8ED8A2CE014996BE01635E7F4F0E946317F401E082F182028360
:203080001383A0960FB6F894DEBF0FBECDBFCF91DF911F910F91FF90EF90DF90CF90BF90D2
:2030A000AF909F908F900895CF93DF93EC019B01A0E3B4E0E6E8F3E084E101900D9281506B
:2030C000E1F788819981AA81BB818093340490933504A0933604B0933704F90180819181EF
:2030E000A281B3818093400490934104A0934204B093430480E394E00E942E17DF91CF9129
:203100000895AF92BF92CF92DF92EF92FF920F931F93DF93CF93CDB7DEB7A0970FB6F894D3
:20312000DEBF0FBECDBF60918A0370918B0380918C0390918D0320E030E040EA50E40E942B
:20314000072669837A838B839C830F2EF0E0EF2EF0E8FF2EFBE30F2FF5E41F2FF02DED822E
:20316000FE820F831887CE010196BE016B5F7F4F0E94541860918A0370918B0380918C0326
:2031800090918D0320E030E04AE753E40E94072669877A878B879C87ED86FE860F87188BE1
:2031A000CE010996BE01635F7F4F0E9454180F2EF0E0AF2EF0E0BF2EF0E0CF2EF0E0DF2EF3
:2031C000F02DA0928A03B0928B03C0928C03D0928D030F2EF0E0EF2EF0E0FF2EFAE70F2F2A
:2031E000F4E41F2FF02DE0929603F0929703009398031093990380E090E0A0E8BFE3898BEA
:203200009A8BAB8BBC8BED8AFE8A0F8B188FCE014196BE016B5E7F4F0E94541860918A0344
:2032200070918B0380918C0390918D0320E030E040E251E40E940726698F7A8F8B8F9C8F32
:20324000ED8EFE8E0F8F18A3CE014996BE01635E7F4F0E945418A0928A03B0928B03C09223
:203260008C03D0928D03A0960FB6F894DEBF0FBECDBFCF91DF911F910F91FF90EF90DF90B3
:20328000CF90BF90AF900895CF93DF93EC019B01A0E3B4E0E6E8F3E084E101900D92815029
:2032A000E1F788819981AA81BB818093300490933104A0933204B0933304F901808191811D
:2032C000A281B3818093400490934104A0934204B093430480E394E00E942E17DF91CF9147
:2032E00008958F929F92AF92BF92CF92DF92EF92FF920F931F93DF93CF93CDB7DEB7A097F1
:203300000FB6F894DEBF0FBECDBF0F2EF0E0AF2EF0E0BF2EFAE7CF2EF4E4DF2EF02DA092AD
:203320009603B0929703C0929803D092990326E8822E23E0922EF4016081718182819381CD
:2033400020E030E040EA50E40E94072669837A838B839C830F2EF0E0EF2EF0E8FF2EFBE30D
:203360000F2FF5E41F2FF02DED82FE820F831887CE010196BE016B5F7F4F0E944419F401FA
:20338000608171818281938120E030E04AE753E40E94072669877A878B879C87ED86FE86DF
:2033A0000F87188BCE010996BE01635F7F4F0E9444190F2EF0E0EF2EF0E0FF2EF0E00F2FE3
:2033C000F0E01F2FF02DF401E082F18202831383A0929603B0929703C0929803D09299033B
:2033E00080E090E0A0E8BFE3898B9A8BAB8BBC8BAD8ABE8ACF8AD88ECE014196BE016B5EB1
:203400007F4F0E944419F401608171818281938120E030E040E251E40E940726698F7A8FC9
:203420008B8F9C8FAD8EBE8ECF8ED8A2CE014996BE01635E7F4F0E944419F401E082F18224
:2034400002831383A0960FB6F894DEBF0FBECDBFCF91DF911F910F91FF90EF90DF90CF90D8
:20346000BF90AF909F908F900895EF92FF920F931F93CF93DF93EC01AB0188818F3209F439
:2034800003C580E090E0A0E0B0E080931C0490931D04A0931E04B0931F04809320049093F8
:2034A0002104A0932204B09323048093240490932504A0932604B093270480932804909370
:2034C0002904A0932A04B0932B0480932C0490932D04A0932E04B0932F0484E494E0BE01DF
:2034E0000E947B066091440470914504CB01880F892F881F990B91958170972F917070FD75
:2035000003C0882309F468C0981749F08091D00282FF4FC08EE898E061E971E048C0992370
:2035200009F45AC020E080E002C02E278F5FFE01E80FF11DE081EA32C1F730E08091780439
:20354000909179048217930749F08091D00282FF30C08EE898E068EE71E029C061FF07C068
:2035600080914804909149048E36910529F180917E0490917F04A0918004B09181040196C3
:20358000A11DB11D20917A0430917B0440917C0450917D04281739074A075B0769F08091E1
:2035A000D00282FF06C08EE898E068E072E00E946B240E947D0568C480917A0490917B04BA
:2035C000A0917C04B0917D0480937E0490937F04A0938004B0938104CB0183709074892B47
:2035E00091F46115710579F08091D1029091D20297FD09C09093470480934604616070932C
:203600004504609344048091440481FF09C080914804909149048037910511F40E94F10ACA
:20362000C0914404D0914504C0FFB7C180914604909147049093D2028093D102ACE1B4E04B
:20364000E6E8F3E084E101900D928150E1F78091D3029E0128703070882309F449C0232BCF
:2036600081F08091500490915104A0915204B091530480931C0490931D04A0931E04B093D0
:203680001F04C4FF10C08091540490915504A0915604B09157048093200490932104A093B8
:2036A0002204B0932304C5FF10C08091580490915904A0915A04B0915B048093240490936E
:2036C0002504A0932604B0932704D5FF81C080915C0490915D04A0915E04B0915F048093A4
:2036E000280490932904A0932A04B0932B0470C0232BD1F060911C0470911D0480911E04D6
:2037000090911F04209150043091510440915204509153040E94082660931C0470931D04E4
:2037200080931E0490931F04C4FF1AC06091200470912104809122049091230420915404AE
:203740003091550440915604509157040E9408266093200470932104809322049093230456
:20376000C5FF1AC060912404709125048091260490912704209158043091590440915A0487
:2037800050915B040E94082660932404709325048093260490932704D5FF1AC0609128047C
:2037A0007091290480912A0490912B0420915C0430915D0440915E0450915F040E940826D2
:2037C000609328047093290480932A0490932B04D1FF10C08091680490916904A0916A04BD
:2037E000B0916B0480932C0490932D04A0932E04B0932F0480914604909147048130910599
:2038000039F18C31910549F1892B09F04DC0E0902C04F0902D0400912E0410912F0480E0EF
:2038200090E8ABE3B5E480932C0490932D04A0932E04B0932F048CE194E00E942E17E0923D
:203840002C04F0922D0400932E0410932F041CC38CE194E00E942E1717C3C3FD02C090E077
:2038600003C00E94711991E08091440484FF03C00E94811891E08091440485FD06C0992340
:2038800031F40E9471190E9481180E94901780E090E0AAE7B4E48093960390939703A093BE
:2038A0009803B0939903F0C29091820380918103981709F0D4C2E0918203F0E0EE0FFF1F82
:2038C000E758FC4F0190F081E02DE755FF4F8081882309F0C4C2809146049091470485311D
:2038E000910561F18631910534F48430910569F04497C9F521C08B35910541F18C3591056F
:2039000041F18A35910579F51DC060914C0470914D0480914E0490914F0420E030E040E03B
:203920005FE30E9408260E94D826882777FD8095982F0E94E52031C080E001C081E00E941A
:2039400086032BC081E08093D30227C01092D30224C0A6E8B3E0ECE1F4E084E101900D9211
:203960008150E1F71AC08091D00282FF16C08EE898E066E372E00E943C2440914604509103
:203980004704662757FD6095762F8EE898E02AE030E00E9466250E947D058091440481FF2F
:2039A0003EC29091820380918103981709F05EC2E0918203F0E0EE0FFF1FE758FC4F019008
:2039C000F081E02DE755FF4F8081882309F04EC280914804909149048F36910509F4E1C066
:2039E000803791051CF58A36910509F490C08B3691055CF48836910509F446C08936910573
:203A00000CF05BC0892BE9F1F0C18C36910509F4F1C08C3691050CF485C08D36910509F457
:203A20008EC08E36910509F0E0C19CC08E37910509F470C18F37910584F48137910509F440
:203A4000D9C081379105D4F08237910509F40DC18437910509F0C9C151C18C38910509F464
:203A600098C18D3891052CF48F37910509F0BDC16FC18F3891050CF0B8C1D1C1C2E3D0E0B6
:203A8000A5C00E94F10ACBC1809144049091450492FFC5C160916C0470916D0480916E0468
:203AA00090916F040E94D8267B018C010E940002F092DB02E092DA02B2C18EE898E06DE3C7
:203AC00072E00E943C246091DC027091DD028EE898E00E9439258EE898E060E472E00E94CF
:203AE0003C24E091DE02F091DF0282E68187128687E493E062813996AF010E94E20A0E943B
:203B0000912BBC018EE898E00E94412588C1E091E202F0E0EE0FFF1FE252FD4F808191811A
:203B20006FEF0AC0E091E202F0E0EE0FFF1FE252FD4F8081918160E00E94A70A70C16091D5
:203B40006C0470916D0480916E0490916F040E94D8267B018C010E940002F092DB02E0924E
:203B6000DA02CCC08091440487FF59C180917A0490917B04A0917C04B0917D0480937E04AD
:203B800090937F04A0938004B09381048091D00281FF45C18EE898E064E472E00E946B24DE
:203BA0003EC160916C0470916D0480916E0490916F040E94DD266093D00231C10E946D05AC
:203BC00062E370E080E090E00E94E52021978FEFCF3FD80799F78091810380938203C9E749
:203BE000D3E0899199910E947204E3E0C138DE07C1F715C18091440490914504E091E2026F
:203C000092FF22C0F0E0EE0FFF1FE252FD4F0081118160916C0470916D0480916E0490913C
:203C20006F0420E030E04FE753E40E94BF2720E030E040E05FE30E9408260E94D826DC014D
:203C4000CB012DE4F801BFC0F0E0EE0FFF1FE252FD4F0190F081E02D85E58187128687E420
:203C600093E062813996AF01BDC08EE898E065E572E00E943C2440918603509187036091B0
:203C80008803709189038EE898E00E94F8258EE898E06AE572E00E943C2440918A0350918F
:203CA0008B0360918C0370918D038EE898E00E94F8258EE898E06DE572E00E943C24409153
:203CC0008E0350918F0360919003709191038EE898E00E94F8258EE898E060E672E00E94F2
:203CE0003C24409192035091930360919403709195038EE898E00E94FC2591C0E091E2020F
:203D0000F0E0EE0FFF1FE252FD4F808191810E94070885C0E091E202F0E0EE0FFF1FE252BB
:203D2000FD4F0081118160914C0470914D0480914E0490914F0420E030E040E05FE30E94A6
:203D400008260E94D8269B01AC01C80161E01DC0E091E202F0E0EE0FFF1FE252FD4F008124
:203D6000118160914C0470914D0480914E0490914F0420E030E040E05FE30E9408260E9463
:203D8000D8269B01AC01C80160E0A9010E94C20A46C0809144049091450492FF40C00091D0
:203DA000DE021091DF0260916C0470916D0480916E0490916F040E94D826DC01CB01F80175
:203DC0009183808322E42187B801665F7F4F4AE050E00E94E12B87E493E0F8016281075FAA
:203DE0001F4FA8010E947B0A1AC08091D00282FF16C08EE898E063E672E00E943C24409115
:203E0000480450914904662757FD6095762F8EE898E02AE030E00E9466250E947D05809143
:203E200044049091450496FF2FC09091820380918103981711F5E0918203F0E0EE0FFF1F7B
:203E4000E758FC4F0190F081E02DE755FF4F8081882399F480914A040E94AA0315C061E042
:203E600070E080E090E00E94E5201ECD61E070E080E090E00E94E52094CD61E070E080E036
:203E800090E00E94E520D1CFDF91CF911F910F91FF90EF9008958EE898E00E946E238823D4
:203EA00031F18EE898E00E9482238093CF020E946D058091CF028D3019F48AE08093CF02B9
:203EC0009091CF0290329CF09B3319F481E080931B0480911B04882351F480911A04E82FCE
:203EE000F0E0E656FC4F90838F5F80931A0480911A0487FF04C010921A0410921B04E091CE
:203F00001A04EE2309F440C08091CF028A30E1F5F0E0E656FC4F10828091D00280FF0CC0EC
:203F20008EE898E06AE672E00E943C248EE898E06AE973E00E946B2460911A048AE993E035
:203F400070E00E94351A10921A0410921B048091E302882399F08091D00281FF0FC08EE8CD
:203F600098E060E772E00E943C248EE898E063EE72E00E946B241092E30208958EE898E05A
:203F800064E772E00E946B2408950E944B1F87E493E00E94A3090895EF92FF920F931F937B
:203FA0003FE6E32EF12CF70180818D7F80830E944D02109285031092840380E061E00E941F
:203FC00049211092E302109283038FEF9FEFAFEFBFEF80937E0490937F04A0938004B0933B
:203FE000810486EA94E09093DF028093DE0282E894E09093E1028093E0021092E202109260
:204000008103109282038AEC94E090937A038093790324E735E030937C0320937B032EE13A
:2040200036E030937E0320937D0328EC36E03093800320937F0311E01093CA040E94220325
:20404000E0917B03F0917C031083CF010E942203E0917D03F0917E031083CF010E9422032A
:20406000E0917F03F09180031083CF010E94220310921A0410921B040EE818E0C80140E0C7
:204080005BE460E070E00E947522C80167E772E00E946B2460ED77E080E090E00E94E52063
:2040A00081EA98E040E452E46FE070E00E94752268EE73E080E090E00E94F702F7018081DE
:2040C000826080831F910F91FF90EF9008951F920F920FB60F9211242F938F939F93AF93BB
:2040E000BF9380917A0790917B07A0917C07B0917D070196A11DB11D80937A0790937B0764
:20410000A0937C07B0937D0780917E0790917F07A0918007B09181078050904CAF4FBF4FAC
:2041200080937E0790937F07A0938007B093810727C080917E0790917F07A0918007B0919C
:20414000810780589E43A040B04080937E0790937F07A0938007B0938107809182079091CD
:204160008307A0918407B09185070196A11DB11D8093820790938307A0938407B093850733
:2041800080917E0790917F07A0918007B091810781589E43A040B04060F6BF91AF919F91C1
:2041A0008F912F910F900FBE0F901F9018958FB7F894209182073091830740918407509124
:2041C00085078FBFB901CA010895EF92FF920F931F937B018C018FB7F89440918207509167
:2041E000830760918407709185078FBF2FB7F8948091820790918307A0918407B09185079E
:204200002FBF841B950BA60BB70BE816F9060A071B0760F71F910F91FF90EF900895789470
:2042200084B5826084BD84B5816084BD85B5826085BD85B5816085BDEEE6F0E08081816086
:204240008083E1E8F0E0808182608083808181608083E0E8F0E0808181608083E1EBF0E0DE
:20426000808184608083E0EBF0E0808181608083EAE7F0E080818460808380818260808367
:204280008081816080838081806880831092C1000895282F30E0C90185559F4FFC01949132
:2042A00025573F4FF9018491882381F0E82FF0E0E458FF4FE491F0E0662329F48081909547
:2042C0008923808308958081892B80830895482F50E0CA0185539F4FFC012491CA018555AE
:2042E0009F4FFC01949145575F4FFA0134913323C1F1222331F1213019F484B58F7704C0D4
:20430000223021F484B58F7D84BD1BC0233021F4809180008F7705C0243031F48091800007
:204320008F7D809380000DC0263021F48091B0008F7705C0273029F48091B0008F7D8093C6
:20434000B000E32FF0E0EF57FF4FE491F0E0662329F4808190958923808308958081892B25
:2043600080830895482F50E0CA0185539F4FFC012491CA0185559F4FFC01949145575F4FB4
:20438000FA013491332319F420E030E035C0222331F1213019F484B58F7704C0223021F4C6
:2043A00084B58F7D84BD1BC0233021F4809180008F7705C0243031F4809180008F7D8093AF
:2043C00080000DC0263021F48091B0008F7705C0273029F48091B0008F7D8093B000E32F83
:2043E000F0E0EA57FF4FE491F0E0808120E030E0892311F021E030E0C90108950F931F938F
:20440000CF93DF93482FFB018B0100581F4FD801CD91DC91CE01019660E870E00E949828FF
:204420009C01EE57FF4F80819181E258F0402817390731F0CE0FDF1F4883F8013183208339
:20444000DF91CF911F910F9108951F920F920FB60F9211242F933F934F935F936F937F9336
:204460008F939F93AF93BF93EF93FF938091C60066E877E00E94FE21FF91EF91BF91AF9163
:204480009F918F917F916F915F914F913F912F910F900FBE0F901F9018951F920F920FB6DE
:2044A0000F9211242F933F934F935F936F937F938F939F93AF93BF93EF93FF938091CE00CF
:2044C0006AE078E00E94FE21FF91EF91BF91AF919F918F917F916F915F914F913F912F9119
:2044E0000F900FBE0F901F9018955F926F927F928F929F92AF92BF92CF92DF92EF92FF928A
:204500000F931F93CF93DF93EC013A014B01413482E458078FE0680780E078070CF07FC0CD
:2045200060E874E88EE190E0A40193010E94CD282150304040405040CA01B90122E030E0A0
:2045400040E050E00E94CD2859016A01A6019501209530954095509594E0220F331F441FE4
:20456000551F9A95D1F760E074E284EF90E00E94CD28CA01B9012FEF30E040E050E00E941B
:204580007928A40193010E94CD28C90181509F4F181619061CF4522E5A9403C05524539433
:2045A000521A60E079E08DE390E0A40193010E94CD282150304040405040CA01B90122E0CE
:2045C00030E040E050E00E94CD28209530954095509583E0220F331F441F551F8A95D1F70C
:2045E00060E074E284EF90E00E94CD28CA01B9012FEF30E040E050E00E947928A40193012C
:204600000E94CD28C90181509F4F181619061CF4822F815002C081E0821B851500F5E885DF
:20462000F98581E090E00A8802C0880F991F0A94E2F7808360E079E08DE390E0A40193015C
:204640000E94CD282150304040405040CA01B90122E030E040E050E00E94CD2804C0E88523
:20466000F98510829501EC81FD813083EE81FF812083EA85FB85208141E050E0CA010E8426
:2046800002C0880F991F0A94E2F7282B2083EA85FB852081CA010F8402C0880F991F0A94FF
:2046A000E2F7282B2083EA85FB858081088802C0440F551F0A94E2F7842B8083DF91CF9129
:2046C0001F910F91FF90EF90DF90CF90BF90AF909F908F907F906F905F900895DC011296B3
:2046E000ED91FC911397E058FF4F8191919180589F4F20813181821B930B60E870E00E94BD
:2047000098280895CF93DF93DC011296ED91FC911397EF01CE57DF4F48815981E058FF4FC2
:2047200080819181E058F0408417950719F42FEF3FEF0CC0E40FF51F2081CA01019660E850
:2047400070E00E9498289983888330E0C901DF91CF910895DC011296ED91FC911397EE57BA
:20476000FF4F80819181929382930895FC01A085B18521898C9190E0022E02C0959587953A
:204780000A94E2F780FFF6CF0484F585E02D6083089528ED32E030938F0820938E0886E897
:2047A00097E0909391088093900885EC90E0909393088093920884EC90E09093950880931C
:2047C000940880EC90E0909397088093960881EC90E0909399088093980886EC90E0909395
:2047E0009B0880939A08E4E0E0939C0873E070939D0867E060939E0855E050939F0841E0CB
:204800004093A0083093A2082093A1088AE098E09093A4088093A3088DEC90E09093A6082B
:204820008093A5088CEC90E09093A8088093A70888EC90E09093AA088093A90889EC90E0D9
:204840009093AC088093AB088EEC90E09093AE088093AD08E093AF087093B0086093B1089F
:204860005093B2084093B30808950E940F210E94CC1F0E94C51FFDCF0F931F93CF93DF9397
:204880008C01EB0109C02196D801ED91FC910190F081E02DC801099568816623A1F7DF914B
:2048A000CF911F910F9108950F931F938C01DC01ED91FC910190F081E02D6DE00995D8010F
:2048C000ED91FC910190F081E02DC8016AE009951F910F9108950F931F938C010E943C243D
:2048E000C8010E9454241F910F9108952F923F924F925F926F927F928F929F92AF92BF928E
:20490000CF92DF92EF92FF920F931F93DF93CF93CDB7DEB7A0970FB6F894DEBF0FBECDBFF4
:204920001C016A017B01411551056105710549F4DC01ED91FC910190F081E02D60E30995D6
:2049400054C0882499245401422E55246624772401E010E00C0F1D1F080D191DC701B60185
:20496000A30192010E94AB28F80160830894811C911CA11CB11CC701B601A30192010E94E7
:20498000AB28C901DA016C017D01C114D104E104F104F1F681E0E82EF12CEC0EFD1EE80CAC
:2049A000F91C3E010894611C711CD501C4010197A109B1096C01C818D90814C0F601EE0D72
:2049C000FF1D60816A3010F4605D01C0695CD101ED91FC910190F081E02DC1010995089411
:2049E000E108F1086E147F0449F7A0960FB6F894DEBF0FBECDBFCF91DF911F910F91FF9064
:204A0000EF90DF90CF90BF90AF909F908F907F906F905F904F903F902F9008952AE00E94BA
:204A200076240895EF92FF920F931F93CF93DF93EC017A018B0177FF0FC0E881F981019058
:204A4000F081E02D6DE2099510950095F094E094E11CF11C011D111DCE01B801A7012AE029
:204A60000E947624DF91CF911F910F91FF90EF900895AB01662757FD6095762F0E9412252F
:204A800008950F931F938C01AB01662757FD6095762F0E941225C8010E9454241F910F9165
:204AA0000895DC012115310541F4ED91FC910190F081E02D642F099508952A30310519F456
:204AC0000E94122508950E94762408950F931F938C010E945125C8010E9454241F910F915B
:204AE00008959F92AF92BF92CF92DF92EF92FF920F931F93CF93DF93EC017A018B01922E96
:204B0000CB01BA0120E030E040E050E00E946C26882364F4E881F9810190F081E02DCE01B6
:204B20006DE2099517FB109517F9109520E030E040E05FE3AA240BC0CA01B90120E030E07C
:204B400040E251E40E9470269B01AC01A394A91498F3C801B7010E9408265B016C010E9442
:204B6000DD267B018C01CE01B801A7010E940E25992029F0CE016DE772E00E943C24C80112
:204B8000B7010E9409279B01AC01C601B5010E94072620C020E030E040E251E40E94BF2727
:204BA0007B018C010E94D8265B016C01CC24B7FCC094DC2CCE01B601A5010E941225C601B8
:204BC000B5010E940B279B01AC01C801B7010E9407269A949920F1F6DF91CF911F910F91C4
:204BE000FF90EF90DF90CF90BF90AF909F90089522E00E94712508950F931F938C010E9425
:204C0000F825C8010E9454241F910F9108955058BB27AA270ED075C166D130F06BD120F095
:204C200031F49F3F11F41EF45BC10EF4E095E7FB51C1E92F77D180F3BA17620773078407C1
:204C4000950718F071F49EF58FC10EF4E0950B2EBA2FA02D0B01B90190010C01CA01A00132
:204C60001124FF27591B99F0593F50F4503E68F11A16F040A22F232F342F4427585FF3CF4F
:204C8000469537952795A795F0405395C9F77EF41F16BA0B620B730B840BBAF09150A1F09B
:204CA000FF0FBB1F661F771F881FC2F70EC0BA0F621F731F841F48F4879577956795B79598
:204CC000F7959E3F08F0B3CF9395880F08F09927EE0F979587950895D9D008F481E00895F5
:204CE0000CD00FC107D140F0FED030F021F45F3F19F0F0C0511139C1F3C014D198F399236B
:204D0000C9F35523B1F3951B550BBB27AA2762177307840738F09F5F5F4F220F331F441FC0
:204D2000AA1FA9F333D00E2E3AF0E0E830D091505040E695001CCAF729D0FE2F27D0660F82
:204D4000771F881FBB1F261737074807AB07B0E809F0BB0B802DBF01FF2793585F4F2AF023
:204D60009E3F510568F0B6C000C15F3FECF3983EDCF3869577956795B795F7959F5FC9F796
:204D8000880F911D9695879597F90895E1E0660F771F881FBB1F621773078407BA0720F0BE
:204DA000621B730B840BBA0BEE1F88F7E095089504D06894B111D9C00895BCD088F09F5744
:204DC00090F0B92F9927B751A0F0D1F0660F771F881F991F1AF0BA95C9F712C0B13081F0AB
:204DE000C3D0B1E00895C0C0672F782F8827B85F39F0B93FCCF3869577956795B395D9F754
:204E00003EF490958095709561957F4F8F4F9F4F0895E89409C097FB3EF4909580957095AC
:204E200061957F4F8F4F9F4F9923A9F0F92F96E9BB279395F695879577956795B795F111DF
:204E4000F8CFFAF4BB0F11F460FF1BC06F5F7F4F8F4F9F4F16C0882311F096E911C07723C0
:204E600021F09EE8872F762F05C0662371F096E8862F70E060E02AF09A95660F771F881FD3
:204E8000DAF7880F9695879597F90895990F0008550FAA0BE0E8FEEF16161706E807F90780
:204EA000C0F012161306E407F50798F0621B730B840B950B39F40A2661F0232B242B252BCD
:204EC00021F408950A2609F4A140A6958FEF811D811D089597F99F6780E870E060E0089555
:204EE0009FEF80EC089500240A941616170618060906089500240A9412161306140605061E
:204F00000895092E0394000C11F4882352F0BB0F40F4BF2B11F460FF04C06F5F7F4F8F4F9E
:204F20009F4F089557FD9058440F551F59F05F3F71F04795880F97FB991F61F09F3F79F046
:204F400087950895121613061406551FF2CF4695F1DF08C0161617061806991FF1CF86959B
:204F60007105610508940895E894BB2766277727CB0197F908958ADF08F48FEF08950BD03F
:204F8000C0CFB1DF28F0B6DF18F0952309F0A2CFA7CF1124EACFC6DFA0F3959FD1F3950FE3
:204FA00050E0551F629FF001729FBB27F00DB11D639FAA27F00DB11DAA1F649F6627B00DE9
:204FC000A11D661F829F2227B00DA11D621F739FB00DA11D621F839FA00D611D221F749F79
:204FE0003327A00D611D231F849F600D211D822F762F6A2F11249F5750408AF0E1F088237C
:205000004AF0EE0FFF1FBB1F661F771F881F91505040A9F79E3F510570F05CCFA6CF5F3FBD
:20502000ECF3983EDCF3869577956795B795F795E7959F5FC1F7FE2B880F911D969587950A
:2050400097F9089511F40EF44BCF3EC073DFD0F39923D9F3CEF39F57550B87FF43D0002493
:20506000A0E640EA900180585695979528F4805C660F771F881F20F026173707480730F458
:20508000621B730B840B202931294A2BA69517940794202531254A2758F7660F771F881FE0
:2050A00020F026173707480730F4620B730B840B200D311D411DA09581F7B901842F91589C
:2050C000880F9695879508959F3F31F0915020F4879577956795B795880F911D9695879565
:2050E00097F9089591505040660F771F881FD2F70895629FD001739FF001829FE00DF11D09
:20510000649FE00DF11D929FF00D839FF00D749FF00D659FF00D9927729FB00DE11DF91F8F
:20512000639FB00DE11DF91FBD01CF011124089597FB092E07260AD077FD04D049D006D033
:2051400000201AF4709561957F4F0895F6F7909581959F4F0895A1E21A2EAA1BBB1BFD01A4
:205160000DC0AA1FBB1FEE1FFF1FA217B307E407F50720F0A21BB30BE40BF50B661F771FA5
:20518000881F991F1A9469F760957095809590959B01AC01BD01CF01089597FB092E052606
:2051A0000ED057FD04D0D7DF0AD0001C38F450954095309521953F4F4F4F5F4F0895F6F778
:2051C00090958095709561957F4F8F4F9F4F0895AA1BBB1B51E107C0AA1FBB1FA617B707B1
:2051E00010F0A61BB70B881F991F5A95A9F780959095BC01CD010895EE0FFF1F0590F491A7
:20520000E02D0994A0E0B0E0E8E0F9E20C94572CEC015B016115710519F0FB0191838083BD
:20522000F9908F2D90E00E94AF2B892BC9F7FDE2FF1621F4F990EE24E39405C02BE2F216D4
:2052400009F4F990EE248E0101501040C8016BEE70E043E050E00E94B72B892B01F58E0104
:205260000E5F1F4FC8016EEE70E045E050E00E94B72B892B19F48E01095F1F4FA114B10475
:2052800019F0F50111830083E0FC04C070E090E080E814C070E090E080E86FEF08C1C80144
:2052A00063EF70E043E050E00E94B72B892B69F4A114B10429F470E090E080EC6FE7F7C0A4
:2052C0002296F501D183C083F6CF8824992440E050E060E070E0EF2DE053EA30A0F5F2E0AB
:2052E000EF2A8E2D90E09C0128703070E2FE06C0232B79F50894811C911C2BC0232B19F00B
:20530000089481089108DB01CA0112E0880F991FAA1FBB1F1A95D1F7480F591F6A1F7B1FDB
:20532000440F551F661F771F4E0F511D611D711D483929E9520729E9620729E1720748F092
:2053400084E0E82A06C0EE3F31F4E3FC39C098E0E92AF990C0CFE53311F0E53189F52991DD
:205360002D3219F4E0E1EE2A05C02B3219F081E090E003C0299182E090E0E22FE053EA303F
:2053800018F0C81BD90B1CC020E030E0FCE020383F075CF4C901880F991F880F991F280FE9
:2053A000391F220F331F2E0F311DE991E053EA3068F3E4FE03C0309521953F4F820E931E76
:2053C000CE2CDD24E1FE07C0A114B10421F02197F501D183C083CB01BA010E9409277B0197
:2053E0008C01F3E0CF22DD2423E0C216D10421F417FB109517F9109557016801C801B701E8
:2054000020E030E040E050E00E946C26882309F44AC097FE0DC02AE0E22E21E0F22E909485
:20542000819491089394C0E2D0E000E010E012C092E2E92E91E0F92EF6CFF7012591359147
:2054400045915491C601B5010E94BF275B016C018C1A9D0A8C169D0684F7D595C7950F5F82
:205460001F4F0630110529F08CEF9FEFE80EF91EF1CFC501D6017C018D018C2D880F8D2DD1
:20548000881F8F3F51F0C601B50120E030E040E050E00E946C26882331F482E290E090937E
:2054A000B5088093B4087E2D9F2D802F612F272F392F482F562FB901CA01CDB7DEB7ECE086
:2054C0000C94732C2F923F925F926F927F928F929F92AF92BF92CF92DF92EF92FF920F938E
:2054E0001F93CF93DF938C011B01EA016115710519F0FB0191838083209749F0CE01029732
:20550000839728F020E030E040E050E0F6C0F801A1908F018A2D90E00E94AF2B892BB9F782
:20552000FDE2AF1631F4F801A1908F015524539407C0FBE2AF1619F4F801A1908F015524DF
:20554000209719F0C031D105C1F4F0E3AF1679F4F8018081883711F0883549F4F801A1803C
:205560000E5F1F4FF2E05F2AC0E1D0E006C0209721F480E3A816E9F427C0C830D10531F13D
:20558000C930D10524F4C230D10531F50CC0CA30D10589F0C031D105F9F4C12CD12CE12C76
:2055A000B8E0FB2E28C0C12CD12CE12CA0E4FA2E22C0CAE0D0E0FCECCF2EFCECDF2EFCECA1
:2055C000EF2EFCE0FF2E17C0C8E0D0E0C12CD12CE12CE0E1FE2E0FC09E01442737FD4095B0
:2055E000542F60E070E080E090E80E94AB28C901DA016C017D0120E030E040E050E060E01B
:205600003E01882477FC8094982C70EDB72EBA0CE9E0EB1570F48A2D81548A3118F499EC47
:20562000B92E06C08A2D81568A3150F589EAB82EBA0C8B2D90E08C179D0714F56F3FE1F019
:20564000C216D306E406F506B0F0CA01B901A40193010E9479289B01AC012B0D311D411DE6
:20566000511D2130F0E03F07F0E04F07F0E85F0710F461E001C06FEFF801A1908F01C5CF3F
:205680002114310481F0662331F001501040F1011183008308C051FE1AC002501040F10156
:2056A0001183008314C067FF12C050FC05C02FEF3FEF4FEF5FE704C020E030E040E050E8BA
:2056C00082E290E09093B5088093B40816C050FE08C050954095309521953F4F4F4F5F4F4C
:2056E0000CC057FF0AC082E290E09093B5088093B4082FEF3FEF4FEF5FE7B901CA01DF9176
:20570000CF911F910F91FF90EF90DF90CF90BF90AF909F908F907F906F905F903F902F9096
:205720000895FC0188279927E89421912032E9F3293010F02E30C8F32B3241F02D3239F478
:20574000689404C00E94362C820F911D219120532A30C0F31EF4909581959F4F089591119A
:205760008DC0803219F089508550D0F70895FB01DC014150504088F08D9181341CF08B35FE
:205780000CF4805E659161341CF06B350CF4605E861B611171F3990B0895881BFCCFFB0114
:2057A000DC010D900020E9F7119701900D920020E1F70895FB01DC0101900D920020E1F701
:2057C0000895FB019F01E8944230C4F04532B4F44A3029F497FB1EF4909581959F4F642FD8
:2057E00077270E94E828805D8A330CF0895D8193CB010097A1F716F45DE251931082C90145
:205800000C94412CFA01CF93FF93EF93223044F1253234F5C22FE894CA3049F497FB3EF49B
:2058200090958095709561957F4F8F4F9F4F2C2F332744275527FF93EF930E94AB28EF91F4
:20584000FF91605D6A330CF0695D6193B901CA01605070408040904051F716F4CDE2C193DE
:2058600010828F919F91CF910C94412C7AE0979F902D879F802D910D1124089599278827DA
:205880000895DC01FC01672F71917723E1F7329704C07C916D9370836291AE17BF07C8F3C1
:2058A00008952F923F924F925F926F927F928F929F92AF92BF92CF92DF92EF92FF920F936B
:2058C0001F93CF93DF93CDB7DEB7CA1BDB0B0FB6F894DEBF0FBECDBF09942A883988488837
:2058E0005F846E847D848C849B84AA84B984C884DF80EE80FD800C811B81AA81B981CE0F37
:20590000D11D0FB6F894DEBF0FBECDBFED010895F894FFCF526573656E643A0000000000D2
:20592000000000000000000000000000000000000000000000000000000000000000000067
:20594000000000000000000000000000000000000000000000000000000000000000000047
:20596000000000000000000000000000000000000000000000000000453A200045420045BC
:205980004100453900453800453700453600453500453400453300453200453100454420D3
:2059A000004543200053657269616C204572726F723A52656369657665642061204C696E90
:2059C000654E7220636F646520776974686F7574206120436865636B73756D20636F646524
:2059E000206F7220436865636B73756D20776974686F7574204C696E654E72005365726924
:205A0000616C204572726F723A20636865636B73756D206D69736D617463680053657269D9
:205A2000616C204572726F723A204C696E654E72206973206E6F7420746865206C6173742B
:205A4000206C696E654E722B31006875683F204700543A0020423A0044454255473A4C69F7
:205A60006E654E722073657400433A205800205900205A002045004875683F204D00456361
:205A8000686F3A006F6B20006F6B007374617274002E0001006003360002016B00D300A04A
:205AA00000B900D500A8000A019A003F018F0074018500A9017D00DE01740013026D0048FE
:205AC0000265007D025E00B2025700E7024F001C03460051033D0086033200BB032200F0BE
:205AE0000302003F06FFFF0100000000B623FFFFFFFFFFFFFFFFFFFFFFFFFFFFFFFFFFFF96
:205B000000D300A000B900D500A8000A019A003F018F0074018500A9017D00DE01740013E1
:205B2000026D00480265007D025E00B2025700E7024F001C03460051033D0086033200BBBB
:205B4000032200F00302003F06FFFF0100000000E823FFFFFFFFFFFFFFFFFFFFFFFFFFFFEA
:205B6000FFFFFFFFFFFFFFFFFFFFFFFFFFFFFFFFFFFFFFFFFFFFFFFFFFFFFFFFFFFFFFFF45
:205B8000FFFFFFFFFFFFFFFFFFFFFFFFFFFFFFFFFFFFFFFFFFFFFFFFFFFFFFFFFFFFFFFF25
:205BA000FFFFFFFFFFFFFFFFFFFFFFFFFFFFFFFFFFFFFFFFFFFFFFFFFFFFFFFFFFFFFFFF05
:205BC000FFFFFFFFFFFFFFFFFFFFFFFFFFFFFFFFFFFFFFFFFFFFFFFFFFFFFFFFFFFFFFFFE5
:205BE000FFFFFFFFFFFFFFFFFFFFFFFFFFFFFFFFFFFFFFFFFFFFFFFFFFFFFFFFFFFFFFFFC5
:205C0000000000000000000000000000000000000000000000000000000000000000000084
:205C20000000453A200045420045410045390045380045370045360045350045340045335B
:205C400000453200453100454420004543200053657269616C204572726F723A52656369BF
:205C6000657665642061204C696E654E7220636F646520776974686F7574206120436865F7
:205C8000636B73756D20636F6465206F7220436865636B73756D20776974686F7574204C32
:205CA000696E654E720053657269616C204572726F723A20636865636B73756D206D697348
:205CC0006D617463680053657269616C204572726F723A204C696E654E72206973206E6F92
:205CE0007420746865206C617374206C696E654E722B31006875683F204700543A0020423C
:205D00003A0044454255473A4C696E654E722073657400433A205800205900205A002045A7
:205D2000004875683F204D004563686F3A006F6B20006F6B007374617274002E0001006048
:205D400003360002016B00D300A000B900D500A8000A019A003F018F0074018500A9017D5E
:205D600000DE01740013026D00480265007D025E00B2025700E7024F001C03460051033D89
:205D80000086033200BB032200F00302003F06FFFF01000000004128FFFFFFFFFFFFFFFFCE
:205DA000FFFFFFFFFFFFFFFFFFFFFFFFFFFFFFFFFFFFFFFFFFFFFFFFFFFFFFFFFFFFFFFF03
:205DC000FFFFFFFFFFFFFFFFFFFFFFFFFFFFFFFFFFFFFFFFFFFFFFFFFFFFFFFFFFFFFFFFE3
:205DE000FFFFFFFFFFFFFFFFFFFFFFFFFFFFFFFFFFFFFFFFFFFFFFFFFFFFFFFFFFFFFFFFC3
:205E0000FFFFFFFFFFFFFFFFFFFFFFFFFFFFFFFFFFFFFFFFFFFFFFFFFFFFFFFFFFFFFFFFA2
:20F800000C943E7C0C945B7C0C945B7C0C945B7C0C945B7C0C945B7C0C945B7C0C945B7C4D
:20F820000C945B7C0C945B7C0C945B7C0C945B7C0C945B7C0C945B7C0C945B7C0C945B7C10
:20F840000C945B7C0C945B7C0C945B7C0C945B7C0C945B7C0C945B7C0C945B7C0C945B7CF0
:20F860000C945B7C0C945B7C0C945B7C0C945B7C0C945B7C0C945B7C0C945B7C11241FBE35
:20F88000CFEFD0E1DEBFCDBF11E0A0E0B1E0E6E6FFEF02C005900D92A030B107D9F712E0D4
:20F8A000A0E0B1E001C01D92A930B107E1F70E94537D0C94B27F0C94007CCF93DF93CDB7A7
:20F8C000DEB724970FB6F894DEBF0FBECDBF882309F481E020E0482F55274115510509F4EC
:20F8E0003DC0289A19821A821B821C820BC089819A81AB81BC810196A11DB11D89839A8332
:20F90000AB83BC8389819A81AB81BC8180589E43A040B04060F3289819821A821B821C82DE
:20F920000BC089819A81AB81BC810196A11DB11D89839A83AB83BC8389819A81AB81BC8127
:20F9400080509A4FA040B04060F32F5F822F992787FD9095841795070CF4C3CF19821A8223
:20F960001B821C8289819A81AB81BC8180509147A240B040A0F489819A81AB81BC8101968B
:20F98000A11DB11D89839A83AB83BC8389819A81AB81BC8180509147A240B04060F3249630
:20F9A0000FB6F894DEBF0FBECDBFDF91CF910895EF92FF920F931F93EE24FF2487012898B0
:20F9C0008091C00087FD17C00894E11CF11C011D111D81E0E81689E0F8068DE3080780E064
:20F9E000180770F3E0910001F091010109958091C00087FFE9CF289A8091C600992787FD06
:20FA000090951F910F91FF90EF900895982F8091C00085FFFCCF9093C60008950E94D87C63
:20FA2000803271F0809102018F5F80930201853009F00895E0910001F09101010995089520
:20FA400084E10E94067D80E10E94067D0895CF93C82F0E94D87C803241F0809102018F5FC5
:20FA600080930201853081F40AC084E10E94067D8C2F0E94067D80E10E94067D05C0E09156
:20FA80000001F09101010995CF910895282F90E007C08091C0008823E4F78091C6009F5F8D
:20FAA0009217B8F30895CFEFD0E1DEBFCDBF000094B714BE80916000886180936000109231
:20FAC000600091FF74C189E18093C4001092C50088E18093C10086E08093C2005098589A07
:20FAE000209A83E00E945D7C81E00E945D7C0E94D87C8033B9F18133C1F1803409F456C012
:20FB0000813409F45CC0823409F46EC0853409F471C0803539F1813509F4F3C0823511F151
:20FB2000853509F4D3C0863509F4CBC0843609F465C0843709F4EBC0853709F4D2C08637F1
:20FB400009F44AC0809102018F5F80930201853071F6E0910001F091010109950E94D87CE1
:20FB6000803349F60E940E7DC2CF0E94D87CC82F803241F784E10E94067D81E40E94067DEA
:20FB800086E50E94067D82E50E94067D8C2F0E94067D89E40E94067D83E50E94067D80E5E5
:20FBA0000E94067D80E10E94067DA1CF0E94D87C8638C0F20E94D87C0E940E7D98CF0E9498
:20FBC000D87C803809F407C1813809F400C1823809F4F9C0883921F080E00E94277D87CF9F
:20FBE00083E00E94277D83CF84E10E94467D0E940E7D7DCF85E00E94467DF9CF0E94D87C3F
:20FC0000809306020E94D87C80930502809108028E7F809308020E94D87C853409F44BC0BD
:20FC2000E5E0F1E0119281E0E438F807D9F3D0F3C0E0D0E0809105029091060218161906A2
:20FC400078F405E011E00E94D87CF80181938F0121968091050290910602C817D90798F38D
:20FC60000E94D87C803209F06DCF8091080280FFB6C0C0E0D0E0209105023091060212169E
:20FC80001306B8F4E0910301F0910401A5E0B1E0F999FECFF2BDE1BD8D9180BDFA9AF99A60
:20FCA00031962196C217D30798F3F0930401E093030184E175CF80910802816080930802C7
:20FCC000AFCF84E00E94467D80E087CF0E94D87C809303010E94D87C809304010E940E7DDF
:20FCE00006CF0E94D87C803209F02CCF84E10E94067D8EE10E94067D86E90E94067D8AE077
:20FD00004FCF0E940E7D88E080936000FFCF0E94D87C809306020E94D87C809305020E942C
:20FD2000D87C853409F449C0809108028E7F809308028091030190910401880F991F9093BE
:20FD40000401809303010E94D87C803209F0CFCE84E10E94067DC0E0D0E0209105023091F6
:20FD600006021216130608F01DCFE0910301F09104018091080280FF96C0F999FECFF2BD5D
:20FD8000E1BDF89A80B50E94067DE0910301F09104013196F0930401E09303012091050260
:20FDA000309106022196C217D30718F3FBCEE0910001F0910101099586CE80910802816059
:20FDC00080930802C0CF80E10E94277D90CE81E00E94277D8CCE82E00E94277D88CE809162
:20FDE000030190910401880F991F90930401809303018091050280FF09C0809105029091B2
:20FE0000060201969093060280930502F999FECF1127E0910301F0910401C5E0D1E0809105
:20FE2000050290910602103091F40091570001700130D9F303E000935700E8950091570045
:20FE400001700130D9F301E100935700E895099019900091570001700130D9F301E00093DF
:20FE60005700E8951395103898F011270091570001700130D9F305E000935700E8950091CB
:20FE8000570001700130D9F301E100935700E8953296029709F0C7CF103011F00296E5CFD7
:20FEA000112484E17DCE869580FF06C03196F0930401E093030176CF84910E94067D209107
:20FEC000050230910602E0910301F0910401EECF1F93CF930E94D87CC82F0E94067D0E94D2
:20FEE000D87C182F0E94067DC1362CF0C75511363CF0175508C0C033D4F3C0531136CCF795
:20FF000010330CF01053C295C07FC10F8C2F992787FD9095CF911F910895CF93282F99278F
:20FF200087FD9095807F9070959587959595879595958795959587958A303CF0895AC22F47
:20FF4000CF70CA303CF0C95A06C0805DC22FCF70CA30CCF7C05D0E94067D8C2F0E94067D67
:06FF6000CF910895FFCFD0
:00000001FF
