:100000000C946E090C9496090C9496090C9496091C
:100010000C9496090C9496090C9496090C949609E4
:100020000C9496090C9496090C9496090C949609D4
:100030000C9496090C949C3A0C9496090C9496098D
:100040000C9496090C9461420C9413590C949609E3
:100050000C947C530C9496090C9496090C94960974
:100060000C9496090C9496090C949C560C94960941
:100070000C9496090C9496090C949609084AD73B5F
:100080003BCE016E84BCBFFDC12F3D6C74319ABD67
:1000900056833DDA3D00C77F11BED9E4BB4C3E918B
:1000A0006BAAAABE000000803F05A84CCDB2D44E7A
:1000B000B93836A9020C50B9918688083CA6AAAA7C
:1000C0002ABE000000803F6563686F3A0045727287
:1000D0006F723A005072696E7465722073746F703B
:1000E0007065642064756520746F206572726F722C
:1000F000732E2046697820746865206572726F726D
:1001000020616E6420757365204D39393920746F14
:1001100020726573746172742E202854656D706549
:100120007261747572652069732072657365742ECF
:10013000205365742069742061667465722072654D
:100140007374617274696E6729005072696E7465A8
:10015000722068616C7465642E206B696C6C282950
:100160002063616C6C656421006F6B005265736580
:100170006E643A20002200556E6B6E6F776E2063BE
:100180006F6D6D616E643A2022007A5F6D696E3A20
:100190002000795F6D696E3A2000785F6D696E3A74
:1001A00020005A3A00593A0020436F756E74205867
:1001B0003A2000453A005A3A00593A00583A004667
:1001C00049524D574152455F4E414D453A4D61723E
:1001D0006C696E2056313B20537072696E74657283
:1001E0002F6772626C206D617368757020666F7224
:1001F0002067656E36204649524D574152455F553E
:10020000524C3A687474703A2F2F7777772E6D6559
:100210006E64656C2D70617274732E636F6D205007
:10022000524F544F434F4C5F56455253494F4E3AED
:10023000312E30204D414348494E455F5459504579
:100240003A4D656E64656C2045585452554445528C
:100250005F434F554E543A3120555549443A30305A
:100260003030303030302D303030302D3030303094
:100270002D303030302D3030303030303030303084
:1002800030300A0020573A0020453A00543A002006
:1002900042403A0020403A00202F003A002054000B
:1002A000202F006F6B20543A002569206D696E2C59
:1002B0002025692073656300FFFFFF00002F4300C6
:1002C000001643000096420000A0400000A040003D
:1002D00000803F000000000000000000000000005F
:1002E000000000000000000000000000002F43009C
:1002F000001643000096425072696E746572207356
:10030000746F707065642064756520746F20657209
:10031000726F72732E20466978207468652065724A
:10032000726F7220616E6420757365204D393939A2
:1003300020746F20726573746172742E2028546566
:100340006D70657261747572652069732072657372
:1003500065742E205365742069742061667465721B
:100360002072657374617274696E6729006F6B0027
:100370004E6F204C696E65204E756D6265722077F8
:1003800069746820636865636B73756D2C204C61BC
:100390007374204C696E653A20004E6F2043686587
:1003A000636B73756D2077697468206C696E652066
:1003B0006E756D6265722C204C617374204C696E91
:1003C000653A2000636865636B73756D206D6973B2
:1003D0006D617463682C204C617374204C696E6588
:1003E0003A20004C696E65204E756D626572206919
:1003F00073206E6F74204C617374204C696E65209D
:100400004E756D6265722B312C204C617374204CDB
:10041000696E653A20004D313130002020506C610A
:100420006E6E657242756666657242797465733A7E
:1004300020002046726565204D656D6F72793A2007
:10044000004A616E203134203230313400436F6D08
:1004500070696C65643A2000286E6F6E652C2064AC
:10046000656661756C7420636F6E6669672900202C
:100470007C20417574686F723A20004A616E2031A9
:100480003420323031342032333A32303A3337008C
:10049000204C61737420557064617465643A200067
:1004A000312E302E30004D61726C696E2000205369
:1004B0006F667477617265205265736574002057AA
:1004C00061746368646F67205265736574002042CD
:1004D000726F776E206F757420526573657400209B
:1004E00045787465726E616C205265736574005056
:1004F0006F776572557000737461727400220065C5
:100500006E717565696E672022002200656E7175D7
:1005100065696E672022006563686F3A0020746F1A
:100520006F206C6F6E6720657874727573696F6E7B
:100530002070726576656E7465640020636F6C640C
:1005400020657874727573696F6E20707265766558
:100550006E7465640045313A200045303A20005AF7
:100560003A2000593A2000583A20004D53312C4D82
:1005700053322050696E730A0024F404D9201BC43E
:100580000C5C0E9804C4095F0265077101F405F95B
:1005900000FB04B30048048700C1036900580355F9
:1005A0000003034500BE023A008402310053022AD0
:1005B000002902250004022000E4011C00C80119E2
:1005C00000AF01170098011400840113007101109D
:1005D000006101100051010E0043010D0036010BB6
:1005E000002B010B0020010B00150109000C010973
:1005F0000003010800FB000800F3000800EB0007FF
:1006000000E4000600DE000600D8000600D2000666
:1006100000CC000500C7000500C2000500BD0004B5
:1006200000B9000400B5000400B1000400AD0004EE
:1006300000A9000400A5000300A20003009F00041D
:10064000009B000300980003009500020093000344
:1006500000900003008D0002008B00030088000260
:10066000008600020084000300810002007F000277
:10067000007D0002007B000200790002007700018B
:100680000076000200740002007200010071000296
:10069000006F0002006D0001006C0002006A0001A2
:1006A00000690002006700010066000100650001AA
:1006B00000640002006200010061000100600001AE
:1006C000005F0002005D0001005C0001005B0001B2
:1006D000005A0001005900010058000100570001B4
:1006E00000560001005500010054000100530000B5
:1006F00000530001005200010051000100500001B0
:10070000004F0001004E0000004E0001004D0001AE
:10071000004C0001004B0000004B0001004A0001AA
:1007200000490001004800000048000100470001A6
:1007300000460000004600010045000000450001A1
:10074000004400010043000000430001004200009B
:100750000042000100410000004100010040000192
:10076000003F0000003F0001003E0000003E00018D
:10077000003D0000003D0001003C0000003C000086
:10078000003C0001003B0000003B0001003A00007B
:10079000003A000100390000003900010038000073
:1007A0000038000000380001003700000037000169
:1007B0000036000000360000003600010035000061
:1007C0000035000000350001003400000034000056
:1007D000003400010033000000330000003300014A
:1007E0000032000000320000003200010031000041
:1007F0000031000000310001003000000030000036
:1008000000300001002F0000002F0000002F00002A
:10081000002F0001002E0000002E0000002E00011D
:10082000002D0000002D0000002D0000002D000113
:10083000002C0000002C0000002C0000002C000107
:10084000002B0000002B0000002B0000002B0001FB
:10085000002A0000002A0000002A0000002A0001EF
:1008600000290000002900000029000000290000E4
:1008700000290001002800000028000000280000D6
:1008800000280000002800010027000000270000C9
:1008900000270000002700000027000100260000BC
:1008A00000260000002600000026000000260001AF
:1008B00000250000002500000025000000250000A4
:1008C0000025000000250001002400000024000095
:1008D0000024000000240000002400010023000088
:1008E000002300000023000000230000002300007C
:1008F000002300000023000100220000002200006D
:10090000002200000022000000220000002200015E
:100910000021000000210000002100000021000053
:100920000021000000210000002100010020000043
:100930000020000000200000002000000020000037
:10094000002000000020000000200001001F000027
:10095000001F0000001F0000001F0000001F00001B
:10096000001F0000001F0001001E0000001E00000C
:10097000001E0000001E00000024F4D43050C38E7E
:1009800020C2A24017828B7011127A910D816CD90E
:100990000AA861E108C7586607615143061E4B5D0E
:1009A00005C145A7041A411104093D980371393165
:1009B000034036DB0265339102D4305402802E1D91
:1009C00002632CEE01752AC501B028A00110278111
:1009D000018F2564012B244B01E0223401AC211F3F
:1009E000018D200D01801FFC00841EED00971DDF8E
:1009F00000B81CD200E61BC600201BBC00641AB263
:100A000000B219A8000A19A0006A189900D117911C
:100A10000040178B00B516840031167E00B315799F
:100A2000003A157300C7146F0058146A00EE13667D
:100A3000008813630025135E00C7125B006C125719
:100A40000015125400C111510070114F0021114BBB
:100A500000D61049008D1047004610440002104295
:100A600000C00F4000800F3E00420F3C00060F3BCD
:100A700000CB0E3800930E37005C0E3500270E3485
:100A800000F30D3200C10D3100900D3000600D2ECD
:100A900000320D2D00050D2C00D90C2B00AE0C29B9
:100AA00000850C29005C0C2700350C27000E0C2655
:100AB00000E80B2400C40B2400A00B23007D0B23B3
:100AC000005A0B2100390B2100180B2000F80A1FD7
:100AD00000D90A1E00BB0A1E009D0A1D00800A1DC7
:100AE00000630A1C00470A1B002C0A1B00110A1A8B
:100AF00000F7091A00DD091900C4091900AB09192A
:100B000000920917007B091800630917004C0916A9
:100B10000036091600200916000A091500F5081507
:100B200000E0081400CC081400B8081400A408144D
:100B300000900813007D0812006B0813005808127B
:100B40000046081200340811002308110012081191
:100B50000001081100F0071000E0071000D0071096
:100B600000C0071000B0070F00A107100091070E8A
:100B70000083070F0074070F0065070E0057070E6C
:100B80000049070E003B070D002E070E0020070D41
:100B90000013070D0006070D00F9060C00ED060D09
:100BA00000E0060C00D4060C00C8060C00BC060CC5
:100BB00000B0060C00A4060B0099060C008D060B75
:100BC0000082060B0077060B006C060B0061060A1C
:100BD0000057060B004C060A0042060A0038060AB7
:100BE000002E060A0024060A001A060A001006094A
:100BF0000007060A00FD050900F4050900EB0509D8
:100C000000E2050900D9050900D0050900C705095A
:100C100000BE050900B5050800AD050800A50509D9
:100C2000009C050800940508008C05080084050850
:100C3000007C050800740508006C050700650508C0
:100C4000005D050700560508004E0507004705072B
:100C5000004005080038050700310507002A050790
:100C600000230507001C050600160507000F0507F1
:100C7000000805060002050700FB040600F504074E
:100C800000EE040600E8040600E2040700DB0406A8
:100C900000D5040600CF040600C9040600C30406FC
:100CA00000BD040600B7040600B1040500AC04064C
:100CB00000A6040600A00405009B04060095040598
:100CC00000900406008A04050085040500800406DF
:100CD000007A04050075040500700405006B040526
:100CE0000066040500610405005C04050057040566
:100CF00000520405004D04050048040500430405A6
:100D0000003E0404003A04050035040500300404E4
:100D1000002C04050027040400230405001E04041D
:100D2000001A04040016040500110404000D040454
:100D300000090405000404040000040400FC03048A
:100D400000F8030400F4030400F0030400EC0304BF
:100D500000E8030400E4030400E0030400DC0304EF
:100D600000D8030400D4030400D0030400CC03041F
:100D700000C8030300C50303006563686F3A0020E1
:100D80005A3A0020593A0020583A00656E6473744C
:100D90006F7073206869743A20004572726F723AFE
:100DA0000054656D70657261747572652068656167
:100DB0007465642062656420737769746368656430
:100DC000206F66662E204D415854454D5020747258
:100DD00069676765726564202121003A204578744F
:100DE0007275646572207377697463686564206FD7
:100DF00066662E204D494E54454D502074726967E9
:100E000067657265642021003A20457874727564C4
:100E10006572207377697463686564206F66662EF7
:100E2000204D415854454D50207472696767657272
:100E30006564202100202D20496E76616C69642054
:100E40006578747275646572206E756D6265722066
:100E50002100504944204175746F74756E65206699
:100E6000696E6973686564212050757420746865C3
:100E7000204B702C204B6920616E64204B642063F2
:100E80006F6E7374616E747320696E746F20436F3C
:100E90006E66696775726174696F6E2E680050497D
:100EA00044204175746F74756E65206661696C6568
:100EB00064212074696D656F75740020403A006F7D
:100EC0006B20543A006F6B20423A00504944204155
:100ED00075746F74756E65206661696C6564212038
:100EE00054656D706572617475726520746F6F20E2
:100EF0006869676800204B643A2000204B693A20FB
:100F000000204B703A200020436C617369632050CD
:100F1000494420002054753A2000204B753A2000A7
:100F2000206D61783A2000206D696E3A20002064BF
:100F30003A200020626961733A200070012C019010
:100F4000012701B0012201C0011D01F001180110AB
:100F500002130130020E016002090190020401C077
:100F600002FF000003FA004003F5008003F000D008
:100F700003EB002004E6007004E100E004DC004024
:100F800005D700C005D2004006CD00D006C80080BD
:100F900007C3003008BE00F008B900C009B400B0B3
:100FA0000AAF00B00BAA00D00CA500000EA00050A4
:100FB0000F9B00C01096005012910000148C00C0CE
:100FC000158700B0178200B0197D00D01B78000093
:100FD0001E730040206E0090226900F024640040DF
:100FE000275F0090295A00E02B5500102E5000205A
:100FF000304B0010324600E033410090353C001089
:1010000037370070383200A0392D00B03A2800A0E0
:101010003B2300603C1E00103D1900903D14001061
:101020003E0F00703E0A00C03E0500003F00006514
:1010300063686F3A0048617264636F64656420445A
:10104000656661756C742053657474696E6773208E
:101050004C6F61646564002044002049002020201A
:101060004D33303120500050494420736574746909
:101070006E67733A00205A0020590020204D32300C
:1010800036205800486F6D65206F66667365742062
:10109000286D6D293A00204500205A002058002074
:1010A000420020540020204D32303520530041644E
:1010B00076616E636564207661726961626C6573E6
:1010C0003A20533D4D696E206665656472617465B2
:1010D00020286D6D2F73292C20543D4D696E20748E
:1010E000726176656C20666565647261746520283E
:1010F0006D6D2F73292C20423D6D696E696D756D84
:10110000207365676D656E742074696D6520286D48
:1011100073292C20583D6D6178696D756D20585983
:10112000206A65726B20286D6D2F73292C20205A40
:101130003D6D6178696D756D205A206A65726B200E
:10114000286D6D2F73292C2020453D6D6178696DC8
:10115000756D2045206A65726B20286D6D2F73298F
:101160000020540020204D3230342053004163636E
:10117000656C65726174696F6E3A20533D6163639B
:10118000656C65726174696F6E2C20543D72657474
:101190007261637420616363656C65726174696F09
:1011A0006E00204500205A0020590020204D32308A
:1011B000312058004D6178696D756D20416363651C
:1011C0006C65726174696F6E20286D6D2F733229A2
:1011D0003A00204500205A0020590020204D32308E
:1011E000332058004D6178696D756D2066656564C2
:1011F000726174657320286D6D2F73293A00204544
:1012000000205A0020590020204D39322058005328
:10121000746570732070657220756E69743A000091
:10122000002100240027002A0000002200250028B9
:10123000002B0000002000230026002900020202EB
:10124000020202020204040404040404040303036B
:101250000303030303010101010101010101020470
:101260000810204080010204081020408001020480
:101270000810204080804020100804020100000077
:101280000102000000000000000403070600000047
:1012900000000000000000000000000000494E4671
:1012A000494E4954594E414ECDCCCC3D0AD7233CF2
:1012B00017B7D13877CC2B329595E6241FB14F0A5A
:1012C000000020410000C84200401C4620BCBE4C2B
:1012D000CA1B0E5AAEC59D740C54095611241FBE6C
:1012E000CFEFD0E1DEBFCDBF12E0A0E0B1E0EAE891
:1012F000FFEB02C005900D92A83EB107D9F71CE0A4
:10130000A8EEB2E001C01D92A433B107E1F712E1EB
:10131000CCEDD2E104C02297FE010E947D5FC83D62
:10132000D107C9F70E945D5A0C94C35F0C9400006A
:10133000A0E0B0E0EEE9F9E00C94925FEC015B0113
:101340006115710519F0FB0191838083F9908F2D50
:1013500090E00E94815F892BC9F7FDE2FF1621F41E
:10136000F990EE24E39405C02BE2F21609F4F9900B
:10137000EE248E0101501040C8016DE972E143E096
:1013800050E00E94270C892B01F58E010E5F1F4F44
:10139000C80160EA72E145E050E00E94270C892B09
:1013A00019F48E01095F1F4FA114B10419F0F50162
:1013B00011830083E0FC04C070E090E080E814C07A
:1013C00070E090E080E86FEF08C1C80165EA72E163
:1013D00043E050E00E94270C892B69F4A114B1046A
:1013E00029F470E090E080EC6FE7F7C02296F501F9
:1013F000D183C083F6CF8824992440E050E060E098
:1014000070E0EF2DE053EA30A0F5F2E0EF2A8E2DE8
:1014100090E09C0128703070E2FE06C0232B79F525
:101420000894811C911C2BC0232B19F0089481086F
:101430009108DB01CA0112E0880F991FAA1FBB1F88
:101440001A95D1F7480F591F6A1F7B1F440F551F6C
:10145000661F771F4E0F511D611D711D483929E907
:10146000520729E9620729E1720748F084E0E82A77
:1014700006C0EE3F31F4E3FC39C098E0E92AF99068
:10148000C0CFE53311F0E53189F529912D3219F4FA
:10149000E0E1EE2A05C02B3219F081E090E003C0B4
:1014A000299182E090E0E22FE053EA3018F0C81B67
:1014B000D90B1CC020E030E0FCE020383F075CF492
:1014C000C901880F991F880F991F280F391F220FF4
:1014D000331F2E0F311DE991E053EA3068F3E4FE2B
:1014E00003C0309521953F4F820E931ECE2CDD24F4
:1014F000E1FE07C0A114B10421F02197F501D183C9
:10150000C083CB01BA010E94E65B7B018C01F3E052
:10151000CF22DD2423E0C216D10421F417FB10955D
:1015200017F9109557016801C801B70120E030E0B4
:1015300040E050E00E94465B882309F44AC097FED1
:101540000DC02CEBE22E22E1F22E909481949108B2
:101550009394C0E2D0E000E010E012C094EDE92ED8
:1015600092E1F92EF6CFF7012591359145915491ED
:10157000C601B5010E94265E5B016C018C1A9D0AB2
:101580008C169D0684F7D595C7950F5F1F4F0630C3
:10159000110529F08CEF9FEFE80EF91EF1CFC50180
:1015A000D6017C018D018C2D880F8D2D881F8F3FDA
:1015B00051F0C601B50120E030E040E050E00E946B
:1015C000465B882331F482E290E09093330C809361
:1015D000320C7E2D9F2D802F612F272F392F482FE2
:1015E000562FB901CA01CDB7DEB7ECE00C94AE5F5F
:1015F0002F923F925F926F927F928F929F92AF92C3
:10160000BF92CF92DF92EF92FF920F931F93CF93EF
:10161000DF938C011B01EA016115710519F0FB01D3
:1016200091838083209749F0CE010297839728F019
:1016300020E030E040E050E0F6C0F801A1908F01DA
:101640008A2D90E00E94815F892BB9F7FDE2AF16E9
:1016500031F4F801A1908F015524539407C0FBE2A7
:10166000AF1619F4F801A1908F015524209719F0B5
:10167000C031D105C1F4F0E3AF1679F4F8018081EF
:10168000883711F0883549F4F801A1800E5F1F4FAB
:10169000F2E05F2AC0E1D0E006C0209721F480E3A9
:1016A000A816E9F427C0C830D10531F1C930D105F9
:1016B00024F4C230D10531F50CC0CA30D10589F00F
:1016C000C031D105F9F4C12CD12CE12CB8E0FB2EAE
:1016D00028C0C12CD12CE12CA0E4FA2E22C0CAE0F3
:1016E000D0E0FCECCF2EFCECDF2EFCECEF2EFCE08F
:1016F000FF2E17C0C8E0D0E0C12CD12CE12CE0E1D6
:10170000FE2E0FC09E01442737FD4095542F60E008
:1017100070E080E090E80E943E5FC901DA016C0150
:101720007D0120E030E040E050E060E03E018824B0
:1017300077FC8094982C70EDB72EBA0CE9E0EB158D
:1017400070F48A2D81548A3118F499ECB92E06C0B0
:101750008A2D81568A3150F589EAB82EBA0C8B2D24
:1017600090E08C179D0714F56F3FE1F0C216D30689
:10177000E406F506B0F0CA01B901A40193010E9484
:10178000F85E9B01AC012B0D311D411D511D213017
:10179000F0E03F07F0E04F07F0E85F0710F461E08A
:1017A00001C06FEFF801A1908F01C5CF2114310462
:1017B00081F0662331F001501040F1011183008364
:1017C00008C051FE1AC002501040F101118300837D
:1017D00014C067FF12C050FC05C02FEF3FEF4FEF62
:1017E0005FE704C020E030E040E050E882E290E0B3
:1017F0009093330C8093320C16C050FE08C0509565
:101800004095309521953F4F4F4F5F4F0CC057FF8C
:101810000AC082E290E09093330C8093320C2FEF59
:101820003FEF4FEF5FE7B901CA01DF91CF911F9101
:101830000F91FF90EF90DF90CF90BF90AF909F906F
:101840008F907F906F905F903F902F900895FB0155
:10185000DC014150504088F08D9181341CF08B3573
:101860000CF4805E659161341CF06B350CF4605EA5
:10187000861B611171F3990B0895881BFCCFFB0146
:1018800055915523A9F0BF01DC014D914517411138
:10189000E1F759F4CD010590002049F04D91401534
:1018A0004111C9F3FB014111EFCF81E090E00197B5
:1018B0000895FC018191861721F08823D9F7992793
:1018C00008953197CF010895AEE0B0E0EAE6FCE07C
:1018D0000C949A5F0D891E898EE08C831A8309838C
:1018E0008FEF9FE79E838D839E01275E3F4FCE0142
:1018F00001966F89788DA9010E94880C2F81388507
:10190000020F131FF80110822E96E4E00C94B65FCC
:10191000ABE0B0E0EEE8FCE00C948C5F3C012B0106
:101920005A01FC0117821682838181FD03C06FEF8B
:101930007FEFC6C19AE0892E1E010894211C311C3C
:10194000F3012381F20123FD859123FF81912F0172
:10195000882309F4B2C1853239F423FD859123FF30
:1019600081912F01853229F490E0B3010E947B0E12
:10197000E7CF982FFF24EE249924FFE1FF15D0F044
:101980009B3269F09C3228F4903259F0933291F4F2
:101990000EC09D3249F0903369F441E024C052E01A
:1019A000F52A84E0F82A28C098E0F92A25C0E0E169
:1019B000FE2A22C0F7FC29C0892F80538A3070F498
:1019C000F6FE05C0989C902C1124980E15C0E89C3A
:1019D000E02C1124E80EF0E2FF2A0EC09E3229F41A
:1019E000F6FC6BC140E4F42A07C09C3619F450E8B9
:1019F000F52A02C0983649F4F20123FD959123FFA0
:101A000091912F01992309F0B8CF892F8554833004
:101A100018F08052833038F444E050E0A40EB51E34
:101A20005FE359830FC0933631F0933779F09335E4
:101A300009F056C020C0F5018081898342E050E062
:101A4000A40EB51E610101E010E012C0F501C080D6
:101A5000D180F6FC03C06FEF7FEF02C0692D70E00C
:101A600042E050E0A40EB51EC6010E94700E8C012B
:101A70005FE7F52214C0F501C080D180F6FC03C0F9
:101A80006FEF7FEF02C0692D70E042E050E0A40EDE
:101A9000B51EC6010E94650E8C0150E8F52AF3FEC2
:101AA00007C01AC080E290E0B3010E947B0EEA9466
:101AB0008E2D90E008171907A8F30EC0F601F7FC69
:101AC0008591F7FE81916F0190E0B3010E947B0E3A
:101AD000E110EA94015010400115110579F7EAC0B0
:101AE000943611F0993669F5F7FE08C0F5012081AA
:101AF00031814281538184E090E00AC0F501808108
:101B000091819C01442737FD4095542F82E090E05D
:101B1000A80EB91E9FE6F92257FF09C050954095BF
:101B2000309521953F4F4F4F5F4FE0E8FE2ACA01A5
:101B3000B901A1012AE030E00E94A70ED82ED218E8
:101B400040C0953729F41F2D1F7E2AE030E01DC0CC
:101B50001F2D197F9F3661F0903720F4983509F0DA
:101B6000ACC00FC0903739F0983709F0A6C004C058
:101B700028E030E00AC0106114FD146020E130E07C
:101B800004C014FD166020E132E017FF08C0F50123
:101B9000608171818281938144E050E008C0F50149
:101BA00080819181BC0180E090E042E050E0A40E91
:101BB000B51EA1010E94A70ED82ED2188FE7F82ECD
:101BC000F122F6FE0BC05EEFF522D91438F4F4FED4
:101BD00007C0F2FC05C08FEEF82202C01D2D01C027
:101BE000192DF4FE0DC0FE01ED0DF11D8081803335
:101BF00019F499EEF92208C01F5FF2FE05C003C078
:101C00008F2D867809F01F5F0F2DF3FC14C0F0FEB6
:101C10000FC01E1510F09D2C0BC09D2C9E0C911A10
:101C20001E2D06C080E290E0B3010E947B0E1F5F74
:101C30001E15C0F304C01E1510F4E11A01C0EE24F5
:101C400004FF0FC080E390E0B3010E947B0E02FF0F
:101C50001DC001FD03C088E790E00EC088E590E05C
:101C60000BC0802F867891F001FF02C08BE201C08B
:101C700080E2F7FC8DE290E0B3010E947B0E06C08B
:101C800080E390E0B3010E947B0E9A94D914C0F3D4
:101C9000DA94F101ED0DF11D808190E0B3010E9415
:101CA0007B0EDD20A9F706C080E290E0B3010E9420
:101CB0007B0EEA94EE20C1F743CEF3016681778173
:101CC000CB012B96E2E10C94A85FFC0105906150DA
:101CD00070400110D8F7809590958E0F9F1F089542
:101CE000FC016150704001900110D8F780959095EB
:101CF0008E0F9F1F08950F931F93CF93DF938C0137
:101D0000EB018B8181FF1BC082FF0DC02E813F81C3
:101D10008C819D812817390764F4E881F98101934A
:101D2000F983E88306C0E885F985802F0995892B1A
:101D300031F48E819F8101969F838E8302C00FEFC5
:101D40001FEFC801DF91CF911F910F910895FA0104
:101D5000AA27283051F1203181F1E8946F936E7FEA
:101D60006E5F7F4F8F4F9F4FAF4FB1E03ED0B4E0DB
:101D70003CD0670F781F891F9A1FA11D680F791F1C
:101D80008A1F911DA11D6A0F711D811D911DA11D2D
:101D900020D009F468943F912AE0269F112430193D
:101DA000305D3193DEF6CF010895462F4770405DD8
:101DB0004193B3E00FD0C9F7F6CF462F4F70405D87
:101DC0004A3318F0495D31FD4052419302D0A9F7E2
:101DD000EACFB4E0A6959795879577956795BA95DC
:101DE000C9F700976105710508959B01AC010A2EA2
:101DF00006945795479537952795BA95C9F7620F79
:101E0000731F841F951FA01D0895EF92FF920F93DB
:101E10001F93CF93DF93EC01E0900A03F0900B0344
:101E200000910C0310910D03688179818A819B8157
:101E3000A80197010E94465B882324F4E882F98276
:101E40000A831B83E0900E03F0900F0300911003B0
:101E5000109111036C817D818E819F81A801970172
:101E60000E94465B882324F4EC82FD820E831F834C
:101E7000E0901203F09013030091140310911503E6
:101E8000688579858A859B85A80197010E94465BB4
:101E9000882324F4E886F9860A871B87E0902802C5
:101EA000F090290200912A0210912B026881798119
:101EB0008A819B81A80197010E94545D181624F421
:101EC000E882F9820A831B83E0902C02F0902D02B5
:101ED00000912E0210912F026C817D818E819F8155
:101EE000A80197010E94545D181624F4EC82FD822B
:101EF0000E831F83E0903002F09031020091320295
:101F000010913302688579858A859B85A8019701A0
:101F10000E94545D181624F4E886F9860A871B8708
:101F2000DF91CF911F910F91FF90EF9008958091D5
:101F3000240308950E94AB4180912403882309F073
:101F400036C081E080932403809127039091280379
:101F5000A0912903B0912A0380932B0390932C0323
:101F6000A0932D03B0932E03EDECF0E0949108C004
:101F70008091C00085FFFCCF9093C600319694916C
:101F80009923B1F7E4EDF0E0949108C08091C0008E
:101F900085FFFCCF9093C600319694919923B1F7B9
:101FA0008091C00085FFFCCF8AE08093C600089531
:101FB000F8940E94AB41439A10921603179A10921C
:101FC0001703129A109218032B9AEDECF0E09491FB
:101FD00008C08091C00085FFFCCF9093C600319669
:101FE00094919923B1F7EAE4F1E0949108C08091CB
:101FF000C00085FFFCCF9093C60031969491992341
:10200000B1F78091C00085FFFCCF8AE08093C600C5
:10201000FFCF0E945B5960932F037093300380932E
:10202000310390933203E9E6F1E0949108C0809186
:10203000C00085FFFCCF9093C60031969491992300
:10204000B1F78091C00085FFFCCF8AE08093C60085
:102050000895EF92FF920F931F930E945B59E090B7
:102060003303F0903403009135031091360320912F
:102070002F03309130034091310350913203621BA2
:10208000730B840B950BE616F7060807190738F44F
:10209000E114F1040105110511F00E94D80F80919F
:1020A000350290913602A0913702B0913802009724
:1020B000A105B10559F10E945B5920912F03309180
:1020C00030034091310350913203621B730B840B38
:1020D000950B209135023091360240913702509194
:1020E0003802261737074807590780F49091310ABC
:1020F0008091320A981751F4439A10921603179A56
:1021000010921703129A109218032B9A0E942C28EF
:102110001F910F91FF90EF9008956F927F928F9291
:102120009F92AF92BF92CF92DF92EF92FF920F9366
:102130001F93F82E60913703709138038091390313
:1021400090913A0320913B0330913C0340913D0331
:1021500050913E030E94615D3B014C0100D000D0D4
:1021600000D00DB71EB70F5F1F4F60912402709112
:102170002502882777FD8095982F0E94E85B2091A3
:10218000390230913A0240913B0250913C020E9448
:10219000265E20E030E040E752E40E944D5B20E004
:1021A00030E048EC52E40E944D5B5B016C01F801A9
:1021B0006082718282829382F48280911903858386
:1021C0008EEE92E063E473E047E353E020E001E049
:1021D00032E0E32E0E943E4B8091430390914403F2
:1021E000A0914503B09146038093EE029093EF02D5
:1021F000A093F002B093F1028091470390914803BD
:10220000A0914903B0914A038093F2029093F302A4
:10221000A093F402B093F50280914B0390914C038C
:10222000A0914D03B0914E038093F6029093F70274
:10223000A093F802B093F90280914F03909150035C
:10224000A0915103B09152038093FA029093FB0244
:10225000A093FC02B093FD028DB79EB706960FB611
:10226000F8949EBF0FBE8DBF0E945B5960932F03F1
:102270007093300380933103909332031F910F9139
:10228000FF90EF90DF90CF90BF90AF909F908F9096
:102290007F906F900895CF92DF92EF92FF920F930D
:1022A0001F9383E493E00E94050F0E945B596093A3
:1022B0002F03709330038093310390933203609126
:1022C000EE027091EF028091F0029091F102209164
:1022D00043033091440340914503509146030E94CB
:1022E000465B882309F07AC06091F2027091F30294
:1022F0008091F4029091F5022091470330914803B8
:102300004091490350914A030E94465B882309F09B
:1023100065C06091390270913A0280913B029091C0
:102320003C0220E030E040E752E40E944D5B7B013C
:102330008C0183E493E067E473E04BE453E02FE423
:1023400033E0E9E1CE2EE3E0DE2E0E947A2D80918B
:10235000430390914403A0914503B09146038093B9
:10236000EE029093EF02A093F002B093F1028091FD
:10237000470390914803A0914903B0914A03809389
:10238000F2029093F302A093F402B093F5028091CD
:102390004B0390914C03A0914D03B0914E03809359
:1023A000F6029093F702A093F802B093F90280919D
:1023B0004F0390915003A0915103B0915203809329
:1023C000FA029093FB02A093FC02B093FD021F91CE
:1023D0000F91FF90EF90DF90CF90089560912402CD
:1023E00070912502882777FD8095982F0E94E85BE1
:1023F0002091390230913A0240913B0250913C02C7
:102400000E94265E20E030E040E752E40E944D5BEF
:1024100020E030E048EC52E488CF85E69BE00E9463
:102420000354ECE6F1E0949108C08091C00085FF70
:10243000FCCF9093C600319694919923B1F74091C7
:102440002703509128036091290370912A034F5F5D
:102450005F4F6F4F7F4F85E69BE02AE030E00E94A0
:10246000C6548091C00085FFFCCF8AE08093C600EF
:102470000E94091008952F923F924F925F926F929F
:102480007F928F929F92AF92BF92CF92DF92EF9204
:10249000FF920F931F93DF93CF93CDB7DEB72897AB
:1024A0000FB6F894DEBF0FBECDBF98878F83833001
:1024B000910508F056C1FC01E854FD4FD4903C0151
:1024C000660C771C660C771C930122513D4F3A83B2
:1024D000298380E090E0A0E0B0E0F901808391835F
:1024E000A283B3838EEE92E062EF72E046EF52E099
:1024F0002AEF32E00E949028F301E554FD4FE59069
:10250000F590059114916D2D772767FD70958827BB
:1025100077FD8095982F0E94E85B1B012C019301A9
:102520002D5B3C4F3C832B83C801B70120E030E09A
:1025300040EC5FE30E94265EA20191010E94265EAC
:10254000AB81BC816D937D938D939C931397F30125
:10255000EC5EFD4FFE83ED8360817181828193810A
:102560006093390270933A0280933B0290933C024D
:1025700020E030E040E752E40E944D5B7B018C019B
:1025800083E493E067E473E04BE453E02FE433E04B
:10259000A9E1CA2EA3E0DA2E0E947A2D0E94833A86
:1025A00080E090E0A0E0B0E0E981FA81808391834F
:1025B000A283B3838EEE92E062EF72E046EF52E0C8
:1025C0002AEF32E00E949028F301E953FD4F8590F5
:1025D0009590A590B490C501B4019058A2019101C5
:1025E0000E94265EAB81BC816D937D938D939C93FD
:1025F00013976091390270913A0280913B02909159
:102600003C0220E030E040E752E40E944D5B7B0159
:102610008C0183E493E067E473E04BE453E02FE440
:1026200033E00E947A2D0E94833AC501B401A501CE
:1026300094010E946D5AA20191010E94265EEB81D5
:10264000FC816083718382839383AD81BE816D91B0
:102650007D918D919C9120E030E040E05FE30E940D
:10266000265E6093390270933A0280933B02909306
:102670003C0220E030E040E752E40E944D5B7B01E9
:102680008C0183E493E067E473E04BE453E02FE4D0
:1026900033E00E947A2D0E94833AF301ED52FD4F00
:1026A0006591759185919491F301E250FD4FA08061
:1026B000B180C280D380A60195010E946D5A7B0132
:1026C0008C01CB01D801E981FA8180839183A283B7
:1026D000B383F301E152FD4F65917591859194911A
:1026E000FAE08F2EF3E09F2E860C971CA601950131
:1026F0000E946D5AD4016D937D938D939C93139793
:10270000F301E551FD4F6591759185919491E8E252
:10271000F2E06E0E7F1EA60195010E946D5AD30154
:102720006D937D938D939C931397C701D801EB8193
:10273000FC8180839183A283B38380E090E0A0E05A
:10274000B0E08093390290933A02A0933B02B09399
:102750003C020E94C439AF81B885AA5EBC4F81E0BB
:102760008C9328960FB6F894DEBF0FBECDBFCF91E5
:10277000DF911F910F91FF90EF90DF90CF90BF906E
:10278000AF909F908F907F906F905F904F903F9011
:102790002F900895FC01949108C08091C00085FF9E
:1027A000FCCF9093C600319694919923B1F785E6BA
:1027B0009BE022E030E00E94D6550895FC01949100
:1027C00008C08091C00085FFFCCF9093C600319671
:1027D00094919923B1F785E69BE02AE030E00E94CE
:1027E000A754089540915E0350915F0320E630E0C6
:1027F000B901469F9001479F300D569F300D11241F
:10280000682F772767FD7095C901805A9C4F0E94F9
:10281000590C9C0190935D0380935C0380E0232B13
:1028200009F081E0089580915C0390915D03019629
:1028300060E070E04AE050E00E94F80A089580915C
:102840005C0390915D03019660E070E00E9498093E
:102850000895CF93DF93EC018091190380932603B1
:1028600084E50E94F213882309F46FC00E941F14AC
:102870000E94BA5B262F60932603662309F465C085
:10288000E7ECF0E0949108C08091C00085FFFCCF98
:102890009093C600319694919923B1F7C936D1052A
:1028A00099F0CA36D10524F4C836D105F1F50FC028
:1028B000CD36D10531F0CA3DD105B9F5E0E0F1E002
:1028C00031C0E7E1F1E023C0EEE2F1E015C0E5E45C
:1028D000F1E007C08091C00085FFFCCF3196909356
:1028E000C60090819923B1F720C08091C00085FF78
:1028F000FCCF31969093C60090819923B1F715C013
:102900008091C00085FFFCCF31969093C6009081E6
:102910009923B1F70AC08091C00085FFFCCF3196A2
:102920009093C60090819923B1F785E69BE0622FD2
:1029300040E050E00E94B4548091C00085FFFCCF7D
:102940008AE08093C60081E001C080E0DF91CF91F2
:102950000895AF92BF92CF92DF92EF92FF920F93C2
:102960001F93CF93DF931EEEE12E12E0F12EC3E40E
:10297000D3E000E010E0F801E759FD4F80810E94AC
:10298000F213882339F10E941F145B016C01F801D6
:10299000E851FD4F8081882311F061E002C0609111
:1029A000530370E0882777FD8095982F0E94E85B9D
:1029B000F70120813181428153810E94265E9B0173
:1029C000AC01C601B5010E946D5A688379838A8380
:1029D0009B8309C0F70180819181A281B3818883A3
:1029E0009983AA83BB830F5F1F4F84E090E0E80EBA
:1029F000F91E24960430110509F0BDCF86E40E942B
:102A0000F2138823E1F00E941F147B018C01609374
:102A1000540370935503809356039093570320E01B
:102A200030E040E050E00E94545D181644F4E0921B
:102A30003902F0923A0200933B0210933C02DF917C
:102A4000CF911F910F91FF90EF90DF90CF90BF90AB
:102A5000AF9008950E94A91489E40E94F21388237C
:102A600059F00E941F1460933703709338038093CA
:102A7000390390933A030CC080E090E0A0E0B0E00E
:102A80008093370390933803A0933903B0933A03AC
:102A90008AE40E94F213882359F00E941F14609365
:102AA0003B0370933C0380933D0390933E03089552
:102AB00080E090E0A0E0B0E080933B0390933C0383
:102AC000A0933D03B0933E0308952F923F924F92FF
:102AD0005F926F927F928F929F92AF92BF92CF92AE
:102AE000DF92EF92FF920F931F93DF93CF93CDB7B7
:102AF000DEB76E970FB6F894DEBF0FBECDBF87E48A
:102B00000E94F213882309F423C20E941F140E941A
:102B1000B55B6430710509F441C06530710554F44A
:102B20006230710541F1633071056CF57723CCF4A7
:102B30000C948F226A35710509F4B5C16B357105A6
:102B400034F46C31710511F00C948F2269C06B352F
:102B5000710509F4ACC16C35710511F00C948F222C
:102B6000ABC180912403882331F40E94A9140E94F0
:102B70004B110C94B02280912403882321F40E94ED
:102B80002A1581E007C080912403882339F40E942C
:102B90002A1580E00E948D100C94B02280E50E94DE
:102BA000F213882321F4CC24DD24760106C00E9490
:102BB0001F140E94BA5B6B017C0183E50E94F21333
:102BC000882361F00E941F1420E030E04AE754E4BB
:102BD0000E94265E0E94BA5B6B017C010E94833AD0
:102BE0000E945B594B015C018C0C9D1CAE1CBF1CF0
:102BF0000E945B5960932F037093300380933103DD
:102C00009093320304C00E94F1440E9429100E9454
:102C10005B59681579058A059B05A8F30C948F22EA
:102C20008091390290913A02A0913B02B0913C020E
:102C30008093580390935903A0935A03B0935B0376
:102C400080912402909125029093ED028093EC02F2
:102C500084E690E090932502809324020E945B59C1
:102C600060932F037093300380933103909332036A
:102C700081E00E94CB398091EE029091EF02A09109
:102C8000F002B091F1028093430390934403A09328
:102C90004503B09346038091F2029091F302A09114
:102CA000F402B091F5028093470390934803A093F8
:102CB0004903B0934A038091F6029091F702A091E4
:102CC000F802B091F90280934B0390934C03A093C8
:102CD0004D03B0934E038091FA029091FB02A091B4
:102CE000FC02B091FD0280934F0390935003A09398
:102CF0005103B093520380E090E0A0E0B0E08093F5
:102D0000390290933A02A0933B02B0933C0288E5CB
:102D10000E94F213882361F489E50E94F21388234C
:102D200039F48AE50E94F213882311F481E001C08E
:102D300080E080933D02882329F488E50E94F21305
:102D4000882321F080E090E00E943B1280913D02B8
:102D5000882329F489E50E94F213882321F081E079
:102D600090E00E943B1288E50E94F2138823D9F07C
:102D70000E9413146115710581059105A1F00E944F
:102D80001F142091FE023091FF02409100035091E8
:102D900001030E946D5A6093EE027093EF028093DC
:102DA000F0029093F10289E50E94F2138823D9F092
:102DB0000E9413146115710581059105A1F00E940F
:102DC0001F1420910203309103034091040350919A
:102DD00005030E946D5A6093F2027093F302809390
:102DE000F4029093F50280913D02882329F48AE54C
:102DF0000E94F213882321F082E090E00E943B12AF
:102E00008AE50E94F2138823D9F00E9413146115F9
:102E1000710581059105A1F00E941F142091060300
:102E20003091070340910803509109030E946D5AA5
:102E30006093F6027093F7028093F8029093F90280
:102E40008EEE92E062EF72E046EF52E02AEF32E05F
:102E50000E94902880E00E94CB3980915803909185
:102E60005903A0915A03B0915B0380933902909368
:102E70003A02A0933B02B0933C028091EC02909105
:102E8000ED0290932502809324020E945B59609387
:102E90002F037093300380933103909332030E9489
:102EA000C4390C948F22109253030C948F2281E02A
:102EB000809353030C948F2285E40E94F21388239D
:102EC00011F40E94833A9EEEE92E92E0F92E8EEFE5
:102ED000C82E82E0D82E00E010E0F801E759FD4F3F
:102EE00080810E94F213882331F1033061F40E9443
:102EF0001F14F70160837183828393838AEF92E0CA
:102F00000E94722818C00E941F14F601208131818E
:102F1000428153810E946D5AF701608371838283DD
:102F200093838EEE92E062EF72E046EF52E02AEF7A
:102F300032E00E9490280F5F1F4F24E030E0E20E45
:102F4000F31EC20ED31E0430110539F60C948F22E5
:102F50008DE40E94F213882311F40C94B7210E948F
:102F60001F140E94B55B6837710509F4E1C6693723
:102F700071050CF05FC06535710509F42EC5663525
:102F8000710564F56A32710509F481C16B3271050E
:102F900074F46231710509F4CFC46F31710509F41D
:102FA000C9C06131710511F00C948F22BDC062352A
:102FB000710509F4BAC46335710534F461357105DE
:102FC00011F00C948F229FC46335710509F4B0C4CD
:102FD0006435710511F00C948F22AEC46D36710505
:102FE00009F4B2C26E36710574F46836710509F4DD
:102FF00090C16936710509F4BFC16C35710511F0D6
:103000000C948F2200C56337710509F481C56437BC
:10301000710534F46237710511F00C948F2297C555
:103020006537710509F483C56737710511F00C9494
:103030008F2277C06D3D710511F40C940D206E3D0B
:1030400071054CF56B3C710509F41EC76C3C7105AC
:1030500074F46C38710509F47EC1693C710509F49A
:10306000F1C66937710511F00C948F2263C66D3C6F
:10307000710509F447C76D3C71050CF423C76E3C1C
:10308000710511F40C94E01F6C3D710511F00C9466
:103090008F220C94FE1F31E06039730711F40C94F9
:1030A000962181E061397807F4F491E06D32790777
:1030B00011F40C947220E1E06E327E073CF4623E23
:1030C000710511F00C948F220C941C20F1E06E32EB
:1030D0007F0711F40C9447216F52714011F00C944A
:1030E0008F220C94562131E0663F730711F40C9443
:1030F0009C2181E0673F78073CF4655F714011F0E7
:103100000C948F220C949921E1E0673F7E0711F423
:103110000C949F21675E734011F00C948F220C94E5
:10312000A221ECE5F1E011C64398179812982B986C
:103130000C948F220E945B596093200370932103AB
:10314000809322039093230320911C0330911D034D
:1031500040911E0350911F03621B730B840B950B50
:1031600028EE33E040E050E00E943E5FF22EE32E76
:10317000D42EC52E2DB73EB7285030400FB6F89448
:103180003EBF0FBE2DBF0DB71EB70F5F1F4FCE0145
:103190000196EDB7FEB79283818389EA92E0F80148
:1031A000938382836F2D7E2D842F952F2CE330E027
:1031B00040E050E00E943E5FF801358324836F2D8C
:1031C0007E2D8D2D9C2D2CE330E040E050E00E94C0
:1031D0003E5FF801778366830E94640CE7ECF0E0C1
:1031E00094912DB73EB7285F3F4F0FB6F8943EBF7E
:1031F0000FBE2DBF08C08091C00085FFFCCF90930B
:10320000C600319694919923B1F7FE01319607C01B
:103210008091C00085FFFCCF31969093C6009081CD
:103220009923B1F78091C00085FFFCCF8AE080939D
:10323000C60080916005882311F40C948F221092AF
:10324000600580911903E82EFF24EE0CFF1C83E932
:103250009AE0E80EF91EF70160817181882777FDF9
:103260008095982F0E94E85B2091420230914302A2
:1032700040914402509145020E94545D181614F08A
:103280000C948F22F701118210820C948F2283E517
:103290000E94F213882311F40C948F220E941F14B1
:1032A0000E94B55B6B017C015B0180E50E94F2131B
:1032B000882369F0D7FC0BC0FFEFCF16D10409F0CB
:1032C00034F40E941F140E94B55B8B0102C00FEF03
:1032D0001FEFEDE6F2E0808191818017910711F4F4
:1032E0000C948F22329622E0ED3DF207A1F717FFF2
:1032F00002C00C948F22802F61E00E942D58802FF5
:103300006A2D0E946C58802FB5010E94FD590C94C3
:103310008F2288E690E00E942914882311F00C94F3
:103320008F2283E50E94F213882389F00E941F14E4
:1033300020912603E22EFF24EE0CFF1CE3E9FAE0C5
:10334000EE0EFF1E0E94B55BF701718360830E9441
:10335000AA410C948F2283E50E94F213882311F472
:103360000C948F220E941F140E94B55B7093960AE2
:103370006093950A0C948F2289E690E00E942914AC
:10338000882311F00C948F22E3EAF2E0949108C0B4
:103390008091C00085FFFCCF9093C6003196949138
:1033A0009923B1F7E0912603F0E0EE0FFF1FEE0F37
:1033B000FF1FE756F54F408151816281738185E699
:1033C0009BE021E030E00E94D655E0EAF2E09491E3
:1033D00008C08091C00085FFFCCF9093C600319655
:1033E00094919923B1F7E0912603F0E0EE0FFF1FCF
:1033F000ED56F54F60817181882777FD8095982F74
:103400000E94E85BAB01BC0185E69BE021E030E077
:103410000E94D655EDE9F2E0949108C08091C00079
:1034200085FFFCCF9093C600319694919923B1F714
:1034300085E69BE060E070E04AE050E00E94FB54CB
:10344000EBE9F2E0949108C08091C00085FFFCCFC9
:103450009093C600319694919923B1F74091990ABF
:1034600050919A0A60919B0A70919C0A85E69BE0B4
:1034700021E030E00E94D655E8E9F2E0949108C0DE
:103480008091C00085FFFCCF9093C6003196949147
:103490009923B1F76091930A7091940A882777FD78
:1034A0008095982F0E94E85BAB01BC0185E69BE00C
:1034B00021E030E00E94D655E4E9F2E0949108C0A2
:1034C0008091C00085FFFCCF9093C6003196949107
:1034D0009923B1F7809126030E949F41BC0185E6A4
:1034E0009BE04AE050E00E94FB54EFE8F2E0949148
:1034F00008C08091C00085FFFCCF9093C600319634
:1035000094919923B1F78FEF9FEF0E949F41BC01E7
:1035100085E69BE04AE050E00E94FB54E5E7F1E0DD
:1035200007C08091C00085FFFCCF31969093C60004
:1035300090819923B1F78091C00085FFFCCF8AE08C
:103540008093C6000C94B0228DE690E00E9429146E
:10355000882311F00C948F221092600583E50E945D
:10356000F2138823A9F00E941F1420912603E22E53
:10357000FF24EE0CFF1C23E93AE0E20EF31E0E944A
:10358000B55BF7017183608381E08093340218C0DA
:1035900082E50E94F213882399F00E941F14209163
:1035A0002603E22EFF24EE0CFF1C23E93AE0E20E94
:1035B000F31E0E94B55BF7017183608310923402A1
:1035C00083E50E94F213882351F00E941F14609338
:1035D000420270934302809344029093450282E436
:1035E0000E94F213882351F00E941F1460933E0240
:1035F00070933F02809340029093410286E40E94C0
:10360000F213882369F00E941F146093460270939E
:103610004702809348029093490281E080936005BD
:103620000E94AA410E945B594B015C012091260334
:10363000E22EFF2410922503EE0CFF1CF701ED563D
:10364000F54F60817181882777FD8095982F0E94C2
:10365000E85BEE0CFF1C29E93AE0E20EF31EF701ED
:1036600020813181428153810E94545D18161CF4DF
:1036700081E080932503CC24CA94DC2C7601ECE80D
:10368000F2E05490E8E8F2E06490E4E8F2E074904C
:103690003AE0432E2BC1952DECE8F2E008C0809172
:1036A000C00085FFFCCF9093C6003196949199237A
:1036B000B1F7E0912603F0E0EE0FFF1FEE0FFF1FC2
:1036C000E756F54F408151816281738185E69BE029
:1036D00021E030E00E94D655962DE8E8F2E008C0DF
:1036E0008091C00085FFFCCF9093C60031969491E5
:1036F0009923B1F76091260385E69BE070E04AE0EC
:1037000050E00E94FB54972DE4E8F2E008C080915D
:10371000C00085FFFCCF9093C60031969491992309
:10372000B1F7F7FE03C0E6E7F1E028C00E945B595D
:10373000A7019601205F384D4F4F5F4F261B370B77
:10374000480B590BCA01B90128EE33E040E050E0C4
:103750000E943E5F85E69BE0BA01A9012AE030E0C5
:103760000E94A7548091C00085FFFCCF0EC08091BD
:10377000C00085FFFCCF31969093C60090819923BD
:10378000B1F78091C00085FFFCCF4092C6000E9437
:103790005B594B015C010E94F1440E942910FFEF2C
:1037A000CF16FFEFDF06FFEFEF06FFEFFF0609F092
:1037B00052C080912503E0912603882331F1F0E087
:1037C0008F01000F111F000F111F0756154FEE0F2D
:1037D000FF1FED56F54F60817181882777FD809539
:1037E000982F0E94E85B20E030E040E85FE30E9411
:1037F0006C5A9B01AC01F8016081718182819381D7
:103800000E94545D87FF58C05EC0F0E08F01000F3A
:10381000111F000F111F0756154FEE0FFF1FED561A
:10382000F54F60817181882777FD8095982F0E94E0
:10383000E85B20E030E040E85FE30E946D5A9B01C6
:10384000AC01F80160817181828193810E94465BA5
:10385000181694F538C0F7FC36C0E0912603F0E066
:103860008F01000F111F000F111F0756154FEE0F8C
:10387000FF1FED56F54F60817181882777FD809598
:10388000982F0E94E85B9B01AC01F8016081718177
:10389000828193810E946C5A0E94B55B97FF07C09A
:1038A00090958095709561957F4F8F4F9F4F6430B5
:1038B0007105810591053CF00E945B59AC01CB017B
:1038C000DA016C017D01FFEFCF16FFEFDF06FFEF9E
:1038D000EF06FFEFFF0651F0F7FC24C60E945B598C
:1038E0006C197D096051774208F01CC60E945B5933
:1038F000681979098A099B09695E73408040904084
:1039000008F0C9CE48CF0E94AB410E94833A2B9A5F
:103910000E948F3A10921B0310921A0368EE73E014
:1039200080E090E00E946959FAC51092EB02F7C559
:1039300081E08093EB02F3C583E50E94F2138823B4
:1039400099F00E941F1420E030E04AE754E40E94FE
:10395000265E0E94BA5B60933502709336028093B4
:10396000370290933802DBC588E50E94F213882362
:1039700009F0EDC589E50E94F213882309F0E7C537
:103980008AE50E94F213882309F0E1C585E40E94CC
:10399000F213882309F0DBC50E94833A2B9A0E9418
:1039A0008F3ABDC5439A1092160389E50E94F2131F
:1039B000882319F0179A109217038AE50E94F213D0
:1039C000882319F0129A1092180385E40E94F213CA
:1039D000882309F4A4C52B9AA2C583E50E94F2139B
:1039E0000E941F1420E030E04AE754E40E94265E63
:1039F0000E94BA5B60933303709334038093350362
:103A0000909336038CC554E0652E55E0752E44EF37
:103A1000242E44E0342E30E4432E35E0532E882407
:103A20009924F401E759FD4F80810E94F213882305
:103A300009F45DC083E0881609F052C00E941F148B
:103A40005B016C0120E030E040EA51E40E94465BFB
:103A500088230CF03FC0F3016081718182819381E2
:103A6000A60195010E944D5B7B018C016091380598
:103A70007091390580913A0590913B05A801970115
:103A80000E94265E609338057093390580933A054D
:103A900090933B05F1016081718182819381A8013E
:103AA00097010E94265EF101608371838283938374
:103AB000F20160817181828193810E94E65BA8019D
:103AC00097010E94265E0E94BA5BF20160837183B7
:103AD00082839383F301A082B182C282D38207C022
:103AE0000E941F14F301608371838283938308947F
:103AF000811C911C24E030E0620E731E220E331EE6
:103B0000420E531E34E08316910409F08ACF07C594
:103B1000EFEBF1E0949108C08091C00085FFFCCFED
:103B20009093C600319694919923B1F7F8C480918F
:103B30005C0390915D0305966AE270E00E94590C67
:103B4000FC01009709F4EBC431971082E8C4ECEB58
:103B5000F1E0949108C08091C00085FFFCCF909364
:103B6000C600319694919923B1F74091EE0250919D
:103B7000EF026091F0027091F10285E69BE022E095
:103B800030E00E94D655E9EBF1E0949108C08091B5
:103B9000C00085FFFCCF9093C60031969491992385
:103BA000B1F74091F2025091F3026091F4027091EA
:103BB000F50285E69BE022E030E00E94D655E6EB78
:103BC000F1E0949108C08091C00085FFFCCF9093F4
:103BD000C600319694919923B1F74091F602509125
:103BE000F7026091F8027091F90285E69BE022E00D
:103BF00030E00E94D655E3EBF1E0949108C080914B
:103C0000C00085FFFCCF9093C60031969491992314
:103C1000B1F74091FA025091FB026091FC02709161
:103C2000FD0285E69BE022E030E00E94D655E8EAFE
:103C3000F1E0949108C08091C00085FFFCCF909383
:103C4000C600319694919923B1F780E00E94713AB1
:103C50000E94E85B2091040530910505409106051E
:103C6000509107050E944D5BAB01BC0185E69BE0CE
:103C700022E030E00E94D655E5EAF1E0949108C0D8
:103C80008091C00085FFFCCF9093C600319694913F
:103C90009923B1F781E00E94713A0E94E85B20917C
:103CA00008053091090540910A0550910B050E94C5
:103CB0004D5BAB01BC0185E69BE022E030E00E9459
:103CC000D655E2EAF1E0949108C08091C00085FFEA
:103CD000FCCF9093C600319694919923B1F782E07E
:103CE0000E94713A0E94E85B20910C0530910D050D
:103CF00040910E0550910F050E944D5BAB01BC0138
:103D000085E69BE022E030E00E94D655E5E7F1E051
:103D100007C08091C00085FFFCCF31969093C6000C
:103D200090819923B1F78091C00085FFFCCFF4C347
:103D300080E001C081E00E94CB39F1C38091C000D6
:103D400085FFFCCF31969093C60090819923B1F7FF
:103D50008091C00085FFFCCF8AE08093C600EAE92D
:103D6000F1E0949108C08091C00085FFFCCF909352
:103D7000C600319694919923B1F7349B03C0E8E7CC
:103D8000F1E00AC0EDE7F1E007C08091C00085FFD7
:103D9000FCCF31969093C60090819923B1F7809122
:103DA000C00085FFFCCF8AE08093C600E2E9F1E025
:103DB000949108C08091C00085FFFCCF9093C6000D
:103DC000319694919923B1F7069B03C0E8E7F1E09F
:103DD0000AC0EDE7F1E007C08091C00085FFFCCF8D
:103DE00031969093C60090819923B1F78091C000DD
:103DF00085FFFCCF8AE08093C600EAE8F1E0949169
:103E000008C08091C00085FFFCCF9093C60031961A
:103E100094919923B1F7019B03C0E8E7F1E00AC050
:103E2000EDE7F1E007C08091C00085FFFCCF31963F
:103E30009093C60090819923B1F78091C00085FFCF
:103E4000FCCF6AC309E612E024E1E22E25E0F22E5F
:103E5000F80180810E94F213882349F00E941F1408
:103E60000E94BA5BF70160837183828393830F5F43
:103E70001F4F24E030E0E20EF31E32E00D36130750
:103E800039F70E9447284BC309E612E094EFE92E68
:103E900094E0F92EF80180810E94F213882339F012
:103EA0000E941F14F70160837183828393830F5FE5
:103EB0001F4F24E030E0E20EF31E32E00D36130710
:103EC00049F72DC383E50E94F213882351F00E9425
:103ED0001F14609328057093290580932A059093F9
:103EE0002B0584E50E94F213882309F418C30E946D
:103EF0001F1460932C0570932D0580932E059093CD
:103F00002F050DC383E50E94F213882351F00E9410
:103F10001F146093240570932505809326059093C4
:103F2000270584E50E94F213882351F00E941F1494
:103F300060933C0570933D0580933E0590933F054B
:103F400082E40E94F213882361F00E941F140E94F1
:103F5000BA5B6093F0047093F1048093F204909341
:103F6000F30488E50E94F213882351F00E941F1485
:103F7000609330057093310580933205909333053B
:103F80008AE50E94F213882351F00E941F14609367
:103F9000340570933505809336059093370585E495
:103FA0000E94F213882309F4BAC20E941F1460937E
:103FB00038057093390580933A0590933B05AFC25D
:103FC00009E612E08EEFE82E82E0F82EF8018081FB
:103FD0000E94F213882339F00E941F14F7016083B6
:103FE0007183828393830F5F1F4F24E030E0E20EE2
:103FF000F31E32E00C36130749F791C283E50E94A5
:10400000F213882309F48BC20E941F140E94B55B2F
:10401000709325026093240282C283E50E94F2130A
:10402000882309F47CC20E941F140E94B55B709320
:1040300027026093260273C280E50E94F213882350
:1040400009F46DC20E941F140E94B55B7B0183E5D9
:104050000E94F213882319F40FEF1FEF05C00E948E
:104060001F140E94B55B8B01C8010196039708F0ED
:1040700056C2EDE6F2E0808191818E159F0509F42C
:104080004EC2329682E0ED3DF807A9F7F7FC47C231
:104090000E94833ADE2C8E2D60E00E942D5801157F
:1040A000110541F00130110579F09FEF0F3F19071D
:1040B00091F403C000E010E00EC08E2D0E94C058A5
:1040C00000E010E0892B39F401E010E004C00E9408
:1040D000F1440E9429108D2D0E94C058801791072D
:1040E000B1F71DC280E50E94F213882351F00E94AF
:1040F0001F1460935302709354028093550290935F
:10410000560289E40E94F213882361F00E941F1472
:104110000E94B741609357027093580280935902EE
:1041200090935A0284E40E94F213882361F00E9463
:104130001F140E94C54160935B0270935C028093E0
:104140005D0290935E0283E40E94F213882351F093
:104150000E941F1460935F0270936002809361025B
:10416000909362020E948841E7E8F1E007C08091E5
:10417000C00085FFFCCF31969093C60090819923B3
:10418000B1F7EAE8F1E007C08091C00085FFFCCFFD
:1041900031969093C60090819923B1F740915302D4
:1041A00050915402609155027091560285E69BE051
:1041B00022E030E00E94D655EEE8F1E007C08091A1
:1041C000C00085FFFCCF31969093C6009081992363
:1041D000B1F7609157027091580280915902909105
:1041E0005A020E94BE41AB01BC0185E69BE022E081
:1041F00030E00E94D655E2E9F1E007C08091C000AE
:1042000085FFFCCF31969093C60090819923B1F73A
:1042100060915B0270915C0280915D0290915E0200
:104220000E94CC41AB01BC0185E69BE022E030E07E
:104230000E94D655E6E9F1E007C08091C00085FFF5
:10424000FCCF31969093C60090819923B1F74091AD
:104250005F0250916002609161027091620285E696
:104260009BE022E030E00E94D655E5E7F1E007C090
:104270008091C00085FFFCCF31969093C60090815D
:104280009923B1F78091C00085FFFCCF45C183E53C
:104290000E94F213882329F460E070E080E090E04F
:1042A00002C00E941F140E943E2839C185E40E946A
:1042B000F213882319F400E010E012C00E941F14CA
:1042C0000E94B55B8B0177FF0BC00F2EF0E0CF2E65
:1042D000F0E0DF2EFCE8EF2EF2E4FF2EF02D0AC016
:1042E0000F2EF0E0CF2EF0E0DF2EF6E1EF2EF3E41C
:1042F000FF2EF02D83E50E94F213882321F00E9407
:104300001F146B017C0183E40E94F213882319F4CB
:1043100025E030E005C00E941F140E94B55B9B01A0
:10432000C701B601A8010E94A546F9C00E94833AC0
:10433000F6C00E94BD4E03C00E94BD4EF0C00E9458
:104340004650EDC01092240380912B0390912C03D2
:10435000A0912D03B0912E038093270390932803FF
:10436000A0932903B0932A030E940D12D8C084E5BC
:104370000E94F213882309F487C00E941F140E9430
:10438000BA5B262F609326036623A1F1E7ECF0E0E9
:10439000949108C08091C00085FFFCCF9093C60027
:1043A000319694919923B1F7EAE9F1E007C0809141
:1043B000C00085FFFCCF31969093C6009081992371
:1043C000B1F785E69BE0622F40E050E00E94B454D4
:1043D000ECE9F1E007C08091C00085FFFCCF319689
:1043E0009093C60090819923B1F78091C00085FF1A
:1043F000FCCF92C086E40E94F2138823E1F00E9471
:104400001F146B017C0160935403709355038093D8
:1044100056039093570320E030E040E050E00E94C4
:10442000545D181644F4C0923902D0923A02E092D8
:104430003B02F0923C02E7ECF0E0949108C08091DE
:10444000C00085FFFCCF9093C600319694919923CC
:10445000B1F7EDEAF1E007C08091C00085FFFCCF25
:1044600031969093C60090819923B1F7609119031A
:1044700085E69BE070E04AE050E00E94FB548091AA
:10448000C00085FFFCCF48C0E7ECF0E0949108C085
:104490008091C00085FFFCCF9093C6003196949127
:1044A0009923B1F7E7E7F1E0949108C08091C0004B
:1044B00085FFFCCF9093C600319694919923B1F774
:1044C00020915E0330915F0380E690E0289FF00129
:1044D000299FF00D389FF00D1124E05AFC4F07C0C2
:1044E0008091C00085FFFCCF31969093C6009081EB
:1044F0009923B1F7E5E7F1E0949108C08091C000FD
:1045000085FFFCCF9093C600319694919923B1F723
:104510008091C00085FFFCCF8AE08093C6000E9496
:1045200009101EC00E945B5960931C0370931D0309
:1045300080931E0390931F030E945B5960932F0387
:10454000709330038093310390933203E8CF0E943D
:10455000833A88E50E94F213882309F023CA25CA0A
:104560006E960FB6F894DEBF0FBECDBFCF91DF9130
:104570001F910F91FF90EF90DF90CF90BF90AF9081
:104580009F908F907F906F905F904F903F902F9073
:1045900008958F929F92AF92BF92CF92DF92EF9247
:1045A000FF920F931F93CF93DF9330E6C32ED12C4E
:1045B000E7EFF2E0A4902AE0922EEDE6F3E0B4906B
:1045C000882483940BC22D3071F02A3321F480911A
:1045D000E104882341F08091E2049091E3048F3557
:1045E00091050CF4D7C1E091E204F091E304309717
:1045F00019F41092E1042BC2A091E404B091E504F7
:10460000AC9D8001AD9D100DBC9D100D1124E00FDF
:10461000F11FE05AFC4F10828091E104882309F0D9
:10462000B4C11092E104AA51BB4F1C92E801C05AD8
:10463000DC4FCE016EE470E00E94590C9C010097A3
:1046400009F4F7C090935D0380935C032F5F3F4FA5
:104650002C1B3D0B200F311FC901805A9C4F60E07D
:1046600070E04AE050E00E94F80A6093EA04709318
:10467000EB048093EC049093ED04E0902703F0901A
:1046800028030091290310912A03A80197012F5FA5
:104690003F4F4F4F5F4F621773078407950709F429
:1046A000BCC18091E4049091E5049C012C9DC00163
:1046B0002D9D900D3C9D900D1124805A9C4F66E1DC
:1046C00074E00E943F0C892B09F0A7C1EDECF0E0EB
:1046D000949108C08091C00085FFFCCF9093C600E4
:1046E000319694919923B1F7E3EEF3E0949108C0E9
:1046F0008091C00085FFFCCF9093C60031969491C5
:104700009923B1F785E69BE0B801A7012AE030E0E4
:104710000E94C6548091C00085FFFCCF73C01E2745
:104720004F5FFC01E40FF11DE05AFC4FE081EA32DB
:10473000B1F730935D0320935C03C901019660E0FB
:1047400070E00E9498090E94B55B212F30E0261787
:10475000370709F45DC0EDECF0E0949108C080915A
:10476000C00085FFFCCF9093C600319694919923A9
:10477000B1F7E4ECF3E0949108C08091C00085FFAC
:10478000FCCF9093C600319694919923B1F7409154
:104790002703509128036091290370912A0385E62D
:1047A0009BE02AE030E00E94C6548091C00085FF63
:1047B000FCCF28C0EDECF0E0949108C08091C000DF
:1047C00085FFFCCF9093C600319694919923B1F761
:1047D000EAE9F3E0949108C08091C00085FFFCCF26
:1047E0009093C600319694919923B1F785E69BE0AA
:1047F000B801A7012AE030E00E94C6548091C000B1
:1048000085FFFCCF8AE08093C6000E940D124AC04B
:104810008091EA049091EB04A091EC04B091ED0436
:104820008093270390932803A0932903B0932A032E
:104830003EC0CE016AE270E00E94590C009709F474
:1048400036C0EDECF0E0949108C08091C00085FF87
:10485000FCCF9093C600319694919923B1F7E0E78D
:10486000F3E0949108C08091C00085FFFCCF909345
:10487000C600319694919923B1F740912703509146
:1048800028036091290370912A0385E69BE02AE0C2
:1048900030E00E94C6548091C00085FFFCCF8AE0C2
:1048A0008093C6001092E3041092E204D0C080917D
:1048B000E4049091E5048C9D80018D9D100D9C9DDC
:1048C000100D1124E801C05ADC4FCE0167E470E0FE
:1048D0000E94590C9C01009709F441C090935D031C
:1048E00080935C032F5F3F4F2C1B3D0B200F311F2C
:1048F000C901805A9C4F60E070E00E9498090E94B4
:10490000B55B6430710558F580912403882399F4D0
:104910009B2DEDE6F3E008C08091C00085FFFCCF41
:104920009093C600319694919923B1F78091C0007D
:1049300085FFFCCF12C09A2DE7EFF2E008C080910E
:10494000C00085FFFCCF9093C600319694919923C7
:10495000B1F78091C00085FFFCCF9092C600809196
:10496000E4049091E504019664E070E00E942B5FFE
:104970009093E5048093E4048091EE049091EF0419
:1049800001969093EF048093EE041092E30410924A
:10499000E20424C02B3311F48092E1048091E104FD
:1049A0008823E1F42091E2043091E3048091E4044F
:1049B0009091E5048C9DF0018D9DF00D9C9DF00D76
:1049C0001124E20FF31FE05AFC4F8091E004808332
:1049D0002F5F3F4F3093E3042093E2048091610BFB
:1049E0009091620B2091630B3091640B821B930BAF
:1049F0008F779070892B59F18091EE049091EF049C
:104A000004972CF585E69BE00E94E553282F8093C0
:104A1000E0048A3009F0D7CDE6CD8091E40490918E
:104A2000E5048C9DE0018D9DD00D9C9DD00D112441
:104A3000CE01805A9C4F6AE270E00E94590C9C01A2
:104A4000009709F4B7CE10E040E0CE016ACEDF91C6
:104A5000CF911F910F91FF90EF90DF90CF90BF907B
:104A6000AF909F908F9008958091EE049091EF0405
:104A7000039714F40E94C9228091EE049091EF04F0
:104A8000892BC1F00E9465158091EE049091EF048E
:104A900001979093EF048093EE0480915E039091D0
:104AA0005F03019664E070E00E942B5F90935F03C8
:104AB00080935E030E94F1440E9429100E94EA4004
:104AC0000895DF93CF9300D0CDB7DEB785E69BE0A6
:104AD00040E950ED63E070E00E94AD53E7EFF4E091
:104AE000949108C08091C00085FFFCCF9093C600D0
:104AF000319694919923B1F78091C00085FFFCCF46
:104B00008AE08093C60047EC50E0FA01949108C017
:104B10008091C00085FFFCCF9093C60031969491A0
:104B20009923B1F784B7282F80FF15C0EFEEF4E08A
:104B3000949108C08091C00085FFFCCF9093C6007F
:104B4000319694919923B1F78091C00085FFFCCFF5
:104B50008AE08093C60021FF15C0EFEDF4E0949148
:104B600008C08091C00085FFFCCF9093C6003196AD
:104B700094919923B1F78091C00085FFFCCF8AE022
:104B80008093C60022FF15C0EEECF4E0949108C0BB
:104B90008091C00085FFFCCF9093C6003196949120
:104BA0009923B1F78091C00085FFFCCF8AE0809304
:104BB000C60023FF15C0EEEBF4E0949108C080918D
:104BC000C00085FFFCCF9093C60031969491992345
:104BD000B1F78091C00085FFFCCF8AE08093C600CA
:104BE00025FF15C0EEEAF4E0949108C08091C00062
:104BF00085FFFCCF9093C600319694919923B1F72D
:104C00008091C00085FFFCCF8AE08093C60014BE6F
:104C1000E6EAF4E0949108C08091C00085FFFCCFE3
:104C20009093C600319694919923B1F7E0EAF4E0AD
:104C3000949108C08091C00085FFFCCF9093C6007E
:104C4000319694919923B1F78091C00085FFFCCFF4
:104C50008AE08093C600FA019491E7ECF0E008C086
:104C60008091C00085FFFCCF9093C600319694914F
:104C70009923B1F7E0E9F4E0949108C08091C00075
:104C800085FFFCCF9093C600319694919923B1F79C
:104C9000EBE7F4E0949108C08091C00085FFFCCF61
:104CA0009093C600319694919923B1F7EFE6F4E022
:104CB000949108C08091C00085FFFCCF9093C600FE
:104CC000319694919923B1F7E8E5F4E0949108C006
:104CD0008091C00085FFFCCF9093C60031969491DF
:104CE0009923B1F78091C00085FFFCCF8AE08093C3
:104CF000C600EDE4F4E0949108C08091C00085FF07
:104D0000FCCF9093C600319694919923B1F7E1E4DA
:104D1000F4E0949108C08091C00085FFFCCF90938F
:104D2000C600319694919923B1F78091C00085FF18
:104D3000FCCF8AE08093C600FA019491E7ECF0E0A2
:104D400008C08091C00085FFFCCF9093C6003196CB
:104D500094919923B1F7E2E3F4E0949108C0809133
:104D6000C00085FFFCCF9093C600319694919923A3
:104D7000B1F720912E0C30912F0CCE010196211508
:104D8000310519F484539C4002C0821B930B9A8313
:104D9000898369817A8185E69BE04AE050E00E9440
:104DA000FB54EBE1F4E0949108C08091C00085FFD2
:104DB000FCCF9093C600319694919923B1F785E684
:104DC0009BE060ED74E04AE050E00E94FB5480916B
:104DD000C00085FFFCCF8AE08093C6001092E604F5
:104DE0001092E7041092E8041092E9040E94BD4E6C
:104DF0000E9446500E9478440E94B72A0E94D439EB
:104E000080E197E220E931E0F9013197F1F701976C
:104E1000D9F70F900F90CF91DF9108953F924F9265
:104E20005F926F927F928F929F92AF92BF92CF923A
:104E3000DF92EF92FF920F931F93CF93DF938091B6
:104E40006005882309F4F6C08090420290904302E6
:104E5000A0904402B09045026091930A7091940A28
:104E6000882777FD8095982F0E94E85B20E030E04E
:104E700040E050E40E946D5AA50194010E94465BF7
:104E800087FDD8C03090320A0F2EF0E04F2EF0E0B0
:104E90005F2EF0E06F2EF0E07F2EF02DCDE4D0E01D
:104EA00058C0232D30E02C9FF0012D9FF00D3C9F2A
:104EB000F00D1124EF59FA4F80819181A281B381C5
:104EC0000097A105B10581F484819581A681B78100
:104ED0000097A105B10541F480859185A285B38530
:104EE0000097A105B10591F12C9F60012D9FD00C79
:104EF0003C9FD00C112481E695E0C80ED91EF60126
:104F000064857585868597850E94E85B7B018C01A9
:104F1000F60160897189828993890E94E65B9B0111
:104F2000AC01C801B7010E944D5BF60122A133A17B
:104F300044A155A10E94265E7B018C01A301920130
:104F40000E94545D181614F4270138013394FFE0D1
:104F50003F228091310A381609F0A3CFC301B20174
:104F600020914602309147024091480250914902F7
:104F70000E94265E9B01AC01C501B4010E946D5ADE
:104F80007B018C01A50194010E94465B87FD02C054
:104F90004701580110913E0200913F02F0904002FB
:104FA000E0904102C501B401212F302F4F2D5E2D1D
:104FB0000E94545D181634F4812F902FAF2DBE2D12
:104FC0004C015D014090470A5090480A6090490AA0
:104FD00070904A0AC301B201A50194010E94545D78
:104FE0001816C4F4C501B40120E037ED43EA5CE3D0
:104FF0000E94265E7B018C01C301B20128E431EEE0
:105000004AE75FE30E94265EA80197010E946D5A5D
:105010004B015C018092470A9092480AA092490A8B
:10502000B0924A0AC501B4010E94B55B7093940A1C
:105030006093930ADF91CF911F910F91FF90EF90B2
:10504000DF90CF90BF90AF909F908F907F906F90A8
:105050005F904F903F9008959091320A8091310A6D
:10506000981749F09091320A02C09F5F9F7080911B
:10507000310A9817D1F70E940E27089560934A02CB
:1050800070934B0280934C0290934D0208950F93BE
:105090001F93CF93DF93C0E0D0E08E01005C1A4FE6
:1050A000FE01EC5EFA4F60817181828193810E94E2
:1050B000E65BFE01EC5FFA4F208131814281538132
:1050C0000E94265E0E94BA5BF8016083718382832E
:1050D00093832496C031D10501F7DF91CF911F91C1
:1050E0000F910895FC0160817181828193812091EB
:1050F00010053091110540911205509113050E9441
:10510000265E0E94F65D60935C0570935D0580935A
:105110005E0590935F058CE595E00E94603A0895E6
:105120008F929F92AF92BF92CF92DF92EF92FF92B7
:105130000F931F93FC018B015A014901608171811A
:1051400082819381209104053091050540910605E7
:10515000509107050E94265E0E94F65D30E5C32E41
:1051600035E0D32E6093500570935105809352051E
:1051700090935305F8016081718182819381209120
:1051800008053091090540910A0550910B050E94D0
:10519000265E0E94F65D24E0E22EF12CEC0CFD1C54
:1051A00060935405F701718382839383F5016081D5
:1051B00071818281938120910C0530910D05409180
:1051C0000E0550910F050E94265E0E94F65D860135
:1051D000085F1F4F60935805F801718382839383A2
:1051E000F401608171818281938120911005309159
:1051F000110540911205509113050E94265E0E94F0
:10520000F65DF6013C9660935C057183828393831F
:10521000C601B701A8019F010E94263A80E090E0F4
:10522000A0E0B0E08093330A9093340AA093350A4B
:10523000B093360A8093370A9093380AA093390ABC
:10524000B0933A0A80933B0A90933C0AA0933D0A9C
:10525000B0933E0A80933F0A9093400AA093410A7C
:10526000B093420A8093430A9093440AA093450A5C
:10527000B093460A1F910F91FF90EF90DF90CF906F
:10528000BF90AF909F908F9008958F929F92AF9212
:10529000BF92CF92DF92EF92FF920F931F93CF9323
:1052A000DF93EC016B01009709F45CC08FA98823A0
:1052B00009F058C0EEA0FFA008A519A5FB01B6A0F3
:1052C000A7A090A481A4C801B7012B2D3A2D492D88
:1052D000582D0E94465B88230CF044C0C801B701DA
:1052E000A80197010E94265E7B018C016AA97BA917
:1052F0008CA99DA9905820E030E040E050EC0E943D
:10530000265E2EA53FA548A959A90E94265E9B01AD
:10531000AC01C801B7010E946D5A0E94935E7B01E7
:105320008C016B2D7A2D892D982D9701A8010E9453
:10533000465B882324F4EB2CFA2C092D182D6B2DB9
:105340007A2D892D982D9701A8010E94465B88230C
:1053500049F0C701D801F60186A397A3A0A7B1A77A
:1053600081E086ABDF91CF911F910F91FF90EF907D
:10537000DF90CF90BF90AF909F908F900895EF9265
:10538000FF920F931F93CF93DF93F090320A00E0C8
:1053900010E020E030E04DE4E42E12C0FE9CE0017D
:1053A0001124CF59DA4FC901B801AE010E94452935
:1053B0008F2D8F5F803109F480E0F82E98018E01E7
:1053C0008091310AF81651F7C901B80140E050E068
:1053D0000E944529DF91CF911F910F91FF90EF908F
:1053E0000895AF92BF92CF92DF92EF92FF920F9308
:1053F0001F93CF93DF93EB018A016115710509F4C7
:1054000066C04115510509F462C0DAA4CBA4BCA45E
:10541000ADA46EA17FA188A599A52D2D3C2D4B2D66
:105420005A2D0E94465B882309F451C08FA9882316
:1054300009F043C0F801E6A0F7A000A511A56D2D65
:105440007C2D8B2D9A2DA80197010E94545D181672
:10545000A4F5C801B701A80197010E94265E7B014F
:105460008C016AA97BA98CA99DA9905820E030E005
:1054700040E050EC0E94265E2EA53FA548A959A900
:105480000E94265E9B01AC01C801B7010E946D5AC3
:105490000E94935E7B018C016D2D7C2D8B2D9A2DAE
:1054A0009701A8010E94465B882324F4ED2CFC2C74
:1054B0000B2D1A2DC701D80104C08D2D9C2DAB2DAD
:1054C000BA2D8EA39FA3A8A7B9A781E08EABDF91C9
:1054D000CF911F910F91FF90EF90DF90CF90BF90F1
:1054E000AF900895CF92DF92EF92FF920F93DF93E8
:1054F000CF9300D0CDB7DEB78091310A8FB7F89443
:10550000F090320A8FBF8091310A90E040968F1957
:1055100091098F709070049704F10091310A035043
:105520000F70CC24DD2440E050E06DE4E62E13C083
:10553000802F002309F480E1082F01500E9DC00147
:1055400011248F599A4F9A838983B6010E94F129B9
:10555000A601C980DA800F1559F70F900F90CF91EF
:10556000DF910F91FF90EF90DF90CF900895109210
:10557000310A1092320A80E1E0E5F5E0DF011D9288
:105580008A95E9F780E090E0A0E0B0E08093370AE8
:105590009093380AA093390AB0933A0A80933B0A51
:1055A00090933C0AA0933D0AB0933E0A80933F0A31
:1055B0009093400AA093410AB093420A8093430A11
:1055C0009093440AA093450AB093460A8093330A05
:1055D0009093340AA093350AB093360A08952F9217
:1055E0003F924F925F926F927F928F929F92AF9273
:1055F000BF92CF92DF92EF92FF920F931F93DF93B0
:10560000CF93CDB7DEB766970FB6F894DEBF0FBE67
:10561000CDBF9E8B8D8B6A017B0148015901DC0156
:10562000D8966D917D918D919C91DB970E94E65B60
:10563000698B7A8B8B8B9C8BA70196010E94265ECF
:105640000E94335B0E94BA5B6D837E838F83988751
:1056500069897A898B899C89A50194010E94265EBB
:105660000E94335B0E94BA5B69837A838B839C833D
:105670002D813E814F8158852837310541055105DF
:1056800040F448E750E060E070E04D835E836F8354
:10569000788769817A818B819C8168377105810562
:1056A000910540F488E790E0A0E0B0E089839A8318
:1056B000AB83BC83AD89BE89AC5BBF4FAD90BD9061
:1056C000CD90DC901397A454B040BE8BAD8B6D8110
:1056D0007E818F8198850E94E65B6D877E878F87AC
:1056E000988BC601B5010E94E85B1B012C0120E0EC
:1056F00030E040E050E00E94465B882321F4E0E087
:1057000070E060E028C069897A898B899C899B0157
:10571000AC010E94265E7B018C016D857E858F85A4
:1057200098899B01AC010E94265E9B01AC01C801D7
:10573000B7010E946C5A7B018C01C201B101A20128
:1057400091010E946D5A9B01AC01C801B7010E94F2
:105750004D5BE62F692F2E2F372F482F562FB9017B
:10576000CA010E94335B0E94B55B3B014C01698119
:105770007A818B819C810E94E65B69877A878B871F
:105780009C8766277727CB016A197B098C099D09BD
:105790000E94E85B5B016C0120E030E040E050E0FB
:1057A0000E94465B882321F4E0E070E060E028C0BE
:1057B00069857A858B859C859B01AC010E94265E5C
:1057C0007B018C0169897A898B899C899B01AC0159
:1057D0000E94265E9B01AC01C801B7010E946C5A71
:1057E0007B018C01C601B501A60195010E946D5A8D
:1057F0009B01AC01C801B7010E944D5BE62F692FE8
:105800002E2F372F482F562FB901CA010E94235C33
:10581000ED89FE89A088B188C288D3888601750188
:10582000E618F708080919090E94B55BA801970155
:10583000261B370B480B590B57FF71C0C201B10132
:1058400020E030E040E050E00E94465B882321F4F5
:10585000E0E070E060E044C0C201B101A20191014A
:105860000E946D5A7B018C01C601B5010E94E65B66
:105870009B01AC01C801B7010E94265E7B018C012F
:105880006D857E858F8598899B01AC010E94265E7F
:105890009B01AC01C801B7010E946C5A7B018C01CD
:1058A00069857A858B859C859B01AC010E94265E6B
:1058B0009B01AC01C801B7010E946D5A7B018C01AC
:1058C000C201B10120E030E040E850E40E94265ED1
:1058D0009B01AC01C801B7010E944D5BE62F692F07
:1058E0002E2F372F482F562FB901CA010E94335B44
:1058F0000E94B55BAC01CB01DA013C014D0197FE82
:1059000003C06624772443016A147B048C049D043D
:1059100010F03501460120E030E040E050E09FB754
:10592000F8946D897E89645B7F4FDB018C91AC5468
:10593000B040BE8BAD8B882321F5FD01648A758A4A
:10594000868A978A260D371D481D591D58962D9316
:105950003D934D935C935B972D813E814F8158859C
:10596000DC962D933D934D935C93DF97A05CBF4FE6
:1059700029813A814B815C812D933D934D935C93BA
:1059800013979FBF66960FB6F894DEBF0FBECDBFCC
:10599000CF91DF911F910F91FF90EF90DF90CF900B
:1059A000BF90AF909F908F907F906F905F904F903F
:1059B0003F902F9008954F925F927F928F929F9287
:1059C000AF92BF92CF92DF92EF92FF920F931F930D
:1059D000CF93DF937090320AC0E0D0E07DE4472E91
:1059E000512C46C02097B1F18EA9882361F4849C84
:1059F000F001859CF00D949CF00D1124EF59FA4FA5
:105A000086A9882339F1EAA0FBA00CA11DA16EA1F3
:105A10007FA188A599A5A80197010E944D5B5B0114
:105A20006C01849CF001859CF00D949CF00D112478
:105A3000EF59FA4F66A177A180A591A5A80197011A
:105A40000E944D5B8B019C01CE01B601A5010E9415
:105A5000EF2A1EAA739480E1781609F47724849CB7
:105A6000E001859CD00D949CD00D1124CF59DA4FC4
:105A7000872C992487FC90948091310A90E08816B5
:105A8000990609F0AFCF2097F1F0EAA0FBA00CA196
:105A90001DA16EA17FA188A599A5A80197010E94CB
:105AA0004D5B5B016C016DEC7CEC8CE49DE3A8012B
:105AB00097010E944D5B8B019C01CE01B601A501AF
:105AC0000E94EF2A1EAADF91CF911F910F91FF90A4
:105AD000EF90DF90CF90BF90AF909F908F907F908E
