:100000000C944F090C9477090C9477090C94770998
:100010000C9477090C9477090C9477090C94770960
:100020000C9477090C9477090C9477090C94770950
:100030000C9477090C9488390C9477090C947709FF
:100040000C9477090C944D410C94FF570C9477094C
:100050000C9468520C9477090C9477090C947709E6
:100060000C9477090C9477090C9488550C947709B3
:100070000C9477090C9477090C947709084AD73BBC
:100080003BCE016E84BCBFFDC12F3D6C74319ABD67
:1000900056833DDA3D00C77F11BED9E4BB4C3E918B
:1000A0006BAAAABE000000803F05A84CCDB2D44E7A
:1000B000B93836A9020C50B9918688083CA6AAAA7C
:1000C0002ABE000000803F6563686F3A0045727287
:1000D0006F723A005072696E7465722073746F703B
:1000E0007065642064756520746F206572726F722C
:1000F000732E2046697820746865206572726F726D
:1001000020616E6420757365204D39393920746F14
:1001100020726573746172742E202854656D706549
:100120007261747572652069732072657365742ECF
:10013000205365742069742061667465722072654D
:100140007374617274696E6729005072696E7465A8
:10015000722068616C7465642E206B696C6C282950
:100160002063616C6C656421006F6B005265736580
:100170006E643A20002200556E6B6E6F776E2063BE
:100180006F6D6D616E643A2022007A5F6D696E3A20
:100190002000795F6D696E3A2000785F6D696E3A74
:1001A00020005A3A00593A0020436F756E74205867
:1001B0003A2000453A005A3A00593A00583A004667
:1001C00049524D574152455F4E414D453A4D61723E
:1001D0006C696E2056313B20537072696E74657283
:1001E0002F6772626C206D617368757020666F7224
:1001F0002067656E36204649524D574152455F553E
:10020000524C3A687474703A2F2F7777772E6D6559
:100210006E64656C2D70617274732E636F6D205007
:10022000524F544F434F4C5F56455253494F4E3AED
:10023000312E30204D414348494E455F5459504579
:100240003A4D656E64656C2045585452554445528C
:100250005F434F554E543A3120555549443A30305A
:100260003030303030302D303030302D3030303094
:100270002D303030302D3030303030303030303084
:1002800030300A0020573A0020453A00543A002006
:1002900042403A0020403A00202F003A002054000B
:1002A000202F006F6B20543A002569206D696E2C59
:1002B0002025692073656300FFFFFF00002F4300C6
:1002C000001643000096420000A0400000A040003D
:1002D00000803F000000000000000000000000005F
:1002E000000000000000000000000000002F43009C
:1002F000001643000096425072696E746572207356
:10030000746F707065642064756520746F20657209
:10031000726F72732E20466978207468652065724A
:10032000726F7220616E6420757365204D393939A2
:1003300020746F20726573746172742E2028546566
:100340006D70657261747572652069732072657372
:1003500065742E205365742069742061667465721B
:100360002072657374617274696E6729006F6B0027
:100370004E6F204C696E65204E756D6265722077F8
:1003800069746820636865636B73756D2C204C61BC
:100390007374204C696E653A20004E6F2043686587
:1003A000636B73756D2077697468206C696E652066
:1003B0006E756D6265722C204C617374204C696E91
:1003C000653A2000636865636B73756D206D6973B2
:1003D0006D617463682C204C617374204C696E6588
:1003E0003A20004C696E65204E756D626572206919
:1003F00073206E6F74204C617374204C696E65209D
:100400004E756D6265722B312C204C617374204CDB
:10041000696E653A20004D313130002020506C610A
:100420006E6E657242756666657242797465733A7E
:1004300020002046726565204D656D6F72793A2007
:10044000004A616E203134203230313400436F6D08
:1004500070696C65643A2000286E6F6E652C2064AC
:10046000656661756C7420636F6E6669672900202C
:100470007C20417574686F723A20004A616E2031A9
:100480003420323031342032323A35363A3034008A
:10049000204C61737420557064617465643A200067
:1004A000312E302E30004D61726C696E2000205369
:1004B0006F667477617265205265736574002057AA
:1004C00061746368646F67205265736574002042CD
:1004D000726F776E206F757420526573657400209B
:1004E00045787465726E616C205265736574005056
:1004F0006F776572557000737461727400220065C5
:100500006E717565696E672022002200656E7175D7
:1005100065696E6720220045313A200045303A2057
:10052000005A3A2000593A2000583A20004D5331E1
:100530002C4D53322050696E730A0024F404D920E4
:100540001BC40C5C0E9804C4095F0265077101F4BA
:1005500005F900FB04B30048048700C10369005893
:1005600003550003034500BE023A008402310053E4
:10057000022A002902250004022000E4011C00C810
:10058000011900AF011700980114008401130071D4
:100590000110006101100051010E0043010D0036F1
:1005A000010B002B010B0020010B00150109000CB1
:1005B00001090003010800FB000800F3000800EB3C
:1005C000000700E4000600DE000600D8000600D2A6
:1005D000000600CC000500C7000500C2000500BDF4
:1005E000000400B9000400B5000400B1000400AD2F
:1005F000000400A9000400A5000300A20003009F5E
:100600000004009B00030098000300950002009383
:10061000000300900003008D0002008B000300889F
:100620000002008600020084000300810002007FB7
:100630000002007D0002007B0002007900020077CA
:1006400000010076000200740002007200010071D7
:100650000002006F0002006D0001006C0002006AE1
:1006600000010069000200670001006600010065EA
:1006700000010064000200620001006100010060EE
:100680000001005F0002005D0001005C0001005BF2
:100690000001005A000100590001005800010057F4
:1006A00000010056000100550001005400010053F4
:1006B00000000053000100520001005100010050F1
:1006C0000001004F0001004E0000004E0001004DEF
:1006D0000001004C0001004B0000004B0001004AEB
:1006E00000010049000100480000004800010047E7
:1006F00000010046000000460001004500000045E2
:1007000000010044000100430000004300010042DA
:1007100000000042000100410000004100010040D3
:100720000001003F0000003F0001003E0000003ECD
:100730000001003D0000003D0001003C0000003CC5
:100740000000003C0001003B0000003B0001003ABB
:100750000000003A000100390000003900010038B3
:1007600000000038000000380001003700000037AA
:1007700000010036000000360000003600010035A0
:100780000000003500000035000100340000003496
:10079000000000340001003300000033000000338B
:1007A0000001003200000032000000320001003180
:1007B0000000003100000031000100300000003076
:1007C000000000300001002F0000002F0000002F6B
:1007D0000000002F0001002E0000002E0000002E5F
:1007E0000001002D0000002D0000002D0000002D54
:1007F0000001002C0000002C0000002C0000002C48
:100800000001002B0000002B0000002B0000002B3B
:100810000001002A0000002A0000002A0000002A2F
:100820000001002900000029000000290000002923
:100830000000002900010028000000280000002816
:100840000000002800000028000100270000002709
:1008500000000027000000270000002700010026FC
:1008600000000026000000260000002600000026F0
:1008700000010025000000250000002500000025E3
:1008800000000025000000250001002400000024D5
:1008900000000024000000240000002400010023C8
:1008A00000000023000000230000002300000023BC
:1008B00000000023000000230001002200000022AD
:1008C00000000022000000220000002200000022A0
:1008D0000001002100000021000000210000002193
:1008E0000000002100000021000000210001002084
:1008F0000000002000000020000000200000002078
:100900000000002000000020000000200001001F67
:100910000000001F0000001F0000001F0000001F5B
:100920000000001F0000001F0001001E0000001E4C
:100930000000001E0000001E00000024F4D430500F
:10094000C38E20C2A24017828B7011127A910D8142
:100950006CD90AA861E108C7586607615143061EB1
:100960004B5D05C145A7041A411104093D98037167
:100970003931034036DB0265339102D430540280B2
:100980002E1D02632CEE01752AC501B028A00110AE
:100990002781018F2564012B244B01E0223401AC17
:1009A000211F018D200D01801FFC00841EED00978A
:1009B0001DDF00B81CD200E61BC600201BBC006473
:1009C0001AB200B219A8000A19A0006A189900D139
:1009D00017910040178B00B516840031167E00B3C6
:1009E0001579003A157300C7146F0058146A00EEA9
:1009F0001366008813630025135E00C7125B006C4A
:100A000012570015125400C111510070114F0021EE
:100A1000114B00D61049008D1047004610440002CB
:100A2000104200C00F4000800F3E00420F3C000605
:100A30000F3B00CB0E3800930E37005C0E350027BD
:100A40000E3400F30D3200C10D3100900D30006006
:100A50000D2E00320D2D00050D2C00D90C2B00AEF3
:100A60000C2900850C29005C0C2700350C27000E92
:100A70000C2600E80B2400C40B2400A00B23007DEF
:100A80000B23005A0B2100390B2100180B2000F812
:100A90000A1F00D90A1E00BB0A1E009D0A1D008005
:100AA0000A1D00630A1C00470A1B002C0A1B0011C8
:100AB0000A1A00F7091A00DD091900C4091900AB68
:100AC000091900920917007B091800630917004CE7
:100AD00009160036091600200916000A091500F546
:100AE000081500E0081400CC081400B8081400A48D
:100AF000081400900813007D0812006B08130058BA
:100B000008120046081200340811002308110012D0
:100B100008110001081100F0071000E0071000D0D4
:100B2000071000C0071000B0070F00A107100091C8
:100B3000070E0083070F0074070F0065070E0057AC
:100B4000070E0049070E003B070D002E070E002080
:100B5000070D0013070D0006070D00F9060C00ED48
:100B6000060D00E0060C00D4060C00C8060C00BC04
:100B7000060C00B0060C00A4060B0099060C008DB4
:100B8000060B0082060B0077060B006C060B00615B
:100B9000060A0057060B004C060A0042060A0038F7
:100BA000060A002E060A0024060A001A060A001089
:100BB00006090007060A00FD050900F4050900EB17
:100BC000050900E2050900D9050900D0050900C79B
:100BD000050900BE050900B5050800AD050800A51A
:100BE0000509009C050800940508008C0508008490
:100BF0000508007C050800740508006C0507006501
:100C00000508005D050700560508004E050700476A
:100C10000507004005080038050700310507002AD0
:100C2000050700230507001C050600160507000F31
:100C30000507000805060002050700FB040600F58D
:100C4000040700EE040600E8040600E2040700DBE7
:100C5000040600D5040600CF040600C9040600C33C
:100C6000040600BD040600B7040600B1040500AC8C
:100C7000040600A6040600A00405009B04060095D7
:100C8000040500900406008A040500850405008020
:100C90000406007A04050075040500700405006B65
:100CA00004050066040500610405005C04050057A6
:100CB000040500520405004D0405004804050043E6
:100CC0000405003E0404003A040500350405003024
:100CD0000404002C04050027040400230405001E5E
:100CE0000404001A04040016040500110404000D95
:100CF000040400090405000404040000040400FCCA
:100D0000030400F8030400F4030400F0030400ECFF
:100D1000030400E8030400E4030400E0030400DC2F
:100D2000030400D8030400D4030400D0030400CC5F
:100D3000030400C8030300C50303006563686F3A3A
:100D400000205A3A0020593A0020583A00656E6453
:100D500073746F7073206869743A20004572726F03
:100D6000723A0054656D70657261747572652068C1
:100D70006561746564206265642073776974636873
:100D80006564206F66662E204D415854454D5020B5
:100D9000747269676765726564202121003A204595
:100DA00078747275646572207377697463686564BA
:100DB000206F66662E204D494E54454D502074726A
:100DC000696767657265642021003A20457874720E
:100DD00075646572207377697463686564206F66F3
:100DE000662E204D415854454D50207472696767F6
:100DF00065726564202100202D20496E76616C6942
:100E000064206578747275646572206E756D6265B4
:100E100072202100504944204175746F74756E65CD
:100E20002066696E6973686564212050757420744A
:100E30006865204B702C204B6920616E64204B64E8
:100E400020636F6E7374616E747320696E746F20AB
:100E5000436F6E66696775726174696F6E2E6800A4
:100E6000504944204175746F74756E6520666169E0
:100E70006C6564212074696D656F75740020403A5B
:100E8000006F6B20543A006F6B20423A0050494487
:100E9000204175746F74756E65206661696C656458
:100EA000212054656D706572617475726520746F70
:100EB0006F206869676800204B643A2000204B6906
:100EC0003A2000204B703A200020436C6173696324
:100ED0002050494420002054753A2000204B753A98
:100EE0002000206D61783A2000206D696E3A200064
:100EF00020643A200020626961733A200070012C5E
:100F00000190012701B0012201C0011D01F001186B
:100F1000011002130130020E016002090190020467
:100F200001C002FF000003FA004003F5008003F057
:100F300000D003EB002004E6007004E100E004DCD4
:100F4000004005D700C005D2004006CD00D006C83D
:100F5000008007C3003008BE00F008B900C009B423
:100F600000B00AAF00B00BAA00D00CA500000EA084
:100F700000500F9B00C01096005012910000148C7E
:100F800000C0158700B0178200B0197D00D01B7813
:100F900000001E730040206E0090226900F024645F
:100FA0000040275F0090295A00E02B5500102E507A
:100FB0000020304B0010324600E033410090353CB9
:100FC000001037370070383200A0392D00B03A28B1
:100FD00000A03B2300603C1E00103D1900903D1412
:100FE00000103E0F00703E0A00C03E0500003F00AA
:100FF000006563686F3A0048617264636F6465649A
:101000002044656661756C742053657474696E67FD
:1010100073204C6F61646564002044002049002007
:1010200020204D33303120500050494420736574E6
:1010300074696E67733A00205A0020590020204DD1
:10104000323036205800486F6D65206F66667365D4
:101050007420286D6D293A00204500205A00205840
:101060000020420020540020204D32303520530013
:10107000416476616E636564207661726961626C59
:1010800065733A20533D4D696E20666565647261F3
:10109000746520286D6D2F73292C20543D4D696E89
:1010A0002074726176656C20666565647261746532
:1010B00020286D6D2F73292C20423D6D696E696D5E
:1010C000756D207365676D656E742074696D65203C
:1010D000286D73292C20583D6D6178696D756D20E0
:1010E0005859206A65726B20286D6D2F73292C204A
:1010F000205A3D6D6178696D756D205A206A657260
:101100006B20286D6D2F73292C2020453D6D617853
:10111000696D756D2045206A65726B20286D6D2F95
:1011200073290020540020204D32303420530041D8
:101130006363656C65726174696F6E3A20533D61DB
:101140006363656C65726174696F6E2C20543D72C7
:1011500065747261637420616363656C6572617448
:10116000696F6E00204500205A0020590020204D54
:101170003230312058004D6178696D756D204163C2
:1011800063656C65726174696F6E20286D6D2F7375
:1011900032293A00204500205A0020590020204DD5
:1011A0003230332058004D6178696D756D20666569
:1011B0006564726174657320286D6D2F73293A0020
:1011C000204500205A0020590020204D3932205857
:1011D0000053746570732070657220756E69743A7F
:1011E0000000002100240027002A00000022002522
:1011F0000028002B00000020002300260029000208
:1012000002020202020202040404040404040403AD
:1012100003030303030303010101010101010101B0
:1012200002040810204080010204081020408001C0
:1012300002040810204080804020100804020100B1
:101240000000010200000000000000040307060087
:101250000000000000000000000000000000004945
:101260004E46494E4954594E414ECDCCCC3D0AD7FD
:10127000233C17B7D13877CC2B329595E6241FB194
:101280004F0A000020410000C84200401C4620BC1C
:10129000BE4CCA1B0E5AAEC59D74F852F5541124AB
:1012A0001FBECFEFD0E1DEBFCDBF12E0A0E0B1E0C6
:1012B000E2E6FDEB02C005900D92A43EB107D9F71E
:1012C0001CE0A4EEB2E001C01D92A033B107E1F72B
:1012D00012E1CEE9D2E104C02297FE010E94695ECC
:1012E000CA39D107C9F70E9449590C94AF5E0C94D2
:1012F0000000A0E0B0E0EFE7F9E00C947E5EEC01C6
:101300005B016115710519F0FB0191838083F990F0
:101310008F2D90E00E946D5E892BC9F7FDE2FF16CC
:1013200021F4F990EE24E39405C02BE2F21609F4BF
:10133000F990EE248E0101501040C8016FE572E172
:1013400043E050E00E94080C892B01F58E010E5FEE
:101350001F4FC80162E672E145E050E00E94080CB0
:10136000892B19F48E01095F1F4FA114B10419F0E4
:10137000F50111830083E0FC04C070E090E080E898
:1013800014C070E090E080E86FEF08C1C80167E624
:1013900072E143E050E00E94080C892B69F4A1142B
:1013A000B10429F470E090E080EC6FE7F7C022967A
:1013B000F501D183C083F6CF8824992440E050E022
:1013C00060E070E0EF2DE053EA30A0F5F2E0EF2AA4
:1013D0008E2D90E09C0128703070E2FE06C0232B19
:1013E00079F50894811C911C2BC0232B19F00894CB
:1013F00081089108DB01CA0112E0880F991FAA1F1A
:10140000BB1F1A95D1F7480F591F6A1F7B1F440F46
:10141000551F661F771F4E0F511D611D711D4839E5
:1014200029E9520729E9620729E1720748F084E0B7
:10143000E82A06C0EE3F31F4E3FC39C098E0E92A1F
:10144000F990C0CFE53311F0E53189F529912D32BE
:1014500019F4E0E1EE2A05C02B3219F081E090E0AA
:1014600003C0299182E090E0E22FE053EA3018F0C7
:10147000C81BD90B1CC020E030E0FCE020383F073F
:101480005CF4C901880F991F880F991F280F391F15
:10149000220F331F2E0F311DE991E053EA3068F31C
:1014A000E4FE03C0309521953F4F820E931ECE2C53
:1014B000DD24E1FE07C0A114B10421F02197F5015C
:1014C000D183C083CB01BA010E94D25A7B018C0127
:1014D000F3E0CF22DD2423E0C216D10421F417FB70
:1014E000109517F9109557016801C801B70120E060
:1014F00030E040E050E00E94325A882309F44AC0AC
:1015000097FE0DC02EE7E22E22E1F22E90948194F8
:1015100091089394C0E2D0E000E010E012C096E998
:10152000E92E92E1F92EF6CFF701259135914591FB
:101530005491C601B5010E94125D5B016C018C1AC9
:101540009D0A8C169D0684F7D595C7950F5F1F4F92
:101550000630110529F08CEF9FEFE80EF91EF1CF50
:10156000C501D6017C018D018C2D880F8D2D881F22
:101570008F3F51F0C601B50120E030E040E050E07F
:101580000E94325A882331F482E290E090932F0C2B
:1015900080932E0C7E2D9F2D802F612F272F392F8A
:1015A000482F562FB901CA01CDB7DEB7ECE00C9435
:1015B0009A5E2F923F925F926F927F928F929F924C
:1015C000AF92BF92CF92DF92EF92FF920F931F9351
:1015D000CF93DF938C011B01EA016115710519F0AE
:1015E000FB0191838083209749F0CE010297839776
:1015F00028F020E030E040E050E0F6C0F801A19093
:101600008F018A2D90E00E946D5E892BB9F7FDE273
:10161000AF1631F4F801A1908F015524539407C0FF
:10162000FBE2AF1619F4F801A1908F015524209721
:1016300019F0C031D105C1F4F0E3AF1679F4F80127
:101640008081883711F0883549F4F801A1800E5F58
:101650001F4FF2E05F2AC0E1D0E006C0209721F4DE
:1016600080E3A816E9F427C0C830D10531F1C930AC
:10167000D10524F4C230D10531F50CC0CA30D105F2
:1016800089F0C031D105F9F4C12CD12CE12CB8E09E
:10169000FB2E28C0C12CD12CE12CA0E4FA2E22C0B4
:1016A000CAE0D0E0FCECCF2EFCECDF2EFCECEF2E01
:1016B000FCE0FF2E17C0C8E0D0E0C12CD12CE12CFB
:1016C000E0E1FE2E0FC09E01442737FD4095542FC8
:1016D00060E070E080E090E80E942A5EC901DA01D3
:1016E0006C017D0120E030E040E050E060E03E0130
:1016F000882477FC8094982C70EDB72EBA0CE9E022
:10170000EB1570F48A2D81548A3118F499ECB92EB6
:1017100006C08A2D81568A3150F589EAB82EBA0C56
:101720008B2D90E08C179D0714F56F3FE1F0C216EA
:10173000D306E406F506B0F0CA01B901A40193018D
:101740000E94E45D9B01AC012B0D311D411D511D1B
:101750002130F0E03F07F0E04F07F0E85F0710F4BA
:1017600061E001C06FEFF801A1908F01C5CF211496
:10177000310481F0662331F001501040F1011183F2
:10178000008308C051FE1AC002501040F1011183BD
:10179000008314C067FF12C050FC05C02FEF3FEF5D
:1017A0004FEF5FE704C020E030E040E050E882E225
:1017B00090E090932F0C80932E0C16C050FE08C022
:1017C00050954095309521953F4F4F4F5F4F0CC03E
:1017D00057FF0AC082E290E090932F0C80932E0C6A
:1017E0002FEF3FEF4FEF5FE7B901CA01DF91CF91D4
:1017F0001F910F91FF90EF90DF90CF90BF90AF902F
:101800009F908F907F906F905F903F902F90089562
:10181000FB01DC014150504088F08D9181341CF077
:101820008B350CF4805E659161341CF06B350CF4E3
:10183000605E861B611171F3990B0895881BFCCFC4
:10184000FB0155915523A9F0BF01DC014D914517CE
:101850004111E1F759F4CD010590002049F04D9177
:1018600040154111C9F3FB014111EFCF81E090E038
:1018700001970895FC018191861721F08823D9F7FB
:10188000992708953197CF010895AEE0B0E0EBE4D9
:10189000FCE00C94865E0D891E898EE08C831A8391
:1018A00009838FEF9FE79E838D839E01275E3F4FC5
:1018B000CE0101966F89788DA9010E94690C2F8154
:1018C0003885020F131FF80110822E96E4E00C9465
:1018D000A25EABE0B0E0EFE6FCE00C94785E3C0189
:1018E0002B015A01FC0117821682838181FD03C0FE
:1018F0006FEF7FEFC6C19AE0892E1E010894211C6C
:10190000311CF3012381F20123FD859123FF819195
:101910002F01882309F4B2C1853239F423FD859162
:1019200023FF81912F01853229F490E0B3010E94B9
:101930005C0EE7CF982FFF24EE249924FFE1FF15DA
:10194000D0F09B3269F09C3228F4903259F09332F7
:1019500091F40EC09D3249F0903369F441E024C007
:1019600052E0F52A84E0F82A28C098E0F92A25C038
:10197000E0E1FE2A22C0F7FC29C0892F80538A307B
:1019800070F4F6FE05C0989C902C1124980E15C09A
:10199000E89CE02C1124E80EF0E2FF2A0EC09E32F3
:1019A00029F4F6FC6BC140E4F42A07C09C3619F414
:1019B00050E8F52A02C0983649F4F20123FD9591CA
:1019C00023FF91912F01992309F0B8CF892F8554D6
:1019D000833018F08052833038F444E050E0A40E95
:1019E000B51E5FE359830FC0933631F0933779F01A
:1019F000933509F056C020C0F5018081898342E00B
:101A000050E0A40EB51E610101E010E012C0F50126
:101A1000C080D180F6FC03C06FEF7FEF02C0692D5C
:101A200070E042E050E0A40EB51EC6010E94510EC7
:101A30008C015FE7F52214C0F501C080D180F6FC6F
:101A400003C06FEF7FEF02C0692D70E042E050E00D
:101A5000A40EB51EC6010E94460E8C0150E8F52A60
:101A6000F3FE07C01AC080E290E0B3010E945C0E52
:101A7000EA948E2D90E008171907A8F30EC0F6011E
:101A8000F7FC8591F7FE81916F0190E0B3010E9410
:101A90005C0EE110EA94015010400115110579F730
:101AA000EAC0943611F0993669F5F7FE08C0F501E1
:101AB000208131814281538184E090E00AC0F501A8
:101AC000808191819C01442737FD4095542F82E00D
:101AD00090E0A80EB91E9FE6F92257FF09C0509565
:101AE0004095309521953F4F4F4F5F4FE0E8FE2ADC
:101AF000CA01B901A1012AE030E00E94880ED82E67
:101B0000D21840C0953729F41F2D1F7E2AE030E0FF
:101B10001DC01F2D197F9F3661F0903720F4983536
:101B200009F0ACC00FC0903739F0983709F0A6C063
:101B300004C028E030E00AC0106114FD146020E108
:101B400030E004C014FD166020E132E017FF08C049
:101B5000F501608171818281938144E050E008C089
:101B6000F50180819181BC0180E090E042E050E08D
:101B7000A40EB51EA1010E94880ED82ED2188FE7A0
:101B8000F82EF122F6FE0BC05EEFF522D91438F4E0
:101B9000F4FE07C0F2FC05C08FEEF82202C01D2D36
:101BA00001C0192DF4FE0DC0FE01ED0DF11D808167
:101BB000803319F499EEF92208C01F5FF2FE05C0C8
:101BC00003C08F2D867809F01F5F0F2DF3FC14C022
:101BD000F0FE0FC01E1510F09D2C0BC09D2C9E0C0E
:101BE000911A1E2D06C080E290E0B3010E945C0EA7
:101BF0001F5F1E15C0F304C01E1510F4E11A01C0CA
:101C0000EE2404FF0FC080E390E0B3010E945C0E5D
:101C100002FF1DC001FD03C088E790E00EC088E50B
:101C200090E00BC0802F867891F001FF02C08BE21C
:101C300001C080E2F7FC8DE290E0B3010E945C0EEF
:101C400006C080E390E0B3010E945C0E9A94D91420
:101C5000C0F3DA94F101ED0DF11D808190E0B30144
:101C60000E945C0EDD20A9F706C080E290E0B3017F
:101C70000E945C0EEA94EE20C1F743CEF301668128
:101C80007781CB012B96E2E10C94945EFC010590E8
:101C9000615070400110D8F7809590958E0F9F1F6E
:101CA0000895FC016150704001900110D8F78095B3
:101CB00090958E0F9F1F08950F931F93CF93DF93DF
:101CC0008C01EB018B8181FF1BC082FF0DC02E8137
:101CD0003F818C819D812817390764F4E881F9815F
:101CE0000193F983E88306C0E885F985802F09957B
:101CF000892B31F48E819F8101969F838E8302C050
:101D00000FEF1FEFC801DF91CF911F910F91089541
:101D1000FA01AA27283051F1203181F1E8946F931C
:101D20006E7F6E5F7F4F8F4F9F4FAF4FB1E03ED0C2
:101D3000B4E03CD0670F781F891F9A1FA11D680F60
:101D4000791F8A1F911DA11D6A0F711D811D911D93
:101D5000A11D20D009F468943F912AE0269F112408
:101D60003019305D3193DEF6CF010895462F47706C
:101D7000405D4193B3E00FD0C9F7F6CF462F4F70C7
:101D8000405D4A3318F0495D31FD4052419302D025
:101D9000A9F7EACFB4E0A6959795879577956795CB
:101DA000BA95C9F700976105710508959B01AC01CB
:101DB0000A2E06945795479537952795BA95C9F7F2
:101DC000620F731F841F951FA01D0895EF92FF924D
:101DD0000F931F93CF93DF93EC01E0900603F090F5
:101DE00007030091080310910903688179818A81B2
:101DF0009B81A80197010E94325A882324F4E8822B
:101E0000F9820A831B83E0900A03F0900B03009190
:101E10000C0310910D036C817D818E819F81A8013F
:101E200097010E94325A882324F4EC82FD820E83AB
:101E30001F83E0900E03F0900F03009110031091A8
:101E40001103688579858A859B85A80197010E9481
:101E5000325A882324F4E886F9860A871B87E090A3
:101E60002802F090290200912A0210912B02688129
:101E700079818A819B81A80197010E94405C181694
:101E800024F4E882F9820A831B83E0902C02F0900C
:101E90002D0200912E0210912F026C817D818E8186
:101EA0009F81A80197010E94405C181624F4EC82DF
:101EB000FD820E831F83E0903002F090310200918A
:101EC000320210913302688579858A859B85A80145
:101ED00097010E94405C181624F4E886F9860A8768
:101EE0001B87DF91CF911F910F91FF90EF90089585
:101EF0008091200308950E949740809120038823B9
:101F000009F036C081E080932003809123039091F3
:101F10002403A0912503B091260380932703909377
:101F20002803A0932903B0932A03EDECF0E09491E9
:101F300008C08091C00085FFFCCF9093C600319609
:101F400094919923B1F7E4EDF0E0949108C0809169
:101F5000C00085FFFCCF9093C600319694919923E1
:101F6000B1F78091C00085FFFCCF8AE08093C60066
:101F70000895F8940E949740439A10921203179A7A
:101F800010921303129A109214032B9AEDECF0E0C6
:101F9000949108C08091C00085FFFCCF9093C6004B
:101FA000319694919923B1F7EAE4F1E0949108C055
:101FB0008091C00085FFFCCF9093C600319694912C
:101FC0009923B1F78091C00085FFFCCF8AE0809310
:101FD000C600FFCF0E94475860932B0370932C03D9
:101FE00080932D0390932E03E9E6F1E0949108C0CD
:101FF0008091C00085FFFCCF9093C60031969491EC
:102000009923B1F78091C00085FFFCCF8AE08093CF
:10201000C6000895EF92FF920F931F930E944758B6
:10202000E0902F03F09030030091310310913203C0
:1020300020912B0330912C0340912D0350912E03BE
:10204000621B730B840B950BE616F706080719073E
:1020500038F4E114F1040105110511F00E94B90FE3
:102060008091350290913602A0913702B0913802EA
:102070000097A105B10559F10E94475820912B0303
:1020800030912C0340912D0350912E03621B730B52
:10209000840B950B20913502309136024091370226
:1020A00050913802261737074807590780F4909156
:1020B0002D0A80912E0A981751F4439A1092120318
:1020C000179A10921303129A109214032B9A0E94DB
:1020D000F0271F910F91FF90EF9008956F927F92DC
:1020E0008F929F92AF92BF92CF92DF92EF92FF9228
:1020F0000F931F93F82E60913303709134038091F6
:102100003503909136032091370330913803409185
:10211000390350913A030E944D5C3B014C0100D0C1
:1021200000D000D00DB71EB70F5F1F4F6091240283
:1021300070912502882777FD8095982F0E94D45AA8
:102140002091390230913A0240913B0250913C0279
:102150000E94125D20E030E040E752E40E94395ACC
:1021600020E030E048EC52E40E94395A5B016C01F7
:10217000F8016082718282829382F48280911503D9
:1021800085838AEE92E06FE373E043E353E020E05F
:1021900001E032E0E32E0E942A4A80913F039091B1
:1021A0004003A0914103B09142038093EA029093CF
:1021B000EB02A093EC02B093ED0280914303909167
:1021C0004403A0914503B09146038093EE0290939F
:1021D000EF02A093F002B093F10280914703909137
:1021E0004803A0914903B0914A038093F20290936F
:1021F000F302A093F402B093F50280914B03909107
:102200004C03A0914D03B0914E038093F60290933E
:10221000F702A093F802B093F9028DB79EB7069625
:102220000FB6F8949EBF0FBE8DBF0E9447586093B3
:102230002B0370932C0380932D0390932E031F91F7
:102240000F91FF90EF90DF90CF90BF90AF909F9055
:102250008F907F906F900895CF92DF92EF92FF92D0
:102260000F931F938FE393E00E94E60E0E9447585E
:1022700060932B0370932C0380932D0390932E0374
:102280006091EA027091EB028091EC029091ED0274
:1022900020913F033091400340914103509142030C
:1022A0000E94325A882309F07AC06091EE02709140
:1022B000EF028091F0029091F1022091430330915E
:1022C000440340914503509146030E94325A8823AB
:1022D00009F065C06091390270913A0280913B0229
:1022E00090913C0220E030E040E752E40E94395AED
:1022F0007B018C018FE393E063E473E047E453E0F8
:102300002BE433E0E5E1CE2EE3E0DE2E0E94352D16
:1023100080913F0390914003A0914103B09142030B
:102320008093EA029093EB02A093EC02B093ED024B
:102330008091430390914403A0914503B0914603DB
:102340008093EE029093EF02A093F002B093F1021B
:102350008091470390914803A0914903B0914A03AB
:102360008093F2029093F302A093F402B093F502EB
:1023700080914B0390914C03A0914D03B0914E037B
:102380008093F6029093F702A093F802B093F902BB
:102390001F910F91FF90EF90DF90CF900895609183
:1023A000240270912502882777FD8095982F0E943E
:1023B000D45A2091390230913A0240913B02509117
:1023C0003C020E94125D20E030E040E752E40E94AF
:1023D000395A20E030E048EC52E488CF81E69BE0B7
:1023E0000E94EF52ECE6F1E0949108C08091C000A9
:1023F00085FFFCCF9093C600319694919923B1F755
:10240000409123035091240360912503709126038A
:102410004F5F5F4F6F4F7F4F81E69BE02AE030E0D8
:102420000E94B2538091C00085FFFCCF8AE0809368
:10243000C6000E94EA0F08952F923F924F925F923A
:102440006F927F928F929F92AF92BF92CF92DF92C4
:10245000EF92FF920F931F93DF93CF93CDB7DEB729
:1024600028970FB6F894DEBF0FBECDBF98878F8335
:102470008330910508F056C1FC01E854FD4FD4901B
:102480003C01660C771C660C771C930126513D4F6E
:102490003A83298380E090E0A0E0B0E0F9018083F6
:1024A0009183A283B3838AEE92E06EEE72E042EFF4
:1024B00052E026EF32E00E944B28F301E554FD4F35
:1024C000E590F590059114916D2D772767FD709536
:1024D000882777FD8095982F0E94D45A1B012C01E4
:1024E0009301215C3C4F3C832B83C801B70120E062
:1024F00030E040EC5FE30E94125DA20191010E9476
:10250000125DAB81BC816D937D938D939C931397EA
:10251000F301EC5EFD4FFE83ED836081718182816A
:1025200093816093390270933A0280933B029093B7
:102530003C0220E030E040E752E40E94395A7B013F
:102540008C018FE393E063E473E047E453E02BE412
:1025500033E0A5E1CA2EA3E0DA2E0E94352D0E94B9
:102560006F3980E090E0A0E0B0E0E981FA818083FB
:102570009183A283B3838AEE92E06EEE72E042EF23
:1025800052E026EF32E00E944B28F301E953FD4F61
:1025900085909590A590B490C501B4019058A20182
:1025A00091010E94125DAB81BC816D937D938D93EF
:1025B0009C9313976091390270913A0280913B028B
:1025C00090913C0220E030E040E752E40E94395A0A
:1025D0007B018C018FE393E063E473E047E453E015
:1025E0002BE433E00E94352D0E946F39C501B40100
:1025F000A50194010E945959A20191010E94125D06
:10260000EB81FC816083718382839383AD81BE8182
:102610006D917D918D919C9120E030E040E05FE3F1
:102620000E94125D6093390270933A0280933B02DC
:1026300090933C0220E030E040E752E40E94395A97
:102640007B018C018FE393E063E473E047E453E0A4
:102650002BE433E00E94352D0E946F39F301ED52D7
:10266000FD4F6591759185919491F301E650FD4F71
:10267000A080B180C280D380A60195010E945959E3
:102680007B018C01CB01D801E981FA8180839183A0
:10269000A283B383F301E152FD4F6591759185915A
:1026A0009491F6E08F2EF3E09F2E860C971CA601E6
:1026B00095010E945959D4016D937D938D939C93FC
:1026C0001397F301E551FD4F6591759185919491B3
:1026D000E8E2F2E06E0E7F1EA60195010E945959B4
:1026E000D3016D937D938D939C931397C701D8016C
:1026F000EB81FC8180839183A283B38380E090E0AF
:10270000A0E0B0E08093390290933A02A0933B029C
:10271000B0933C020E94B038AF81B885AE5EBC4F2A
:1027200081E08C9328960FB6F894DEBF0FBECDBF24
:10273000CF91DF911F910F91FF90EF90DF90CF909D
:10274000BF90AF909F908F907F906F905F904F90D1
:102750003F902F900895FC01949108C08091C00093
:1027600085FFFCCF9093C600319694919923B1F7E1
:1027700081E69BE022E030E00E94C2540895FC0113
:10278000949108C08091C00085FFFCCF9093C60053
:10279000319694919923B1F781E69BE02AE030E0ED
:1027A0000E949353089540915A0350915B0320E691
:1027B00030E0B901469F9001479F300D569F300D84
:1027C0001124682F772767FD7095C901845A9C4FA3
:1027D0000E943A0C9C01909359038093580380E027
:1027E000232B09F081E008958091580390915903BB
:1027F000019660E070E04AE050E00E94D90A089536
:102800008091580390915903019660E070E00E9416
:1028100079090895CF93DF93EC018091150380939C
:10282000220384E50E94D313882309F46FC00E9419
:1028300000140E94A65A262F60932203662309F4EF
:1028400065C0E7ECF0E0949108C08091C00085FF7E
:10285000FCCF9093C600319694919923B1F7C93675
:10286000D10599F0CA36D10524F4C836D105F1F561
:102870000FC0CD36D10531F0CA3DD105B9F5E0E044
:10288000F1E031C0E7E1F1E023C0EEE2F1E015C094
:10289000E5E4F1E007C08091C00085FFFCCF3196F0
:1028A0009093C60090819923B1F720C08091C00019
:1028B00085FFFCCF31969093C60090819923B1F7A4
:1028C00015C08091C00085FFFCCF31969093C60063
:1028D00090819923B1F70AC08091C00085FFFCCF99
:1028E00031969093C60090819923B1F781E69BE0E1
:1028F000622F40E050E00E94A0538091C00085FF0D
:10290000FCCF8AE08093C60081E001C080E0DF91C7
:10291000CF910895AF92BF92CF92DF92EF92FF9244
:102920000F931F93CF93DF931AEEE12E12E0F12E57
:10293000CFE3D3E000E010E0F801EB59FD4F8081D8
:102940000E94D313882339F10E9400145B016C01AB
:10295000F801EC51FD4F8081882311F061E002C045
:1029600060914F0370E0882777FD8095982F0E9433
:10297000D45AF70120813181428153810E94125D36
:102980009B01AC01C601B5010E9459596883798346
:102990008A839B8309C0F70180819181A281B381E1
:1029A00088839983AA83BB830F5F1F4F84E090E0E5
:1029B000E80EF91E24960430110509F0BDCF86E417
:1029C0000E94D3138823E1F00E9400147B018C0144
:1029D0006093500370935103809352039093530379
:1029E00020E030E040E050E00E94405C181644F4E3
:1029F000E0923902F0923A0200933B0210933C02BB
:102A0000DF91CF911F910F91FF90EF90DF90CF90CA
:102A1000BF90AF9008950E948A1489E40E94D31356
:102A2000882359F00E940014609333037093340399
:102A300080933503909336030CC080E090E0A0E0D3
:102A4000B0E08093330390933403A0933503B093A5
:102A500036038AE40E94D313882359F00E9400149D
:102A600060933703709338038093390390933A034C
:102A7000089580E090E0A0E0B0E080933703909369
:102A80003803A0933903B0933A0308952F923F92ED
:102A90004F925F926F927F928F929F92AF92BF926E
:102AA000CF92DF92EF92FF920F931F93DF93CF931A
:102AB000CDB7DEB76E970FB6F894DEBF0FBECDBFB1
:102AC00087E40E94D313882309F423C20E940014D0
:102AD0000E94A15A6430710509F441C06530710546
:102AE00054F46230710541F1633071056CF5772360
:102AF000CCF40C9453226A35710509F4B5C16B35D9
:102B0000710534F46C31710511F00C94532269C0D5
:102B10006B35710509F4ACC16C35710511F00C947D
:102B20005322ABC180912003882331F40E948A1480
:102B30000E942C110C94742280912003882321F48C
:102B40000E940B1581E007C080912003882339F48F
:102B50000E940B1580E00E946E100C94742280E598
:102B60000E94D313882321F4CC24DD24760106C0EF
:102B70000E9400140E94A65A6B017C0183E50E940A
:102B8000D313882361F00E94001420E030E04AE76C
:102B900054E40E94125D0E94A65A6B017C010E94BF
:102BA0006F390E9447584B015C018C0C9D1CAE1C78
:102BB000BF1C0E94475860932B0370932C03809393
:102BC0002D0390932E0304C00E94DD430E940A103F
:102BD0000E944758681579058A059B05A8F30C944F
:102BE00053228091390290913A02A0913B02B09118
:102BF0003C028093540390935503A0935603B093E3
:102C0000570380912402909125029093E9028093CA
:102C1000E80284E690E090932502809324020E94CB
:102C2000475860932B0370932C0380932D0390934C
:102C30002E0381E00E94B7388091EA029091EB0266
:102C4000A091EC02B091ED0280933F03909340037A
:102C5000A0934103B09342038091EE029091EF0262
:102C6000A091F002B091F10280934303909344034A
:102C7000A0934503B09346038091F2029091F30232
:102C8000A091F402B091F50280934703909348031A
:102C9000A0934903B0934A038091F6029091F70202
:102CA000A091F802B091F90280934B0390934C03EA
:102CB000A0934D03B0934E0380E090E0A0E0B0E01D
:102CC0008093390290933A02A0933B02B0933C0266
:102CD00088E50E94D313882361F489E50E94D31309
:102CE000882339F48AE50E94D313882311F481E004
:102CF00001C080E080933D02882329F488E50E948A
:102D0000D313882321F080E090E00E941C12809170
:102D10003D02882329F489E50E94D313882321F0FA
:102D200081E090E00E941C1288E50E94D313882362
:102D3000D9F00E94F4136115710581059105A1F088
:102D40000E9400142091FA023091FB024091FC0293
:102D50005091FD020E9459596093EA027093EB0270
:102D60008093EC029093ED0289E50E94D3138823AF
:102D7000D9F00E94F4136115710581059105A1F048
:102D80000E9400142091FE023091FF024091000346
:102D9000509101030E9459596093EE027093EF0223
:102DA0008093F0029093F10280913D02882329F4F0
:102DB0008AE50E94D313882321F082E090E00E94EC
:102DC0001C128AE50E94D3138823D9F00E94F413C1
:102DD0006115710581059105A1F00E9400142091F3
:102DE00002033091030340910403509105030E94B4
:102DF00059596093F2027093F3028093F402909316
:102E0000F5028AEE92E06EEE72E042EF52E026EFBB
:102E100032E00E944B2880E00E94B7388091540332
:102E200090915503A0915603B091570380933902B6
:102E300090933A02A0933B02B0933C028091E80247
:102E40009091E90290932502809324020E944758B2
:102E500060932B0370932C0380932D0390932E0388
:102E60000E94B0380C94532210924F030C945322BA
:102E700081E080934F030C94532285E40E94D31386
:102E8000882311F40E946F399AEEE92E92E0F92E10
:102E90008AEFC82E82E0D82E00E010E0F801EB594E
:102EA000FD4F80810E94D313882331F1033061F4F8
:102EB0000E940014F701608371838283938386EFFD
:102EC00092E00E942D2818C00E940014F601208173
:102ED0003181428153810E945959F7016083718386
:102EE000828393838AEE92E06EEE72E042EF52E0CC
:102EF00026EF32E00E944B280F5F1F4F24E030E0A6
:102F0000E20EF31EC20ED31E0430110539F60C94E6
:102F100053228DE40E94D313882311F40C947B2157
:102F20000E9400140E94A15A6837710509F4D3C6A3
:102F3000693771050CF05FC06535710509F420C56E
:102F40006635710564F56A32710509F473C16B3237
:102F5000710574F46231710509F4C1C46F317105F2
:102F600009F4BEC06131710511F00C945322B2C056
:102F70006235710509F4ACC46335710534F461350B
:102F8000710511F00C94532291C46335710509F455
:102F9000A2C46435710511F00C945322A0C46D369F
:102FA000710509F4A4C26E36710574F468367105B2
:102FB00009F482C16936710509F4B1C16C35710536
:102FC00011F00C945322F2C46337710509F473C5F0
:102FD0006437710534F46237710511F00C94532293
:102FE00089C56537710509F475C56737710511F035
:102FF0000C9453226CC06D3D710511F40C94E01FCC
:103000006E3D71054CF56B3C710509F410C76C3CC5
:10301000710574F46C38710509F470C1693C71056F
:1030200009F4E3C66937710511F00C94532255C6B3
:103030006D3C710509F439C76D3C71050CF415C779
:103040006E3C710511F40C94B31F6C3D710511F0C9
:103050000C9453220C94D11F31E06039730711F4A2
:103060000C945A2181E0613978079CF491E06D322B
:10307000790711F40C944520E1E06F327E0711F4DA
:103080000C941A21623E710511F00C9453220C9499
:10309000EF1FF1E0663F7F0711F40C94602121E0FF
:1030A000673F72073CF4655F714011F00C94532246
:1030B0000C945D2181E0673F780711F40C94632143
:1030C000675E734011F00C9453220C946621ECE57A
:1030D000F1E00EC64398179812982B980C9453223F
:1030E0000E94475860931C0370931D0380931E0336
:1030F00090931F03209118033091190340911A03F4
:1031000050911B03621B730B840B950B28EE33E06D
:1031100040E050E00E942A5EF22EE32ED42EC52E0F
:10312000EDB7FEB738970FB6F894FEBF0FBEEDBFF0
:103130000DB71EB70F5F1F4FCE010196928381839B
:1031400089EA92E0F80193838283622F732F842FA0
:10315000952F2CE330E040E050E00E942A5EF80119
:10316000358324836F2D7E2D8D2D9C2D2CE330E017
:1031700040E050E00E942A5EF801778366830E9457
:10318000450CE7ECF0E094912DB73EB7285F3F4F38
:103190000FB6F8943EBF0FBE2DBF08C08091C0008F
:1031A00085FFFCCF9093C600319694919923B1F797
:1031B000FE01319607C08091C00085FFFCCF31969B
:1031C0009093C60090819923B1F78091C00085FF4C
:1031D000FCCF8AE08093C60080915C05882311F4BF
:1031E0000C94532210925C0580911503E82EFF2465
:1031F000EE0CFF1C8FE89AE0E80EF91EF7016081E3
:103200007181882777FD8095982F0E94D45A20914C
:1032100042023091430240914402509145020E9483
:10322000405C181614F00C945322F701118210829E
:103230000C94532283E50E94D313882311F40C9439
:1032400053220E9400140E94A15A6B017C015B0171
:1032500080E50E94D313882369F0D7FC0BC0FFEFF1
:10326000CF16D10409F034F40E9400140E94A15A30
:103270008B0102C00FEF1FEFE9E6F2E08081918140
:103280008017910711F40C945322329622E0E93D05
:10329000F207A1F717FF02C00C945322802F61E0C0
:1032A0000E941957802F6A2D0E945857802FB50110
:1032B0000E94E9580C94532288E690E00E940A1478
:1032C000882311F00C94532283E50E94D3138823A2
:1032D00089F00E94001420912203E22EFF24EE0CBC
:1032E000FF1CEFE8FAE0EE0EFF1E0E94A15AF70164
:1032F000718360830E9496400C94532283E50E9460
:10330000D313882311F40C9453220E9400140E94BA
:10331000A15A7093920A6093910A0C94532289E601
:1033200090E00E940A14882311F00C945322E3EADF
:10333000F2E0949108C08091C00085FFFCCF90938B
:10334000C600319694919923B1F7E0912203F0E001
:10335000EE0FFF1FEE0FFF1FEB56F54F408151811F
:103360006281738181E69BE021E030E00E94C254DB
:10337000E0EAF2E0949108C08091C00085FFFCCFA4
:103380009093C600319694919923B1F7E09122036E
:10339000F0E0EE0FFF1FE157F54F60817181882744
:1033A00077FD8095982F0E94D45AAB01BC0181E62D
:1033B0009BE021E030E00E94C254EDE9F2E09491FC
:1033C00008C08091C00085FFFCCF9093C600319665
:1033D00094919923B1F781E69BE060E070E04AE0C8
:1033E00050E00E94E753EBE9F2E0949108C080912D
:1033F000C00085FFFCCF9093C6003196949199232D
:10340000B1F74091950A5091960A6091970A709190
:10341000980A81E69BE021E030E00E94C254E8E98E
:10342000F2E0949108C08091C00085FFFCCF90939A
:10343000C600319694919923B1F760918F0A7091EB
:10344000900A882777FD8095982F0E94D45AAB0167
:10345000BC0181E69BE021E030E00E94C254E4E937
:10346000F2E0949108C08091C00085FFFCCF90935A
:10347000C600319694919923B1F7809122030E945E
:103480008B40BC0181E69BE04AE050E00E94E7539C
:10349000EFE8F2E0949108C08091C00085FFFCCF76
:1034A0009093C600319694919923B1F78FEF9FEFD7
:1034B0000E948B40BC0181E69BE04AE050E00E9404
:1034C000E753E5E7F1E007C08091C00085FFFCCF3E
:1034D00031969093C60090819923B1F78091C000F6
:1034E00085FFFCCF8AE08093C6000C9474228DE6A1
:1034F00090E00E940A14882311F00C945322109239
:103500005C0583E50E94D3138823A9F00E94001470
:1035100020912203E22EFF24EE0CFF1C2FE83AE05C
:10352000E20EF31E0E94A15AF7017183608381E0CD
:103530008093340218C082E50E94D313882399F047
:103540000E94001420912203E22EFF24EE0CFF1CA7
:103550002FE83AE0E20EF31E0E94A15AF7017183B0
:1035600060831092340283E50E94D313882351F0C4
:103570000E940014609342027093430280934402BD
:103580009093450282E40E94D313882351F00E9455
:10359000001460933E0270933F0280934002909328
:1035A000410286E40E94D313882369F00E9400142C
:1035B00060934602709347028093480290934902B9
:1035C00081E080935C050E9496400E9447584B0121
:1035D0005C0120912203E22EFF2410922103EE0CC5
:1035E000FF1CF701E157F54F60817181882777FD56
:1035F0008095982F0E94D45AEE0CFF1C25E93AE0E2
:10360000E20EF31EF70120813181428153810E9435
:10361000405C18161CF481E080932103CC24CA94EA
:10362000DC2C7601ECE8F2E05490E8E8F2E06490FB
:10363000E4E8F2E074903AE0432E2BC1952DECE8DB
:10364000F2E008C08091C00085FFFCCF9093C600D7
:10365000319694919923B1F7E0912203F0E0EE0FB7
:10366000FF1FEE0FFF1FEB56F54F40815181628126
:10367000738181E69BE021E030E00E94C254962DE8
:10368000E8E8F2E008C08091C00085FFFCCF90938D
:10369000C600319694919923B1F76091220381E697
:1036A0009BE070E04AE050E00E94E753972DE4E889
:1036B000F2E008C08091C00085FFFCCF9093C60067
:1036C000319694919923B1F7F7FE03C0E6E7F1E054
:1036D00028C00E944758A7019601205F384D4F4FE0
:1036E0005F4F261B370B480B590BCA01B90128EE57
:1036F00033E040E050E00E942A5E81E69BE0BA01A0
:10370000A9012AE030E00E9493538091C00085FF18
:10371000FCCF0EC08091C00085FFFCCF3196909306
:10372000C60090819923B1F78091C00085FFFCCF3E
:103730004092C6000E9447584B015C010E94DD4345
:103740000E940A10FFEFCF16FFEFDF06FFEFEF0634
:10375000FFEFFF0609F052C080912103E0912203A0
:10376000882331F1F0E08F01000F111F000F111FAE
:103770000B56154FEE0FFF1FE157F54F608171811A
:10378000882777FD8095982F0E94D45A20E030E05A
:1037900040E85FE30E9458599B01AC01F801608149
:1037A0007181828193810E94405C87FF58C05EC016
:1037B000F0E08F01000F111F000F111F0B56154F66
:1037C000EE0FFF1FE157F54F60817181882777FD6C
:1037D0008095982F0E94D45A20E030E040E85FE3C3
:1037E0000E9459599B01AC01F8016081718182816D
:1037F00093810E94325A181694F538C0F7FC36C0EF
:10380000E0912203F0E08F01000F111F000F111F44
:103810000B56154FEE0FFF1FE157F54F6081718179
:10382000882777FD8095982F0E94D45A9B01AC0180
:10383000F80160817181828193810E9458590E94B0
:10384000A15A97FF07C090958095709561957F4F1D
:103850008F4F9F4F64307105810591053CF00E94A8
:103860004758AC01CB01DA016C017D01FFEFCF16A7
:10387000FFEFDF06FFEFEF06FFEFFF0651F0F7FC6B
:1038800015C60E9447586C197D096051774208F0AF
:103890000DC60E944758681979098A099B09695E13
:1038A00073408040904008F0C9CE48CF0E949740B6
:1038B0000E946F392B9A0E947B3910921703109245
:1038C000160368EE73E080E090E00E945558EBC567
:1038D0001092E702E8C581E08093E702E4C583E542
:1038E0000E94D313882399F00E94001420E030E056
:1038F0004AE754E40E94125D0E94A65A6093350282
:10390000709336028093370290933802CCC588E5D5
:103910000E94D313882309F0DEC589E50E94D313E2
:10392000882309F0D8C58AE50E94D313882309F0BB
:10393000D2C585E40E94D313882309F0CCC50E9428
:103940006F392B9A0E947B39AEC5439A10921203AD
:1039500089E50E94D313882319F0179A1092130354
:103960008AE50E94D313882319F0129A1092140347
:1039700085E40E94D313882309F495C52B9A93C537
:1039800083E50E94D3130E94001420E030E04AE750
:1039900054E40E94125D0E94A65A60932F03709314
:1039A000300380933103909332037DC550E0652E40
:1039B00055E0752E40EF242E44E0342E3CE3432E98
:1039C00035E0532E88249924F401EB59FD4F808172
:1039D0000E94D313882309F45DC083E0881609F0A0
:1039E00052C00E9400145B016C0120E030E040EA0C
:1039F00051E40E94325A88230CF03FC0F3016081E9
:103A0000718182819381A60195010E94395A7B01BF
:103A10008C01609134057091350580913605909147
:103A20003705A80197010E94125D609334057093D9
:103A300035058093360590933705F10160817181DA
:103A400082819381A80197010E94125DF101608338
:103A5000718382839383F20160817181828193817A
:103A60000E94D25AA80197010E94125D0E94A65A94
:103A7000F2016083718382839383F301A082B18218
:103A8000C282D38207C00E940014F3016083718355
:103A9000828393830894811C911C24E030E0620EA1
:103AA000731E220E331E420E531E34E08316910401
:103AB00009F08ACFF8C4EFEBF1E0949108C080914F
:103AC000C00085FFFCCF9093C60031969491992356
:103AD000B1F7E9C4809158039091590305966AE2C1
:103AE00070E00E943A0CFC01009709F4DCC43197A5
:103AF0001082D9C4ECEBF1E0949108C08091C00031
:103B000085FFFCCF9093C600319694919923B1F72D
:103B10004091EA025091EB026091EC027091ED024B
:103B200081E69BE022E030E00E94C254E9EBF1E044
:103B3000949108C08091C00085FFFCCF9093C6008F
:103B4000319694919923B1F74091EE025091EF0292
:103B50006091F0027091F10281E69BE022E030E09A
:103B60000E94C254E6EBF1E0949108C08091C0003D
:103B700085FFFCCF9093C600319694919923B1F7BD
:103B80004091F2025091F3026091F4027091F502BB
:103B900081E69BE022E030E00E94C254E3EBF1E0DA
:103BA000949108C08091C00085FFFCCF9093C6001F
:103BB000319694919923B1F74091F6025091F70212
:103BC0006091F8027091F90281E69BE022E030E01A
:103BD0000E94C254E8EAF1E0949108C08091C000CC
:103BE00085FFFCCF9093C600319694919923B1F74D
:103BF00080E00E945D390E94D45A209100053091E6
:103C0000010540910205509103050E94395AAB010C
:103C1000BC0181E69BE022E030E00E94C254E5EA6C
:103C2000F1E0949108C08091C00085FFFCCF909393
:103C3000C600319694919923B1F781E00E945D39D5
:103C40000E94D45A20910405309105054091060543
:103C5000509107050E94395AAB01BC0181E69BE0F7
:103C600022E030E00E94C254E2EAF1E0949108C000
:103C70008091C00085FFFCCF9093C600319694914F
:103C80009923B1F782E00E945D390E94D45A2091B5
:103C900008053091090540910A0550910B050E94D5
:103CA000395AAB01BC0181E69BE022E030E00E9482
:103CB000C254E5E7F1E007C08091C00085FFFCCF6A
:103CC00031969093C60090819923B1F78091C000FE
:103CD00085FFFCCFE5C380E001C081E00E94B738DA
:103CE000E2C38091C00085FFFCCF31969093C6005F
:103CF00090819923B1F78091C00085FFFCCF8AE0C5
:103D00008093C600EAE9F1E0949108C08091C00078
:103D100085FFFCCF9093C600319694919923B1F71B
:103D2000349B03C0E8E7F1E00AC0EDE7F1E007C02B
:103D30008091C00085FFFCCF31969093C6009081A2
:103D40009923B1F78091C00085FFFCCF8AE0809372
:103D5000C600E2E9F1E0949108C08091C00085FFBF
:103D6000FCCF9093C600319694919923B1F7069BAE
:103D700003C0E8E7F1E00AC0EDE7F1E007C0809199
:103D8000C00085FFFCCF31969093C60090819923A7
:103D9000B1F78091C00085FFFCCF8AE08093C60018
:103DA000EAE8F1E0949108C08091C00085FFFCCF63
:103DB0009093C600319694919923B1F7019B03C06B
:103DC000E8E7F1E00AC0EDE7F1E007C08091C0004C
:103DD00085FFFCCF31969093C60090819923B1F76F
:103DE0008091C00085FFFCCF5BC305E612E020E1B7
:103DF000E22E25E0F22EF80180810E94D313882361
:103E000049F00E9400140E94A65AF7016083718352
:103E1000828393830F5F1F4F24E030E0E20EF31E96
:103E200032E00936130739F70E9402283CC305E641
:103E300012E090EFE92E94E0F92EF80180810E94C3
:103E4000D313882339F00E940014F7016083718333
:103E5000828393830F5F1F4F24E030E0E20EF31E56
:103E600032E00936130749F71EC383E50E94D313D6
:103E7000882351F00E940014609324057093250557
:103E8000809326059093270584E50E94D313882309
:103E900009F409C30E940014609328057093290552
:103EA00080932A0590932B05FEC283E50E94D313CD
:103EB000882351F00E94001460932005709321051F
:103EC000809322059093230584E50E94D3138823D1
:103ED00051F00E9400146093380570933905809367
:103EE0003A0590933B0582E40E94D313882361F046
:103EF0000E9400140E94A65A6093EC047093ED0493
:103F00008093EE049093EF0488E50E94D3138823F6
:103F100051F00E94001460932C0570932D0580933E
:103F20002E0590932F058AE50E94D313882351F024
:103F30000E94001460933005709331058093320520
:103F40009093330585E40E94D313882309F4ABC210
:103F50000E940014609334057093350580933605F4
:103F600090933705A0C205E612E08AEFE82E82E0C2
:103F7000F82EF80180810E94D313882339F00E9423
:103F80000014F70160837183828393830F5F1F4F57
:103F900024E030E0E20EF31E32E00836130749F762
:103FA00082C283E50E94D313882309F47CC20E9455
:103FB00000140E94A15A709325026093240273C2D8
:103FC00083E50E94D313882309F46DC20E94001474
:103FD0000E94A15A709327026093260264C280E572
:103FE0000E94D313882309F45EC20E9400140E9429
:103FF000A15A7B0183E50E94D313882319F40FEFA4
:104000001FEF05C00E9400140E94A15A8B01C80135
:104010000196039708F047C2E9E6F2E080819181BA
:104020008E159F0509F43FC2329682E0E93DF807FC
:10403000A9F7F7FC38C20E946F39DE2C8E2D60E0A4
:104040000E9419570115110541F00130110579F051
:104050009FEF0F3F190791F403C000E010E00EC07E
:104060008E2D0E94AC5700E010E0892B39F401E05E
:1040700010E004C00E94DD430E940A108D2D0E94B2
:10408000AC5780179107B1F70EC280E50E94D31399
:10409000882351F00E94001460934F0270935002E5
:1040A000809351029093520289E40E94D313882393
:1040B00061F00E9400140E94A34060935302709329
:1040C0005402809355029093560284E40E94D313C5
:1040D000882361F00E9400140E94B140609357024F
:1040E000709358028093590290935A0283E40E947D
:1040F000D313882351F00E94001460935B027093E5
:104100005C0280935D0290935E020E947440E7E837
:10411000F1E007C08091C00085FFFCCF31969093FD
:10412000C60090819923B1F7EAE8F1E007C08091D9
:10413000C00085FFFCCF31969093C60090819923F3
:10414000B1F740914F02509150026091510270912D
:10415000520281E69BE022E030E00E94C254EEE889
:10416000F1E007C08091C00085FFFCCF31969093AD
:10417000C60090819923B1F7609153027091540267
:1041800080915502909156020E94AA40AB01BC0159
:1041900081E69BE022E030E00E94C254E2E9F1E0D7
:1041A00007C08091C00085FFFCCF31969093C60078
:1041B00090819923B1F760915702709158028091D4
:1041C000590290915A020E94B840AB01BC0181E6AD
:1041D0009BE022E030E00E94C254E6E9F1E007C033
:1041E0008091C00085FFFCCF31969093C6009081EE
:1041F0009923B1F740915B0250915C0260915D029E
:1042000070915E0281E69BE022E030E00E94C254A1
:10421000E5E7F1E007C08091C00085FFFCCF319653
:104220009093C60090819923B1F78091C00085FFDB
:10423000FCCF36C185E40E94D313882319F400E033
:1042400010E012C00E9400140E94A15A8B0177FF57
:104250000BC00F2EF0E0CF2EF0E0DF2EFCE8EF2EAB
:10426000F2E4FF2EF02D0AC00F2EF0E0CF2EF0E08A
:10427000DF2EF6E1EF2EF3E4FF2EF02D83E50E9412
:10428000D313882321F00E9400146B017C0183E486
:104290000E94D313882319F425E030E005C00E9462
:1042A00000140E94A15A9B01C701B601A8010E94F7
:1042B0009145F9C00E946F39F6C00E94A94D03C014
:1042C0000E94A94DF0C00E94324FEDC01092200311
:1042D0008091270390912803A0912903B0912A038C
:1042E0008093230390932403A0932503B093260384
:1042F0000E94EE11D8C084E50E94D313882309F4EC
:1043000087C00E9400140E94A65A262F60932203A1
:104310006623A1F1E7ECF0E0949108C08091C00021
:1043200085FFFCCF9093C600319694919923B1F705
:10433000EAE9F1E007C08091C00085FFFCCF31962B
:104340009093C60090819923B1F781E69BE0622F9C
:1043500040E050E00E94A053ECE9F1E007C08091FA
:10436000C00085FFFCCF31969093C60090819923C1
:10437000B1F78091C00085FFFCCF92C086E40E9417
:10438000D3138823E1F00E9400146B017C01609339
:10439000500370935103809352039093530320E092
:1043A00030E040E050E00E94405C181644F4C092B7
:1043B0003902D0923A02E0923B02F0923C02E7ECE2
:1043C000F0E0949108C08091C00085FFFCCF9093ED
:1043D000C600319694919923B1F7EDEAF1E007C058
:1043E0008091C00085FFFCCF31969093C6009081EC
:1043F0009923B1F76091150381E69BE070E04AE0F4
:1044000050E00E94E7538091C00085FFFCCF48C078
:10441000E7ECF0E0949108C08091C00085FFFCCFEC
:104420009093C600319694919923B1F7E7E7F1E0B4
:10443000949108C08091C00085FFFCCF9093C60086
:10444000319694919923B1F720915A0330915B03EF
:1044500080E690E0289FF001299FF00D389FF00D35
:104460001124E45AFC4F07C08091C00085FFFCCFA7
:1044700031969093C60090819923B1F7E5E7F1E07A
:10448000949108C08091C00085FFFCCF9093C60036
:10449000319694919923B1F78091C00085FFFCCFAC
:1044A0008AE08093C6000E94EA0F1EC00E9447580F
:1044B000609318037093190380931A0390931B035E
:1044C0000E94475860932B0370932C0380932D0315
:1044D00090932E03E8CF0E946F3988E50E94D31392
:1044E000882309F032CA34CA6E960FB6F894DEBF3C
:1044F0000FBECDBFCF91DF911F910F91FF90EF9035
:10450000DF90CF90BF90AF909F908F907F906F90F3
:104510005F904F903F902F9008958F929F92AF920F
:10452000BF92CF92DF92EF92FF920F931F93CF93A0
:10453000DF9330E6C32ED12CE7EFF2E0A4902AE01F
:10454000922EEDE6F3E0B490882483940BC22D30D4
:1045500071F02A3321F48091DD04882341F08091A9
:10456000DE049091DF048F3591050CF4D7C1E09102
:10457000DE04F091DF04309719F41092DD042BC2B1
:10458000A091E004B091E104AC9D8001AD9D100DBF
:10459000BC9D100D1124E00FF11FE45AFC4F108256
:1045A0008091DD04882309F0B4C11092DD04AE517E
:1045B000BB4F1C92E801C45ADC4FCE016EE470E0A0
:1045C0000E943A0C9C01009709F4F7C0909359039C
:1045D000809358032F5F3F4F2C1B3D0B200F311F43
:1045E000C901845A9C4F60E070E04AE050E00E94AC
:1045F000D90A6093E6047093E7048093E8049093EB
:10460000E904E0902303F090240300912503109126
:104610002603A80197012F5F3F4F4F4F5F4F62174F
:1046200073078407950709F4BCC18091E004909159
:10463000E1049C012C9DC0012D9D900D3C9D900D91
:104640001124845A9C4F66E174E00E94200C892B4F
:1046500009F0A7C1EDECF0E0949108C08091C00092
:1046600085FFFCCF9093C600319694919923B1F7C2
:10467000E3EEF3E0949108C08091C00085FFFCCF89
:104680009093C600319694919923B1F781E69BE00F
:10469000B801A7012AE030E00E94B2538091C00027
:1046A00085FFFCCF73C01E274F5FFC01E40FF11D97
:1046B000E45AFC4FE081EA32B1F73093590320937A
:1046C0005803C901019660E070E00E9479090E94D8
:1046D000A15A212F30E02617370709F45DC0EDEC11
:1046E000F0E0949108C08091C00085FFFCCF9093CA
:1046F000C600319694919923B1F7E4ECF3E09491DC
:1047000008C08091C00085FFFCCF9093C600319611
:1047100094919923B1F74091230350912403609120
:1047200025037091260381E69BE02AE030E00E9499
:10473000B2538091C00085FFFCCF28C0EDECF0E0C3
:10474000949108C08091C00085FFFCCF9093C60073
:10475000319694919923B1F7EAE9F3E0949108C076
:104760008091C00085FFFCCF9093C6003196949154
:104770009923B1F781E69BE0B801A7012AE030E078
:104780000E94B2538091C00085FFFCCF8AE08093E5
:10479000C6000E94EE114AC08091E6049091E704A1
:1047A000A091E804B091E90480932303909324033B
:1047B000A0932503B09326033EC0CE016AE270E0C9
:1047C0000E943A0C009709F436C0EDECF0E09491A9
:1047D00008C08091C00085FFFCCF9093C600319641
:1047E00094919923B1F7E0E7F3E0949108C08091A8
:1047F000C00085FFFCCF9093C60031969491992319
:10480000B1F74091230350912403609125037091E7
:10481000260381E69BE02AE030E00E94B2538091BB
:10482000C00085FFFCCF8AE08093C6001092DF04B1
:104830001092DE04D0C08091E0049091E1048C9D40
:1048400080018D9D100D9C9D100D1124E801C45A0E
:10485000DC4FCE0167E470E00E943A0C9C010097A7
:1048600009F441C090935903809358032F5F3F4F41
:104870002C1B3D0B200F311FC901845A9C4F60E057
:1048800070E00E9479090E94A15A6430710558F5C0
:1048900080912003882399F49B2DEDE6F3E008C076
:1048A0008091C00085FFFCCF9093C6003196949113
:1048B0009923B1F78091C00085FFFCCF12C09A2DDB
:1048C000E7EFF2E008C08091C00085FFFCCF909335
:1048D000C600319694919923B1F78091C00085FF6D
:1048E000FCCF9092C6008091E0049091E104019683
:1048F00064E070E00E94175E9093E1048093E0040E
:104900008091EA049091EB0401969093EB048093DC
:10491000EA041092DF041092DE0424C02B3311F459
:104920008092DD048091DD048823E1F42091DE048F
:104930003091DF048091E0049091E1048C9DF001BE
:104940008D9DF00D9C9DF00D1124E20FF31FE45A94
:10495000FC4F8091DC0480832F5F3F4F3093DF0456
:104960002093DE0480915D0B90915E0B20915F0B94
:104970003091600B821B930B8F779070892B59F1CC
:104980008091EA049091EB0404972CF581E69BE07A
:104990000E94D152282F8093DC048A3009F0D7CDB1
:1049A000E6CD8091E0049091E1048C9DE0018D9D25
:1049B000D00D9C9DD00D1124CE01845A9C4F6AE2EB
:1049C00070E00E943A0C9C01009709F4B7CE10E009
:1049D00040E0CE016ACEDF91CF911F910F91FF9001
:1049E000EF90DF90CF90BF90AF909F908F90089501
:1049F0008091EA049091EB04039714F40E948D22B5
:104A00008091EA049091EB04892BC1F00E94461535
:104A10008091EA049091EB0401979093EB048093CA
:104A2000EA0480915A0390915B03019664E070E080
:104A30000E94175E90935B0380935A030E94DD43AC
:104A40000E940A100E94D63F0895DF93CF9300D0B2
:104A5000CDB7DEB781E69BE040E950ED63E070E062
:104A60000E949952E7EFF4E0949108C08091C00051
:104A700085FFFCCF9093C600319694919923B1F7AE
:104A80008091C00085FFFCCF8AE08093C60047EC90
:104A900050E0FA01949108C08091C00085FFFCCFDE
:104AA0009093C600319694919923B1F784B7282F3B
:104AB00080FF15C0EFEEF4E0949108C08091C00033
:104AC00085FFFCCF9093C600319694919923B1F75E
:104AD0008091C00085FFFCCF8AE08093C60021FF53
:104AE00015C0EFEDF4E0949108C08091C00085FFFF
:104AF000FCCF9093C600319694919923B1F78091A1
:104B0000C00085FFFCCF8AE08093C60022FF15C05D
:104B1000EEECF4E0949108C08091C00085FFFCCFDA
:104B20009093C600319694919923B1F78091C0007B
:104B300085FFFCCF8AE08093C60023FF15C0EEEB13
:104B4000F4E0949108C08091C00085FFFCCF909361
:104B5000C600319694919923B1F78091C00085FFEA
:104B6000FCCF8AE08093C60025FF15C0EEEAF4E092
:104B7000949108C08091C00085FFFCCF9093C6003F
:104B8000319694919923B1F78091C00085FFFCCFB5
:104B90008AE08093C60014BEE6EAF4E0949108C06F
:104BA0008091C00085FFFCCF9093C6003196949110
:104BB0009923B1F7E0EAF4E0949108C08091C00035
:104BC00085FFFCCF9093C600319694919923B1F75D
:104BD0008091C00085FFFCCF8AE08093C600FA0177
:104BE0009491E7ECF0E008C08091C00085FFFCCF15
:104BF0009093C600319694919923B1F7E0E9F4E0DF
:104C0000949108C08091C00085FFFCCF9093C600AE
:104C1000319694919923B1F7EBE7F4E0949108C0B1
:104C20008091C00085FFFCCF9093C600319694918F
:104C30009923B1F7EFE6F4E0949108C08091C000A9
:104C400085FFFCCF9093C600319694919923B1F7DC
:104C5000E8E5F4E0949108C08091C00085FFFCCFA6
:104C60009093C600319694919923B1F78091C0003A
:104C700085FFFCCF8AE08093C600EDE4F4E09491D8
:104C800008C08091C00085FFFCCF9093C60031968C
:104C900094919923B1F7E1E4F4E0949108C08091F4
:104CA000C00085FFFCCF9093C60031969491992364
:104CB000B1F78091C00085FFFCCF8AE08093C600E9
:104CC000FA019491E7ECF0E008C08091C00085FF04
:104CD000FCCF9093C600319694919923B1F7E2E30B
:104CE000F4E0949108C08091C00085FFFCCF9093C0
:104CF000C600319694919923B1F720912A0C3091F6
:104D00002B0CCE0101962115310519F480539C40DE
:104D100002C0821B930B9A83898369817A8181E621
:104D20009BE04AE050E00E94E753EBE1F4E094910D
:104D300008C08091C00085FFFCCF9093C6003196DB
:104D400094919923B1F781E69BE060ED74E04AE02D
:104D500050E00E94E7538091C00085FFFCCF8AE0BD
:104D60008093C6001092E2041092E3041092E404CF
:104D70001092E5040E94A94D0E94324F0E946443A4
:104D80000E94722A0E94C03880E197E220E931E057
:104D9000F9013197F1F70197D9F70F900F90CF9163
:104DA000DF9108953F924F925F926F927F928F9220
:104DB0009F92AF92BF92CF92DF92EF92FF920F93AA
:104DC0001F93CF93DF9380915C05882309F4F6C08D
:104DD0008090420290904302A0904402B09045021D
:104DE00060918F0A7091900A882777FD8095982F9F
:104DF0000E94D45A20E030E040E050E40E9459592B
:104E0000A50194010E94325A87FDD8C030902E0A25
:104E10000F2EF0E04F2EF0E05F2EF0E06F2EF0E06E
:104E20007F2EF02DCDE4D0E058C0232D30E02C9F14
:104E3000F0012D9FF00D3C9FF00D1124E35AFA4F25
:104E400080819181A281B3810097A105B10581F490
:104E500084819581A681B7810097A105B10541F4B0
:104E600080859185A285B3850097A105B10591F153
:104E70002C9F60012D9FD00C3C9FD00C11248DE500
:104E800095E0C80ED91EF6016485758586859785DF
:104E90000E94D45A7B018C01F60160897189828954
:104EA00093890E94D25A9B01AC01C801B7010E94AC
:104EB000395AF60122A133A144A155A10E94125DE5
:104EC0007B018C01A30192010E94405C181614F42E
:104ED000270138013394FFE03F2280912D0A3816D4
:104EE00009F0A3CFC301B2012091460230914702DD
:104EF00040914802509149020E94125D9B01AC0111
:104F0000C501B4010E9459597B018C01A50194018E
:104F10000E94325A87FD02C04701580110913E029B
:104F200000913F02F0904002E0904102C501B401BF
:104F3000212F302F4F2D5E2D0E94405C181634F427
:104F4000812F902FAF2DBE2D4C015D014090430A63
:104F50005090440A6090450A7090460AC301B2011D
:104F6000A50194010E94405C1816C4F4C501B40167
:104F700020E037ED43EA5CE30E94125D7B018C0187
:104F8000C301B20128E431EE4AE75FE30E94125DFB
:104F9000A80197010E9459594B015C018092430A74
:104FA0009092440AA092450AB092460AC501B40103
:104FB0000E94A15A7093900A60938F0ADF91CF915B
:104FC0001F910F91FF90EF90DF90CF90BF90AF9027
:104FD0009F908F907F906F905F904F903F9008953B
:104FE00090912E0A80912D0A981749F090912E0ADF
:104FF00002C09F5F9F7080912D0A9817D1F70E9481
:10500000D22608950F931F93CF93DF93C0E0D0E093
:105010008E01045C1A4FFE01E05FFA4F60817181DE
:10502000828193810E94D25AFE01E050FB4F208181
:105030003181428153810E94125D0E94A65AF8017B
:1050400060837183828393832496C031D10501F7F5
:10505000DF91CF911F910F910895FC0160817181C3
:105060008281938120910C0530910D0540910E05B0
:1050700050910F050E94125D0E94E25C60935805FA
:105080007093590580935A0590935B0588E595E0E8
:105090000E944C3908958F929F92AF92BF92CF9207
:1050A000DF92EF92FF920F931F93FC018B015A0145
:1050B0004901608171818281938120910005309145
:1050C000010540910205509103050E94125D0E9466
:1050D000E25C3CE4C32E35E0D32E60934C05709324
:1050E0004D0580934E0590934F05F80160817181C5
:1050F0008281938120910405309105054091060538
:10510000509107050E94125D0E94E25C24E0E22EAD
:10511000F12CEC0CFD1C60935005F7017183828328
:105120009383F501608171818281938120910805CB
:105130003091090540910A0550910B050E94125DBE
:105140000E94E25C8601085F1F4F60935405F801DE
:10515000718382839383F401608171818281938161
:1051600020910C0530910D0540910E0550910F05D1
:105170000E94125D0E94E25CF6013C966093580525
:10518000718382839383C601B701A8019F010E94A6
:10519000123980E090E0A0E0B0E080932F0A909375
:1051A000300AA093310AB093320A8093330A909365
:1051B000340AA093350AB093360A8093370A909345
:1051C000380AA093390AB0933A0A80933B0A909325
:1051D0003C0AA0933D0AB0933E0A80933F0A909305
:1051E000400AA093410AB093420A1F910F91FF9089
:1051F000EF90DF90CF90BF90AF909F908F900895E9
:105200008F929F92AF92BF92CF92DF92EF92FF92D6
:105210000F931F93CF93DF93EC016B01009709F479
:105220005CC08FA9882309F058C0EEA0FFA008A594
:1052300019A5FB01B6A0A7A090A481A4C801B7013D
:105240002B2D3A2D492D582D0E94325A88230CF0CF
:1052500044C0C801B701A80197010E94125D7B01FB
:105260008C016AA97BA98CA99DA9905820E030E007
:1052700040E050EC0E94125D2EA53FA548A959A917
:105280000E94125D9B01AC01C801B7010E945959EF
:105290000E947F5D7B018C016B2D7A2D892D982DCD
:1052A0009701A8010E94325A882324F4EB2CFA2C8F
:1052B000092D182D6B2D7A2D892D982D9701A80178
:1052C0000E94325A882349F0C701D801F60186A30B
:1052D00097A3A0A7B1A781E086ABDF91CF911F91E3
:1052E0000F91FF90EF90DF90CF90BF90AF909F9085
:1052F0008F900895EF92FF920F931F93CF93DF93B8
:10530000F0902E0A00E010E020E030E04DE4E42EC2
:1053100012C0FE9CE0011124C35ADA4FC901B80142
:10532000AE010E9400298F2D8F5F803109F480E04B
:10533000F82E98018E0180912D0AF81651F7C901B7
:10534000B80140E050E00E940029DF91CF911F9109
:105350000F91FF90EF900895AF92BF92CF92DF929E
:10536000EF92FF920F931F93CF93DF93EB018A018C
:105370006115710509F466C04115510509F462C053
:10538000DAA4CBA4BCA4ADA46EA17FA188A599A5E5
:105390002D2D3C2D4B2D5A2D0E94325A882309F475
:1053A00051C08FA9882309F043C0F801E6A0F7A0F7
:1053B00000A511A56D2D7C2D8B2D9A2DA80197018F
:1053C0000E94405C1816A4F5C801B701A801970116
:1053D0000E94125D7B018C016AA97BA98CA99DA901
:1053E000905820E030E040E050EC0E94125D2EA585
:1053F0003FA548A959A90E94125D9B01AC01C801B3
:10540000B7010E9459590E947F5D7B018C016D2D6F
:105410007C2D8B2D9A2D9701A8010E94325A88234A
:1054200024F4ED2CFC2C0B2D1A2DC701D80104C03F
:105430008D2D9C2DAB2DBA2D8EA39FA3A8A7B9A708
:1054400081E08EABDF91CF911F910F91FF90EF9094
:10545000DF90CF90BF90AF900895CF92DF92EF9200
:10546000FF920F93DF93CF9300D0CDB7DEB780913B
:105470002D0A8FB7F894F0902E0A8FBF80912D0AD5
:1054800090E040968F1991098F709070049704F105
:1054900000912D0A03500F70CC24DD2440E050E031
:1054A0006DE4E62E13C0802F002309F480E1082F5D
:1054B00001500E9DC0011124835A9A4F9A8389830B
:1054C000B6010E94AC29A601C980DA800F1559F7F0
:1054D0000F900F90CF91DF910F91FF90EF90DF90A1
:1054E000CF90089510922D0A10922E0A80E1ECE4DC
:1054F000F5E0DF011D928A95E9F780E090E0A0E0F9
:10550000B0E08093330A9093340AA093350AB093A5
:10551000360A8093370A9093380AA093390AB093D9
:105520003A0A80933B0A90933C0AA0933D0AB093B9
:105530003E0A80933F0A9093400AA093410AB09399
:10554000420A80932F0A9093300AA093310AB093B5
:10555000320A08952F923F924F925F926F927F92FC
:105560008F929F92AF92BF92CF92DF92EF92FF9273
:105570000F931F93DF93CF93CDB7DEB766970FB628
:10558000F894DEBF0FBECDBF9E8B8D8B6A017B0171
:1055900048015901DC01D8966D917D918D919C91C6
:1055A000DB970E94D25A698B7A8B8B8B9C8BA701DD
:1055B00096010E94125D0E941F5A0E94A65A6D8396
:1055C0007E838F83988769897A898B899C89A501D5
:1055D00094010E94125D0E941F5A0E94A65A69837C
:1055E0007A838B839C832D813E814F815885283718
:1055F00031054105510540F448E750E060E070E0B6
:105600004D835E836F83788769817A818B819C81EA
:10561000683771058105910540F488E790E0A0E0C6
:10562000B0E089839A83AB83BC83AD89BE89AC5BD0
:10563000BF4FAD90BD90CD90DC901397A454B04077
:10564000BE8BAD8B6D817E818F8198850E94D25AF1
:105650006D877E878F87988BC601B5010E94D45ACB
:105660001B012C0120E030E040E050E00E94325A63
:10567000882321F4E0E070E060E028C069897A893D
:105680008B899C899B01AC010E94125D7B018C017E
:105690006D857E858F8598899B01AC010E94125D86
:1056A0009B01AC01C801B7010E9458597B018C01D4
:1056B000C201B101A20191010E9459599B01AC01A3
:1056C000C801B7010E94395AE62F692F2E2F372FB4
:1056D000482F562FB901CA010E941F5A0E94A15A91
:1056E0003B014C0169817A818B819C810E94D25A55
:1056F00069877A878B879C8766277727CB016A190A
:105700007B098C099D090E94D45A5B016C0120E041
:1057100030E040E050E00E94325A882321F4E0E07B
:1057200070E060E028C069857A858B859C859B0147
:10573000AC010E94125D7B018C0169897A898B8999
:105740009C899B01AC010E94125D9B01AC01C801C8
:10575000B7010E9458597B018C01C601B501A60111
:1057600095010E9459599B01AC01C801B7010E94E3
:10577000395AE62F692F2E2F372F482F562FB90170
:10578000CA010E940F5BED89FE89A088B188C2889A
:10579000D38886017501E618F708080919090E94DF
:1057A000A15AA8019701261B370B480B590B57FF2D
:1057B00071C0C201B10120E030E040E050E00E9441
:1057C000325A882321F4E0E070E060E044C0C20176
:1057D000B101A20191010E9459597B018C01C601BE
:1057E000B5010E94D25A9B01AC01C801B7010E94C9
:1057F000125D7B018C016D857E858F8598899B016B
:10580000AC010E94125D9B01AC01C801B7010E946E
:1058100058597B018C0169857A858B859C859B0114
:10582000AC010E94125D9B01AC01C801B7010E944E
:1058300059597B018C01C201B10120E030E040E800
:1058400050E40E94125D9B01AC01C801B7010E94A7
:10585000395AE62F692F2E2F372F482F562FB9018F
:10586000CA010E941F5A0E94A15AAC01CB01DA0161
:105870003C014D0197FE03C06624772443016A145E
:105880007B048C049D0410F03501460120E030E0DB
:1058900040E050E09FB7F8946D897E89645B7F4F4C
:1058A000DB018C91AC54B040BE8BAD8B882321F5CD
:1058B000FD01648A758A868A978A260D371D481DE0
:1058C000591D58962D933D934D935C935B972D8175
:1058D0003E814F815885DC962D933D934D935C938B
:1058E000DF97A05CBF4F29813A814B815C812D936A
:1058F0003D934D935C9313979FBF66960FB6F894B4
:10590000DEBF0FBECDBFCF91DF911F910F91FF90F2
:10591000EF90DF90CF90BF90AF909F908F907F904F
:105920006F905F904F903F902F9008954F925F92AD
:105930007F928F929F92AF92BF92CF92DF92EF921F
:10594000FF920F931F93CF93DF9370902E0AC0E0C6
:10595000D0E07DE4472E512C46C02097B1F18EA9AE
:10596000882361F4849CF001859CF00D949CF00DDB
:105970001124E35AFA4F86A9882339F1EAA0FBA043
:105980000CA11DA16EA17FA188A599A5A8019701D1
:105990000E94395A5B016C01849CF001859CF00DDA
:1059A000949CF00D1124E35AFA4F66A177A180A5CB
:1059B00091A5A80197010E94395A8B019C01CE0143
:1059C000B601A5010E94AA2A1EAA739480E1781646
:1059D00009F47724849CE001859CD00D949CD00D23
:1059E0001124C35ADA4F872C992487FC9094809114
:1059F0002D0A90E08816990609F0AFCF2097F1F0B4
:105A0000EAA0FBA00CA11DA16EA17FA188A599A56C
:105A1000A80197010E94395A5B016C016DEC7CEC86
:105A20008CE49DE3A80197010E94395A8B019C01E7
:105A3000CE01B601A5010E94AA2A1EAADF91CF912C
:105A40001F910F91FF90EF90DF90CF90BF90AF909C
:105A50009F908F907F905F904F9008950E942D2A85
:105A60000E947A290E94962C08952F923F924F927D
:105A70005F926F927F928F929F92AF92BF92CF92DE
:105A8000DF92EF92FF920F931F93DF93CF93CDB7E7
:105A9000DEB7C859D0400FB6F894DEBF0FBECDBFF9
:105AA0005C014B013A012901CB56DF4FE882C55911
:105AB000D040CA56DF4FF882C659D040C956DF4F92
:105AC0000883C759D040C856DF4F1883C859D04003
:105AD000E396DFAECEAEE39780912D0A8F5F8031E3
